:02000004080AE8
:1000000000000A08C87B0A08000006000600050177
:080010000402E50C00000000F1
:04001800606A0A0808
:10001C0009480A4908B5884205D0094A824202D0EB
:10002C00121A04F099FF0748074A0021121A04F02B
:10003C00A1FF064808BD00BF00000020CC7A0A08CA
:10004C00D4000020D8000020040A0020040A00205C
:10005C0070B502F047FF0025054E064CA41BA40802
:10006C00AC4200D170BD56F8043B98470135F7E718
:10007C00907A0A08BC7A0A0801F0DEBC08B501F0D7
:10008C007FFDBDE8084002F0E5BE02F017BA02F0B1
:10009C0015BA02F01BBA0078B0FA80F0400970472C
:1000AC00012303707047F8B50E46054611463046DD
:1000BC00B3F900201C46069F02F0D8FB03B2238044
:1000CC002846B7F90020314602F0F0FB228828467A
:1000DC00013212B222803A80F8BD00B58BB0039386
:1000EC000C9BA0F26C7002930D9B06900193002365
:1000FC00013901A8CDE90421099305F01BF80BB0D7
:10010C005DF804FB70B4036809685C689D68661050
:10011C0005EB6400E40748BFAC591B68126848BF84
:10012C00E35870BC1847012A38B5044602D10B6855
:10013C00236003E0022A03D0032A0DD0002038BD2F
:10014C000C200D68FFF7A1FF03460028F0D095E8BE
:10015C00070083E80700EBE700680028EED00C21CD
:10016C00FFF797FFEAE7000013B50446044B1B7832
:10017C008DF800303C2303F047F8204602B010BD48
:10018C00D800002010B58368044613B10322014641
:10019C009847204610BD70B5054601F089FFD5F88B
:1001AC00B042064601F084FFD5F8B432C5F8B0026F
:1001BC001C44A01B0028C5F8B402D4BF00200120A9
:1001CC0070BD90F8BE02831E58425841704790F89B
:1001DC00BE02C31E58425841704790F8BE02431FDE
:1001EC0058425841704798B5D0F8A43200AF083344
:1001FC0023F00703ADEB030D0446D0F89C126846C0
:10020C0005F077F90023694623724FF4007204F16C
:10021C00090005F0E5FE03F0B5FC40F20122206870
:10022C0004F1080101F05CFFBD4698BD1FB5044602
:10023C0003F0A8FC40F20122206804F1080101F04F
:10024C0047FF237A012B0FD004F10901684602F015
:10025C0021FA694604F5277002F066FA684602F046
:10026C00CFF9012004B010BD0020FBE7F8B5002544
:10027C004FF40073C0E90053012304460F461646A1
:10028C000372294B29461A689B88C0F80920A0F8EC
:10029C000D304FF4FD720F3004F06CFE234904F561
:1002AC00037002F0F7F9224904F5077002F0F2F935
:1002BC00204904F50B7002F0EDF9394604F50F7086
:1002CC0002F027FA314604F5137002F022FA1A49AB
:1002DC0004F5177002F0DEF9174904F51B7002F0F3
:1002EC00D9F9154904F51F7002F0D4F9124904F537
:1002FC00237002F0CFF9104904F5277002F0CAF907
:10030C000D4904F5317002F0C5F92046FFF78EFF58
:10031C00A84214BF02232B46204684F8BE32C4F8F0
:10032C00B85284F8C052F8BDDB6D0A08746A0A082A
:10033C00836A0A08936A0A08866B0A0838B5054668
:10034C000123044605F8083F03F01CFC29462068ED
:10035C0040F20122BDE8384001F0C2BE38B5046855
:10036C0005467CB16368013B63605BB9236820463A
:10037C009B689847A368013BA3601BB92368204680
:10038C00DB689847284638BDF0B500260D469BB073
:10039C001146044606A8ADF80C60ADF80E6002F0EC
:1003AC0079F929460AA80DF10E0502F073F92F22EE
:1003BC0003AB0AA916A80095FFF775FE16A802F064
:1003CC001FF92F2203AB0AA90EA80095FFF76BFEAD
:1003DC000AA912A82F22009503ABFFF764FE7549FA
:1003EC000EA8ADF80C60ADF80E6002F022FA0028F1
:1003FC0000F0CD8004F5037112A802F00DFA074647
:10040C00002860D07E2203AB06A916A80095FFF742
:10041C004AFE16A904F5177002F086F916A802F028
:10042C00EFF87E2203AB06A916A80095FFF73BFE5A
:10043C0016A904F51B7002F077F916A802F0E0F883
:10044C007E2203AB06A916A80095FFF72CFE16A971
:10045C0004F51F7002F068F916A802F0D1F87E229C
:10046C0006A903AB16A80095FFF71DFE16A802F00F
:10047C003FFA4FF47A735843C4F8B40216A802F04A
:10048C00BFF803AB324606A916A80095FFF70BFE82
:10049C0016A802F02DFAC0EB401300EB8300C0004D
:1004AC00A4F8BC0216A802F0ABF812A802F0A8F847
:1004BC000EA802F0A5F80AA802F0A2F806A802F00D
:1004CC009FF81BB0F0BD04F5077112A802F0A4F957
:1004DC000646002841D07E2203AB06A916A800953B
:1004EC00FFF7E1FD16A904F5237002F01DF916A81B
:1004FC0002F086F803AB7E2206A916A80095FFF73A
:10050C00D2FD16A904F5277002F00EF916A802F018
:10051C0077F84FF47A7002F04DFCD4F89C1216A8C0
:10052C0002F0ECF9169A244904A8FFF71DFE05A861
:10053C00FFF714FF16A802F063F83A46009503ABD8
:10054C0006A916A8FFF7AFFD16A802F0D1F94FF4D3
:10055C007A735843C4F8B402A4E704F50B7112A8DB
:10056C0002F05AF90028A0D07E2203AB06A916A8E7
:10057C000095FFF798FD16A904F5237002F0D4F846
:10058C0016A802F03DF83246009503ABD8E70B49AC
:10059C000EA802F04EF9002887D010230D2206A9D0
:1005AC0016A802F083F916A802F0A2F9A4F8D40256
:1005BC0078E700BFA36A0A08B16A0A08B76A0A0892
:1005CC0010B504468AB0FFF7DFFE94F8BF32012B5A
:1005DC0077D0022B00F09F80002B40F0B88063494D
:1005EC0002A802F057F8624906A802F053F804F585
:1005FC001F7106A802F0DBF8014602A802F0C4F84D
:10060C0006A801F0FDFF5B4906A802F043F804F5CB
:10061C001B7106A802F0CBF8574902F0D4F801463A
:10062C0002A802F0B1F806A801F0EAFF03F028F8DE
:10063C00029902F0C0F94FF47A7002F0BBFBD4F8C7
:10064C007C1206A802F05AF9069A4C496846FFF744
:10065C008BFD01A8FFF782FE06A801F0D1FF4FF435
:10066C007A7002F0A7FBD4F86C1206A802F046F9D7
:10067C00069A42496846FFF777FD01A8FFF76EFE20
:10068C0006A801F0BDFF4FF47A7002F093FB0299BB
:10069C0006A802F033F9069A38496846FFF764FD5C
:1006AC0001A8FFF75BFE06A801F0AAFF94F8BE3282
:1006BC0002A884F8BF32012384F8BE3201F0A0FFF7
:1006CC001DE002F0DDFF2E4902F075F92D4906A858
:1006DC0002F014F9069A294902A8FFF745FD03A870
:1006EC00FFF73CFE06A801F08BFF94F8BE322046C3
:1006FC0084F8BF32032384F8BE32FFF774FD01F097
:10070C00D7FCC4F8B002002084F8C0020AB0BDE8DF
:10071C00104001F0BBBE02F0B3FF1B4902F04BF9D5
:10072C001A4906A802F0EAF8069A144902A8FFF73B
:10073C001BFD03A8FFF712FE06A801F061FF94F859
:10074C00BE3284F8BF32032384F8BE32D7E7104997
:10075C0006A802F0D3F8069A084902A8FFF704FD90
:10076C0003A8FFF7FBFD06A8A8E700BFC26A0A08AA
:10077C000E6B0A08206B0A08846B0A08B16A0A0817
:10078C00416B0A08586B0A086B6B0A08876B0A08DE
:10079C009F6B0A0830B5044687B0FFF7F5FD04F5EA
:1007AC003175B4F8D422364902A802F0A7F802A990
:1007BC00284601F0B9FF02A801F022FF94F8BF32DD
:1007CC00012B2BD0022B56D01BB928462D4901F0FA
:1007DC00B3FFB4F8D432FBB1B3F5D67F1CD002F022
:1007EC004FFFD4F8C41202F0E6F8D4F8C41202A8F1
:1007FC0002F084F8029A24496846FFF7B5FC01A878
:10080C00FFF7ACFD02A801F0FBFE94F8BE3284F8B1
:10081C00BF32052384F8BE3207B030BDB4F8D432F1
:10082C00B3F5D67F14D102F02BFF184902F0C3F8B0
:10083C0002A8164902F062F86846029A1249FFF7BC
:10084C0093FC01A8FFF78AFD02A801F0D9FEC0E7CE
:10085C0040F29312934204D10D49284601F098FFBF
:10086C00B7E740F29112934201D10A49F5E7002B08
:10087C00AFD00949F1E72046FFF760FDF9E700BF6B
:10088C00BD6B0A08CF6B0A08B16A0A08EB6B0A0841
:10089C00046C0A081C6C0A083C6C0A0830B587B05A
:1008AC000546FFF778FC044688B90223094985F808
:1008BC00BE3202A802F022F86846029A0649FFF7F7
:1008CC0053FC01A8FFF74AFD02A801F099FE20464F
:1008DC0007B030BD566C0A08B16A0A0810B5044658
:1008EC0086B002F0CDFED4F8C41202F064F8D4F84D
:1008FC00C41202A802F002F8029A06496846FFF7F1
:10090C0033FC01A8FFF72AFD02A801F079FE06B01E
:10091C0010BD00BFB16A0A0838B5002383608B682C
:10092C0004460D462BB102229847EB68E360AB6896
:10093C00A360204638BD0000F0B51F46002391B0DF
:10094C0002AD85E8060005AC064695E8030084E890
:10095C0005000C200A93FFF798FB024620B194E89F
:10096C00030082E803009760124B08A90B93124B0B
:10097C000CA80A930892FFF7CFFF0E9B8BB11020A7
:10098C00FFF783FB044660B10CA9FFF7C5FF0023FA
:10099C002246CDE9003330469DF85830074901F026
:1009AC006DFD0CA8FFF7EEFB08A8FFF7EBFB11B0F1
:1009BC00F0BD00BF11010A0833010A080B300A0808
:1009CC002DE9F04190F8C0720646884692B0002F8F
:1009DC0051D10EAC38460AAD01F058FD204601F05D
:1009EC003DFD2146284601F094FE2449284601F09D
:1009FC00EAFE414601F0DBFE014602A801F089FE49
:100A0C00284601F0FDFD204601F0FAFD204601F0DC
:100A1C0025FD2146284601F07CFE1949284601F0A7
:100A2C00D2FE414601F0C3FE014606A801F071FE5C
:100A3C00284601F0E5FD204601F0E2FD114B009740
:100A4C00CDE90A370298334695E80600FFF774FFA4
:100A5C000D4B0097CDE90E370698334694E8060007
:100A6C00FFF76AFF012306A886F8C03201F0C8FD23
:100A7C0002A801F0C5FD12B0BDE8F081736C0A0844
:100A8C00836C0A08CD050A08A1070A0810B50446AC
:100A9C008CB09A4904A801F0FDFD94F8BE32042BE9
:100AAC0000F21C81DFE813F0050042009F000301F7
:100ABC00CB00204604F50371FFF782FFD4F83C22EB
:100ACC008F4908A801F01AFF08A904A801F02CFE10
:100ADC0008A801F095FD8B4B049A1B78D4F80C12E6
:100AEC008DF8003008A83C2302F08EFB09A8FFF714
:100AFC0035FC02F0C5FD844901F05DFF824908A870
:100B0C0001F0FCFE089A814902A8FFF72DFB03A80F
:100B1C00FFF724FC08A801F073FD0023C4F8AC32E5
:100B2C0094F8BE3284F8BF3204233BE001F0C0FAE3
:100B3C00B4F8BC22D4F8B83203EB4203834233D26C
:100B4C0001F0B6FAC4F8B8022046FFF724FB80B3D4
:100B5C00204604F50771FFF733FFD4F85C32D4F864
:100B6C003C226B49009308A8D4F84C3201F0C6FE25
:100B7C0008A904A801F0D8FD08A801F041FD614BBB
:100B8C00049A1B78D4F81C128DF8003008A83C236A
:100B9C0002F03AFB09A8FFF7E1FB94F8BE3284F8A7
:100BAC00BF32012384F8BE3204A801F029FD0CB039
:100BBC0010BD02F065FD574901F0FDFE554908A82E
:100BCC0001F09CFE089A514902A8FFF7CDFA03A840
:100BDC00FFF7C4FB08A801F013FD94F8BE3284F8AB
:100BEC00BF320523DEE7204604F50B71FFF7E8FE64
:100BFC00D4F84C32D4F89C224749009308A8D4F876
:100C0C003C3201F07BFE08A904A801F08DFD08A878
:100C1C0001F0F6FC3B4B049A1B78D4F82C128DF89F
:100C2C00003008A83C2302F0EFFA09A8FFF796FB66
:100C3C0002F026FD394901F0BEFE38495FE702F0AB
:100C4C001FFD374901F0B7FE354908A801F056FEE3
:100C5C00089A2E4902A8FFF787FA03A8FFF77EFB34
:100C6C0008A801F0CDFC41F2883002F0A3F8D4F8CA
:100C7C00AC320133062BC4F8AC3295DD294908A8F7
:100C8C0001F03CFE089A214902A8FFF76DFA03A86F
:100C9C00FFF764FB08A801F0B3FC94F8BF32022BF9
:100CAC0094F8BE3284F8BF329BD100237AE74FF41C
:100CBC007A7002F07FF808A81B4901F01FFE089A11
:100CCC00124902A8FFF750FA03A8FFF747FB08A840
:100CDC0001F096FC2046FFF7A9FA65E708A813492E
:100CEC0001F00CFE089A094902A8FFF73DFA03A887
:100CFC00FFF734FB08A801F083FC55E7866B0A0864
:100D0C00906C0A08D9000020A36C0A08B16A0A0882
:100D1C00BB6C0A08EF6C0A080D6D0A084A6D0A08CC
:100D2C00656D0A08816D0A08AA6D0A08BD6D0A086E
:100D3C000022034B1A700122024B1A70704700BF3D
:100D4C00D8000020D900002070B4036809685C68E2
:100D5C009D68661005EB6400E40748BFAC591B683E
:100D6C00126848BFE35870BC1847012A38B50446CE
:100D7C0002D10B68236003E0022A03D0032A0DD0B2
:100D8C00002038BD0C200D68FFF77FF903460028C2
:100D9C00F0D095E8070083E80700EBE7006800282F
:100DAC00EED00C21FFF775F9EAE7000038B51546CF
:100DBC000446043001F0ADFC2B780F4D23750F4B1E
:100DCC000F49A36104F11C0001F064FC294604F1F5
:100DDC002C0001F05FFC294604F13C0001F05AFCA8
:100DEC00294604F16C0001F055FC002320462360D9
:100DFC0084F8683038BD00BF866B0A0800DD6D00D2
:100E0C00DB6F0A08B0F87C00C83818BF01207047A7
:100E1C0090F8680070472DE9F743044601F0B4FFE1
:100E2C00054601F0A9FF064601F09AFF074601F0BE
:100E3C0073FF804601F07CFF814601F085FF43463D
:100E4C00CDE900903A4631462846FFF746F994F82A
:100E5C006830ABB1D4E91432984271EB02020ADB70
:100E6C00D4E9163283428A4107DBC01A2066206E11
:100E7C0003B0BDE8F083181AF8E700232366F6E701
:100E8C004FF47A72A36993FBF2F3F7E710B50446BB
:100E9C003C3101F03EFC204610BD00002DE9F04F26
:100EAC000025A3B004460291ADF81C50ADF81E50BD
:100EBC0001F021FFDFF8D0B10DF11E0602465946B4
:100ECC00C31700950AA801F0B7FE07AB54220AA974
:100EDC000EA80096FFF7E7F813210AA801F0C4FC4E
:100EEC00DFF8A8A1024607AB0AA912A80096FFF7E3
:100EFC00DAF80EA91EA801F00CFC51461EA801F050
:100F0C0062FC014616A801F004FCDFF884911EA8CF
:100F1C0001F076FB12A91EA801F0FBFB49461EA8A6
:100F2C0001F051FC014616A801F02EFC1EA801F0A0
:100F3C0067FB01F029FF074601F01EFF804601F018
:100F4C000FFF059001F0E8FE049001F0F1FE039014
:100F5C0001F0FAFEDDE90432039901900091384664
:100F6C004146FFF7BAF880460020039101F0A0FD3E
:100F7C004FF47A73A769039997FBF3F313EB080209
:100F8C0041EBE3731EA859460095ADF81C50ADF823
:100F9C001E5001F051FE1EA90AA801F0C5FB1EA8A7
:100FAC0001F02EFB07AB54220AA91EA80096FFF7EE
:100FBC007AF81EA90EA801F0B7FB1EA801F020FBC1
:100FCC0013210AA801F050FC07AB02460AA91EA87F
:100FDC000096FFF768F81EA912A801F0A5FB1EA841
:100FEC0001F00EFB0EA91EA801F093FB51461EA8A2
:100FFC0001F0E9FB01461AA801F08BFB1EA801F0D9
:10100C00FFFA12A91EA801F084FB49461EA801F0A4
:10101C00DAFB01461AA801F0B7FB1EA801F0F0FAA2
:10102C0094F9140003F0BCFA01F042FD1A9B6268BB
:10103C000193169B1EA80093029B1649D3F88C3281
:10104C0001F05CFC144B1E9A1B78E1698DF80030A2
:10105C0008A83C2302F0D8F809A8FFF77FF91EA8CE
:10106C0001F0CEFA1AA801F0CBFA16A801F0C8FAD2
:10107C0012A801F0C5FA0EA801F0C2FA0AA801F0F4
:10108C00BFFA23B0BDE8F08F4405002055790A085B
:10109C00EA6F0A08F16F0A08DB00002010B504465D
:1010AC0088B002F0EDFAE16E01F085FCE16E04A867
:1010BC0001F024FC084B049A1B7808498DF8003089
:1010CC0002A83C2302F0A0F803A8FFF747F904A8F4
:1010DC0001F096FA08B010BDDA000020B16A0A08D7
:1010EC0000232DE9F04F95B00DF116052D22ADF82A
:1010FC001430ADF81630009505AB0CA80C46FEF775
:10110C00D2FF0CA801F0F4FB06460CA801F078FA0B
:10111C00214605AB2D2200950CA8FEF7C4FF0CA8A8
:10112C0001F0E6FB07460CA801F06AFA214605AB74
:10113C00542200950CA8FEF7B6FF0CA801F0D8FBC2
:10114C0080460CA801F05CFA214605AB3A220095CA
:10115C000CA8FEF7A8FF0CA801F0CAFB81460CA84E
:10116C0001F04EFA05AB3A22214600950CA8FEF789
:10117C009AFF0CA801F0BCFB82460CA801F040FAC7
:10118C001321204601F070FB2146024605AB009569
:10119C000CA8FEF788FF0CA801F0AAFB04460CA8CB
:1011AC0001F02EFA4B46424639463046CDE900A4B2
:1011BC00FEF793FF83460D463B4632461249CDE976
:1011CC0002A4CDE900890CA801F090F94FF47A70D3
:1011DC0001F0F0FD0CA908A801F090FB0B4B089A4C
:1011EC001B780B498DF8003006A83C2302F00CF854
:1011FC0007A8FFF7B3F808A801F002FA58462946E9
:10120C0015B0BDE8F08F00BF3A700A08DA00002074
:10121C00B16A0A08F0B500260D469DB01146044689
:10122C0004A8ADF80C60ADF80E6001F033FA294655
:10123C0008A801F02FFA57490CA801F02BFA0DF170
:10124C000E05544910A801F025FA2F2203AB08A96A
:10125C0018A80095FEF727FF18A801F0D1F908A9E6
:10126C0014A82F22009503ABFEF71DFF4A4914A8C2
:10127C00ADF80C60ADF80E6001F0DBFA002873D00D
:10128C00464904A801F0D5FA0746A8B184F868606D
:10129C00C823A4F87C3014A801F0B2F910A801F00E
:1012AC00AFF90CA801F0ACF908A801F0A9F904A851
:1012BC0001F0A6F91DB0F0BD7E2203AB04A918A85D
:1012CC000095FEF7F0FE18A904F13C0001F02CFA91
:1012DC0018A801F095F97E2203AB04A918A8009573
:1012EC00FEF7E1FE18A90CA801F01EFA18A801F0EF
:1012FC0087F97E2203AB04A918A80095FEF7D3FE4C
:10130C0018A910A801F010FA18A801F079F903AB8C
:10131C003A4604A918A80095FEF7C5FE18A904F1D1
:10132C002C0001F001FA18A801F06AF90CA918A810
:10133C0001F0EFF9204618A9FFF7D2FEC4E9140119
:10134C0018A801F05DF910A918A801F0E2F92046DF
:10135C0018A9FFF7C5FEC4E9160118A801F050F949
:10136C00012384F8683093E70D4914A801F061FA61
:10137C00002890D010230D220DEB030118A801F0CA
:10138C0095FA18A801F0B4FAA4F87C0018A801F09A
:10139C0037F980E7866B0A08A36A0A0850700A08B6
:1013AC00B76A0A0810B50446FFF734FF2368BDE896
:1013BC001040184730B5044685B0FFF72BFF04F1F9
:1013CC006C05B4F87C206846114901F097FA69461F
:1013DC00284601F0A9F9684601F012F9B4F87C30FE
:1013EC00B3F5C87F08D10B49284601F0D1F9236821
:1013FC0005B0BDE83040184740F29112934201D13C
:10140C000549F1E7B3F5CA7FF1D10449ECE700BF18
:10141C00BD6B0A0854700A089F700A08BD700A0850
:10142C00F0B51F46002391B002AD85E8060005AC6F
:10143C00064695E8030084E805000C200A93FEF7A5
:10144C0024FE024620B194E8030082E80300976072
:10145C00124B08A90B93124B0CA80A930892FFF796
:10146C005BFA0E9B8BB11020FEF70FFE044660B1A9
:10147C000CA9FFF751FA00232246CDE90033304680
:10148C009DF85830074900F0F9FF0CA8FEF77AFEDA
:10149C0008A8FEF777FE11B0F0BD00BF550D0A0885
:1014AC00770D0A080B300A08F0B5074693B00AAD61
:1014BC000EAC47F81C1B0646284600F0CFFF294609
:1014CC00204601F026F92046224901F07CF93946E4
:1014DC0001F06DF9014602A801F01BF9204601F05C
:1014EC008FF8284601F08CF8284600F0B7FF294603
:1014FC00204601F00EF92046174901F064F93946EF
:10150C0001F055F90027014606A801F002F9204622
:10151C0001F076F8284601F073F8104B0B970A93FC
:10152C000097334695E806000298FFF779FF0C4BBD
:10153C000097CDE90E370698334694E80600FFF77E
:10154C006FFF06A801F05CF802A801F059F813B07F
:10155C00F0BD00BF736C0A08836C0A08B1130A084B
:10156C00C1130A080022034B1A700122024B1A7095
:10157C00704700BFDA000020DB00002008B501F046
:10158C00B7F901220146024800F038FD002008BDE1
:10159C006001002008B501F0ABF9002201460248B9
:1015AC0000F02CFD002008BD6001002013B504469E
:1015BC00044B1B788DF800303C2301F025FE2046AF
:1015CC0002B010BD6404002007B50F4B0F4A1B6816
:1015DC0012683C211344181A4FF47A730C4AB0FB6E
:1015EC00F2F2B0FBF3F04FF4616303FB1200B0FBBB
:1015FC00F1F301FB130007490090074800F076FF58
:10160C0003B05DF804FB00BFA8040020A404002074
:10161C0080EE360043700A08AC04002010B50D4C67
:10162C0023785BB90C4B1B78012B04D102F028F802
:10163C000A4901F0C0F90123237010BD012B05D11B
:10164C00BDE810404FF47A7001F0B4BB022BF4D11A
:10165C000023F1E79904002078040020DB700A08CD
:10166C0008B5094B1B783BB1012B09D0BDE80840EC
:10167C004FF47A7001F09EBB0448FFF72FF9F5E7A1
:10168C000348FFF70BFDF1E7A00400206C010020DC
:10169C00E000002030B589B0044600F009FD054695
:1016AC00072C20D8DFE814F0080034001F004F008E
:1016BC006D0099009B00D8007F4904A801F01EF929
:1016CC00049A7E496846FFF771FF01A8FEF746FEB3
:1016DC0004A800F095FF4FF47A72794B1A6000F071
:1016EC00E7FC784B1860784B784A19781C701170AD
:1016FC000222774B00201A7000F0C8FE012C40F03B
:10170C00BB807449744809B0BDE83040FFF7CCBECB
:10171C0004A8724901F0F2F8049A68496846FFF788
:10172C0045FF01A8FEF71AFE04A800F069FF4FF46C
:10173C007A72634B1A6000F0BBFC624B186066480F
:10174C00FFF7ACFCCFE7664904A801F0D7F8049A80
:10175C005A496846FFF72AFF01A8FEF7FFFD04A8C7
:10176C0000F04EFF5F4800F059FC5B48FFF753FB5D
:10177C004FF47A735843984228BF0346504A13607B
:10178C0014E0594904A801F0B9F8049A4B49684689
:10179C00FFF70CFF01A8FEF7E1FD04A800F030FFF5
:1017AC00504800F03BFC464B504A1A6000F080FC5D
:1017BC00444B18602846FFF707FF04A84C4901F07A
:1017CC009DF86846049A3D49FFF7F0FE01A8FEF724
:1017DC00C5FD04A800F014FF85E74649B4E7464967
:1017EC0004A801F08BF8049A34496846FFF7DEFE32
:1017FC0001A8FEF7B3FD04A800F002FF364904A8C7
:10180C00FFF744FB04A9374800F0F2FA04A800F0F3
:10181C00F7FE3A4904A800F03DFF68462E49FFF751
:10182C0035FB694604A800F0C2FF0168344800F09B
:10183C005DFE684600F0E4FE04A800F0E1FE2648D8
:10184C00FFF7E9FA4FF47A7358430028B8BF4042C7
:10185C009842A8BF034691E704A82A4901F04EF824
:10186C006846049A1549FFF7A1FE01A8FEF776FD1C
:10187C0004A800F0C5FE9DE7022C1AD1194800F00F
:10188C00CDFB01F0FDFE204901F095F84FF47A7084
:10189C0001F090FA1C4904A801F030F86846049A4B
:1018AC000649FFF783FE01A8FEF758FD04A800F0D7
:1018BC00A7FE09B030BD00BFF5700A08B16A0A086E
:1018CC00A4040020A804002078040020A004002018
:1018DC0099040020A11C0A08E00000200E710A08DF
:1018EC001E710A08600100202D710A0880EE360076
:1018FC00AC04002043710A0852710A0860710A088E
:10190C007904002068710A0876710A0808B500F09D
:10191C00EFFF002802DD0120FFF7BCFE002008BD10
:10192C0008B500F0E5FF002805DD0448FEF706FDCC
:10193C000020FFF7AFFE002008BD00BF6C010020A7
:10194C0070B505460E4E0C46304600F067FB2A4635
:10195C000C490D4800F0CAFD29463046012200F022
:10196C004DFB4EF660214C43084B1C6000F0A0FB75
:10197C00074B1860BDE870400720FFF78BBE00BF17
:10198C006001002088710A0879040020A40400205A
:10199C00A804002008B500F0ABFF01460120FFF7BA
:1019AC00CFFF002008BD08B500F0A2FF01460220C1
:1019BC00FFF7C6FF002008BD08B500F099FF0146EF
:1019CC000320FFF7BDFF002008BD000008B50B4841
:1019DC00FFF75CF80948FEF7FAFB40B1084B1878A2
:1019EC00012818BF0320BDE80840FFF753BE034889
:1019FC00FEF7F3FB08B10220F5E708BD6C010020EF
:101A0C00A004002008B5094B1B783BB90848FEF729
:101A1C0045FF38B106490748FFF740FABDE80840D2
:101A2C00FFF7FCBDFFF736FEF8E700BF9904002076
:101A3C006C010020E00000207FB500230422334914
:101A4C00334800F0EBFC002304223249324800F00A
:101A5C00E5FC002302223149314800F0DFFC314A19
:101A6C003149324801F0D9FA314A32492F4801F054
:101A7C00D4FA314A31492D4801F0CFFA304A314974
:101A8C002A4801F0CAFA304A3049284801F0C5FA10
:101A9C002F4A3049254801F0C0FA2F4A2F492348D4
:101AAC0001F0BBFA2E4801F003F82E4B2E491A68B0
:101ABC002E4B02A81A6000F021FF029A2C496846AE
:101ACC00FFF774FD01A8FEF749FC02A800F098FD91
:101ADC002848FEF776FB78B1274902A800F00EFFE4
:101AEC00029A23496846FFF761FD01A8FEF736FC10
:101AFC0002A800F085FD0120FFF7CCFD00F0D8FA1C
:101B0C001E4B186007B05DF804FB00BFAC0400204E
:101B1C0099710A0879040020A8710A089C04002015
:101B2C00B6710A08BD710A0819190A08DF2F0A08CC
:101B3C00D4710A082D190A08EA710A0889150A08CD
:101B4C00FB710A08A1150A080D720A08A1190A08E6
:101B5C0019720A08B3190A0825720A08C5190A0865
:101B6C000000E0C00400002031720A084805002083
:101B7C00B16A0A086C0100203D720A08A804002012
:101B8C0070B586B000F019FD384B394E186000F076
:101B9C008FFA0446FFF718FD3268364B364D9A42E1
:101BAC0014D92B78062B11D1344902A800F0A6FECB
:101BBC00029A33496846FFF7F9FC01A8FEF7CEFB01
:101BCC0002A800F01DFD0420FFF764FD2B782D4DBD
:101BDC0032682868241AA2422DD3022B0CD0033B66
:101BEC00042B02D8284800F081F94FF47A7006B023
:101BFC00BDE8704001F0DEB8234800F00FFA4FF456
:101C0C007A7001F0D7F802A8204900F077FE029A0A
:101C1C001B496846FFF7CAFC01A8FEF79FFB02A808
:101C2C0000F0EEFC1A4801F0C5F8FFF719FD164854
:101C3C0000F0F4F9D6E7072B07D8DFE803F0040B24
:101C4C000615150E1512FFF7C1FE00F031FA2860CB
:101C5C0006B070BDFFF7D6FEF7E70620FFF71AFDBA
:101C6C00F3E7094800F0DAF90120F7E79C040020BB
:101C7C00A404002080EE36007804002059720A0873
:101C8C00B16A0A08A80400206001002071720A08D9
:101C9C00A0BB0D0000B5294889B0FFF7B3F80028A8
:101CAC0046D12648FFF7B4F828B32448FFF7B3F819
:101CBC0000281BDA0620FFF7EDFC2149684600F0EE
:101CCC00E9FC04A81D49FFF7E1F804A9684600F0F7
:101CDC006EFD01681B4800F009FC04A800F090FCA4
:101CEC00684600F08DFC09B05DF804FB0520FFF799
:101CFC00D1FC1549E2E74FF47A7001F05BF804A8C7
:101D0C00124900F0FBFD049A11496846FFF74EFC9E
:101D1C0001A8FEF723FB04A800F072FC0320FFF7D8
:101D2C00B9FC0C49074809B05DF804EB03F0E1BBC2
:101D3C00022009B05DF804EBFFF7ACBCE00000201A
:101D4C0060710A087904002084720A088E720A08ED
:101D5C00B16A0A08A1720A08002270B5124B134C22
:101D6C00134E1A70134D2046134900F093FC304665
:101D7C00124900F08FFC2846114900F08BFC2146DB
:101D8C00104C32461048FEF771FA224629460F488D
:101D9C00FFF70CF821460E4800F09AF8BDE87040A9
:101DAC00012000F08FBA00BF6404002068040020FA
:101DBC005404002044040020A9720A08F2720A0894
:101DCC000B730A0840730A086C010020E000002025
:101DDC006001002013B50446044B1B788DF80030CD
:101DEC003C2301F011FA204602B010BD2C05002056
:101DFC007FB50D4604461749684600F04BFC694612
:101E0C00284600F050FD0646F6436846F60F00F0F3
:101E1C00F7FB26716846104900F03CFC69462846E1
:101E2C0000F041FD0646F6436846F60F00F0E8FB6D
:101E3C0068460A49667100F02DFC6946284600F098
:101E4C0032FD05466846ED4300F0DAFBED0FA57157
:101E5C0004B070BD41730A0845730A0849730A0837
:101E6C007FB50121042001F023FE0121052001F0A2
:101E7C001FFE0121062001F01BFE0121072001F0AD
:101E8C0017FE0121042001F024FE0121052001F0A0
:101E9C0020FE0121062001F01CFE0121072001F08B
:101EAC0018FE02A8084900F029FD029A0749684665
:101EBC00FFF790FF01A8FEF751FA02A800F0A0FB73
:101ECC0007B05DF804FB00BF4D730A08B16A0A083D
:101EDC000B7810B503700446FFF7C2FF00232046B1
:101EEC00C4E901336370638010BD000010B5037941
:101EFC00427804469A4286B0C3711BD04FF47A7074
:101F0C0000F058FFE379002B57D00021042001F09A
:101F1C00E0FD334902A800F0F1FC029A3149684611
:101F2C00FFF758FF01A8FEF719FA02A800F068FBAA
:101F3C00E37963706379A278E3719A421BD04FF412
:101F4C007A7000F037FFE379002B3CD0002105209C
:101F5C0001F0BFFD244902A800F0D0FC029A2149EF
:101F6C006846FFF737FF01A8FEF7F8F902A800F062
:101F7C0047FBE379A370A379E278E3719A421AD014
:101F8C004FF47A7000F016FFE37913B300210620AA
:101F9C0001F09FFD154902A800F0B0FC029A11490E
:101FAC006846FFF717FF01A8FEF7D8F902A800F062
:101FBC0027FBE379E37006B010BD0121042001F08A
:101FCC0088FD0B49A6E70121052001F082FD094996
:101FDC00C1E70121062001F07CFD0749DBE700BFCA
:101FEC0062730A08B16A0A087B730A0894730A08B8
:101FFC006E730A0887730A08A0730A08032906D8A7
:10200C00DFE801F002040709427182710271FFF7E7
:10201C006DBF4271FBE78271F9E7000010B5044611
:10202C0086B04FF47A7000F0C5FE02A80B4900F0A0
:10203C0065FC029A0A496846FFF7CCFE01A8FEF738
:10204C008DF902A800F0DCFA00232046A380A371CE
:10205C0006B0BDE81040FFF749BF00BFAD730A08DA
:10206C00B16A0A080022014B1A7070472C05002037
:10207C0008B5024B1B689B68019308BDB0010608AC
:10208C0008B5024B1B68DB68019308BDB00106085C
:10209C0008B5024B1B681B69019308BDB00106080B
:1020AC0008B5024B1B685B68019308BD9C010608D0
:1020BC0008B5024B1B685B69019308BD9C010608BF
:1020CC0008B5024B1B689B6A019308BD9C0106086E
:1020DC0008B5024B1B685B6C019308BD9C0106089C
:1020EC0008B5024B1B689B6C019308BD9C0106084C
:1020FC0008B5024B1B689B6D019308BD9C0106083B
:10210C0008B5024B1B685B6E019308BD9C01060869
:10211C0008B5024B1B685B6D019308BDB80106083E
:10212C0008B5024B1B685B6C019308BDD001060817
:10213C0008B5024B1B689B6C019308BDD0010608C7
:10214C0008B5024B1B685B6A019308BDC401060805
:10215C0008B5024B1B689B6A019308BDC4010608B5
:10216C0008B5024B1B68DB6A019308BDC401060865
:10217C0008B5024B1B681B6B019308BDC401060814
:10218C0008B5024B1B685B6B019308BDC4010608C4
:10219C0008B5024B1B689B6B019308BDC401060874
:1021AC0008B5024B1B681B6C019308BDC4010608E3
:1021BC0008B5024B1B681B6E019308BDC4010608D1
:1021CC0008B5024B1B681B6E019308BDAC010608D9
:1021DC0008B5024B1B685B6E019308BDAC01060889
:1021EC0008B5024B1B689B6E019308BDAC01060839
:1021FC0008B5024B1B68DB6E019308BDAC010608E9
:10220C0008B5024B1B681B6F019308BDAC01060897
:10221C0008B5024B1B685B6F019308BDAC01060847
:10222C0008B5034B1B68D3F88030019308BD000040
:10223C00AC01060808B5024B1B68DB69019308BDAD
:10224C00B401060808B5024B1B681B6A019308BD54
:10225C00B401060808B5024B1B681B68019308BD46
:10226C00D801060808B5024B1B681B69019308BD11
:10227C00D801060808B5024B1B685B69019308BDC1
:10228C00D801060808B5024B1B689B69019308BD71
:10229C00D801060808B5024B1B68DB69019308BD21
:1022AC00D801060808B5024B1B681B6A019308BDD0
:1022BC00D801060808B5024B1B689B6C019308BD3E
:1022CC00C001060808B5024B1B681B6D019308BDC5
:1022DC00C001060808B5024B1B681B68019308BDBA
:1022EC00A401060808B5024B1B685B68019308BD86
:1022FC00A401060808B5024B1B685B69019308BD75
:10230C00A401060808B5024B1B68DB6C019308BDE1
:10231C00A401060808B5024B1B685B6D019308BD50
:10232C00A401060808B5024B1B689B6D019308BD00
:10233C00A401060808B5034B1B68D3F89030019331
:10234C0008BD0000A401060808B5034B1B68D3F8B0
:10235C009C30019308BD0000A401060808B5024B8F
:10236C001B685B68019308BDC801060808B5024BE1
:10237C001B689B68019308BDC801060808B5024B91
:10238C001B68DB68019308BDC801060808B5024B41
:10239C001B681B69019308BDC801060808B5024BF0
:1023AC001B685B69019308BDC801060808B5024BA0
:1023BC001B689B69019308BDC801060808B5024B50
:1023CC001B68DB69019308BDC801060808B5024B00
:1023DC001B681B6A019308BDC801060808B5024BAF
:1023EC001B681B6B019308BDC801060808B5024B9E
:1023FC001B685B6B019308BDC801060808B5024B4E
:10240C001B681B6C019308BDC801060808B5024B7C
:10241C001B685B6C019308BDC801060808B5024B2C
:10242C001B681B68019308BDCC01060808B5024B5C
:10243C001B685B68019308BDCC01060808B5024B0C
:10244C001B689B68019308BDCC01060808B5024BBC
:10245C001B685B69019308BDCC01060808B5024BEB
:10246C001B68DB69019308BDCC01060808B5024B5B
:10247C001B681B6A019308BDCC01060808B5024B0A
:10248C001B685B6A019308BDCC01060808B5024BBA
:10249C001B689B6A019308BDCC01060808B5024B6A
:1024AC001B681B6B019308BDCC01060808B5024BD9
:1024BC001B68DB6B019308BDCC01060808B5024B09
:1024CC001B681B68019308BDA001060808B5024BE8
:1024DC001B685B68019308BDA001060808B5024B98
:1024EC001B689B68019308BDA001060808B5024B48
:1024FC001B68DB68019308BDA001060808B5024BF8
:10250C001B681B69019308BDA001060808B5024BA6
:10251C001B689B69019308BDA001060808B5024B16
:10252C001B68DB69019308BDA001060808B5024BC6
:10253C001B681B6A019308BDA001060808B5024B75
:10254C001B685B6A019308BDA001060808B5024B25
:10255C001B68DB6A019308BDA001060808B5024B95
:10256C001B681B6B019308BDA001060808B5024B44
:10257C001B68DB6B019308BDA001060808B5024B74
:10258C001B681B6C019308BDA001060808B5024B23
:10259C001B685B6C019308BDA001060870B5002692
:1025AC0004460D4640F8086FFFF7BAFD2846257023
:1025BC00FFF740FE2046666070BD10B5202488B041
:1025CC0022460021684602F0D5FC00216846ADF891
:1025DC000040FFF79DFD019808B010BD02220020BD
:1025EC00044B1A60044B054AC3E900009A60FFF7DC
:1025FC0079BE00BF3C050020300500200000FFFF25
:10260C0010B504460068FFF761FF204610BD10B5F9
:10261C000446006808B1FFF759FF0023C4E90133F1
:10262C00236010BD38B504460D4600680131FFF734
:10263C0055FF10B1C4E90005012038BD10B5036881
:10264C00044623B143688B4201D3012010BD2046C0
:10265C00FFF7E8FF0028F9D0A368002BF5D122681A
:10266C001370F2E770B50E46114604461546FFF797
:10267C00E5FF20B92046FFF7CAFF204670BD2A4669
:10268C0031462068A56002F067FC00212268A3682F
:10269C00D154F2E738B5002304460D46C0E90033A7
:1026AC008360037339B1084603F07EFC2946024669
:1026BC002046FFF7D7FF204638BD38B505460068E1
:1026CC000C4668B16A688B689A4207D3096802F0B5
:1026DC0010FFA368AB600023A36038BDFFF7F6FEC4
:1026EC0023682B6063686B60A368AB600023C4E94C
:1026FC000033F1E7884210B50B46044604D0096854
:10270C0021B19A68FFF7AEFF204610BDFFF77FFF9F
:10271C00FAE7002310B50446C0E900338360037365
:10272C00FFF7E8FF204610BD884210B5044601D0E3
:10273C00FFF7C3FF204610BD38B505460C4649B11E
:10274C00084603F031FC214602462846FFF78AFF73
:10275C00284638BDFFF75BFFFAE770B505460E4615
:10276C0009B9002070BD6AB1846814442146FFF792
:10277C0065FF0028F5D02868AB683146184402F094
:10278C00B8FEAC600120EDE78A680968FFF7E5BF89
:10279C0038B505460C46084641B103F005FC214608
:1027AC0002462846BDE83840FFF7D7BF38BD10B504
:1027BC008A6809680446FFF7D0FF10B92046FFF776
:1027CC0026FF204610BD38B504460D4621B92046DB
:1027DC00FFF71DFF204638BD084603F0E5FB2946F0
:1027EC0002462046FFF7B9FF0028F0D0F2E7024678
:1027FC0000680B46096858B141B9916851B100782D
:10280C007047986838B109784842704702F067BE43
:10281C000029F6D10846704708B582688B689A4241
:10282C0005D1FFF7E4FFB0FA80F0400908BD0020A5
:10283C00FCE708B582683AB921B10878B0FA80F0A3
:10284C00400900E0012008BD006809B90078F5E7EF
:10285C0002F045FEF2E783688B4203D9006810B1A1
:10286C00405C704700207047FFF7F5BF10B58368D8
:10287C00934206D90468A01802F024FE08B1001B8C
:10288C0010BD4FF0FF30FBE710B58368934207D9BA
:10289C0004680968A01803F0B6FB08B1001B10BD52
:1028AC004FF0FF30FBE70022FFF7EEBFF8B51D46F7
:1028BC009A4288BF13460F46144688BF2C460B49D4
:1028CC0088BF1D460646FFF7E5FEBB68A3420AD348
:1028DC003968AB4294BFC4EB0302C4EB050230462B
:1028EC002144FFF7BFFE3046F8BD00BF866B0A08D7
:1028FC00006808B102F03ABA704700000EB4FFB598
:10290C0009AD55F8047B04462B463A46052102A82E
:10291C000195FFF713FE06460B492046FFF7BAFE5A
:10292C0031462046FFF78AFE206830B12B463A46E6
:10293C00711C0195FFF702FEA060204604B0BDE8B3
:10294C00F04003B0704700BF866B0A08F8B5064626
:10295C000D4600248F18BD420CD0336830469B685E
:10296C0015F8011B9847031E01DB1C44F3E7002CF0
:10297C0008BF1C462046F8BD70B505460C460846F7
:10298C0049B103F011FB2B68024621462846BDE8ED
:10299C007040DB68184770BD03689B68184738B5F2
:1029AC000D210546FFF7F8FF0A2104462846FFF7DC
:1029BC00F3FF204438BD38B50546FFF7DDFF04466C
:1029CC002846FFF7ECFF204438BD0023012A98BFAE
:1029DC000A2230B58BB00C468DF8243009A9254657
:1029EC00B4FBF2F404FB1253DBB2092B94BF30336B
:1029FC003733DBB2AA4201F8013DF0D9FFF7BCFF37
:102A0C000BB030BD014B024A1A60704740050020E4
:102A1C00C0730A082DE9F041154BDFF85880D3E953
:102A2C000067154B801947EB0107D3E90061861944
:102A3C0047EB0107D8E90023BB4208BFB2428CB078
:102A4C0013D003A96846CDE9006702F093F9089BFF
:102A5C000A4D03F26C7303AC08930FCC0FC50FCC6B
:102A6C000FC5C8E9006723682B600CB0BDE8F08186
:102A7C007805002080050020700500204C05002002
:102A8C0008B50020FFF70AFD28B1FFF7DFFC80F046
:102A9C000100C0B208BD0120FCE7000008B5FFF73B
:102AAC00B9FF024B1869013008BD00BF4C0500206E
:102ABC0010B50A49044601F065FF68B9204608497B
:102ACC0001F07EFF40B90749204601F0BDFD01F041
:102ADC0081FF054BC3E9000110BD00BF000040C1E0
:102AEC0000006041000061457805002030B593B0CE
:102AFC00CDE90023194B0446D3E90010019B521871
:102B0C0043EB000316480025D0E90010521843EBA4
:102B1C000003CDE90023242200210DEB020002F07A
:102B2C0029FA09A9684602F025F91622294603A8B4
:102B3C00029502F01FFA02A909A802F0EBF802A80C
:102B4C0003F032FA12AB184400F8415C02A920469B
:102B5C00FFF7A0FD204613B030BD00BF7805002064
:102B6C00700500202DE9F047A4B00746884614A84C
:102B7C0011463F221C4603F033FA002314A88DF8AB
:102B8C008F3003F011FA05464CBB294903A802F01B
:102B9C00B0FC002614AC05F1FF39B14534D92378CB
:102BAC0006F1010A252B17D163787A2B14D103A8CF
:102BBC0003F0FAF9054614AB30181844A9EB0602D9
:102BCC00A11C02F0C9F92A4603A9204602F0C4F957
:102BDC0014A803F0E9F9054656460134DBE73C231B
:102BEC0094FBF3F2002AB8BF5242B2FBF3F103FBA1
:102BFC0011224FF46163009294FBF3F310210D4A00
:102C0C0003A8FFF78BFCC4E700212E2208A807912C
:102C1C0002F0B0F9434614AA322107A803F0C2F916
:102C2C00384607A9FFF736FD384624B0BDE8F087D3
:102C3C0051790A08C4730A08F0B58DB0129D044688
:102C4C00CDE9002315B9194B1D682DB1184B284639
:102C5C00196802F044FC38B9DDE900232046FFF77F
:102C6C0045FF20460DB0F0BD0099124E124FD6E92B
:102C7C0000325B18019942EB0102D7E900011B18E5
:102C8C0042EB0102CDE900320021242203A802F01C
:102C9C0071F903A9684602F06DF832683B6820466A
:102CAC00134403A92A46FFF75DFFDAE74805002025
:102CBC0000000020780500207005002010B50020D1
:102CCC00FFF716FA0446A0B9FFF704FB012810D150
:102CDC002046FFF727FB60B9FFF7D2FE10B9FFF7CC
:102CEC00ADFBF9E7FFF7CCFEBDE810400020FFF785
:102CFC00FFB9204610BD1FB5FFF7E0FF10220021E1
:102D0C00684602F037F900216846FFF7F9F9009898
:102D1C0005B05DF804FB000008B5FFF7ECFFC11728
:102D2C00FFF778FE014B986808BD00BF4C050020EA
:102D3C0008B5FFF7E0FFC117FFF76CFE014B5868B1
:102D4C0008BD00BF4C05002008B5FFF7D4FFC11724
:102D5C00FFF760FE014B186808BD00BF4C05002052
:102D6C0008B5FFF7C8FFC117FFF754FE014BD86831
:102D7C0008BD00BF4C05002008B5FFF7BCFFBDE83F
:102D8C000840C117FFF78ABE08B5FFF7B4FFC1179B
:102D9C00FFF740FE014B586908BD00BF4C050020F1
:102DAC00024B1A68024B1A60704700BF00000020EB
:102DBC00480500200021FFF79DBA13B56C460B4661
:102DCC00024603C884E8030093E8030082E803008A
:102DDC0094E8030083E8030002B010BD0022014B0D
:102DEC009A60704788050020014B1860704700BF3F
:102DFC000800002008B5134B43B100F041FC0368F8
:102E0C001B699847002801DDAFF300800E4B43B1DE
:102E1C0000F094FE03681B699847002801DDAFF3AE
:102E2C0000800A4B0BB1AFF30080094B43B100F0AB
:102E3C0061FC03681B699847002801DDAFF3008033
:102E4C0008BD00BF000000000000000000000000F2
:102E5C000000000008B5FFF7CDFFFFF729F9014B83
:102E6C00186008BD0C0900200548064A08B5121A5E
:102E7C00054902F071F8054B054A1A6008BD00BF00
:102E8C000040024004400240C87A0A080040024058
:102E9C001E1C279A002307B51A466FF07701009382
:102EAC00FFF752FA03B05DF804FB000007B5438846
:102EBC000A2B08D0502B0BD1094B1B684BB103B01C
:102ECC005DF804EB1847FFF7E5FF03B05DF804FB72
:102EDC0000231A466FF077010093FFF735FAF4E7F9
:102EEC009C050020002110B51148FFF74FFB114B3A
:102EFC001A68114B9A420CBF012200220F4B1A7018
:102F0C0001D0FFF7B1FFFFF7CBF8044602F0ACFAA3
:102F1C000B4B13B12046AFF3008000210848FFF79C
:102F2C00C5FABDE8104000210648FFF703BA00BF00
:102F3C00F52D0A08004002401E1C279A9805002017
:102F4C0000000000B92E0A0870470020704710B529
:102F5C0004461021FDF79DF8204610BD08B5FFF77B
:102F6C00F6FF08BD002230B54FF69C7402608480D9
:102F7C008D888C800C68858004600A6030BD10B52B
:102F8C0004460068FFF7A2FA204610BD38B5C468A5
:102F9C00F4B12378022B03D104F10C00FFF7EFFFFF
:102FAC00656835B12846FDF7EDF810212846FDF788
:102FBC0070F8A56835B12846FDF7E4F810212846CD
:102FCC00FDF767F82046BDE838401421FDF761B8DD
:102FDC0038BD10B588B004466846FFF75BFB694600
:102FEC0004A8FFF796FB04A8A047044604A8FFF723
:102FFC0007FB6846FFF704FB204608B010BD07B579
:10300C00CDE9001282680AB900F01EFE6946C36859
:10301C0001AA984703B05DF804FB1FB500231024E8
:10302C00CDE90201019269461A461846ADF8023004
:10303C00ADF80040FFF7FAF904B010BD0B6803605F
:10304C004B68436013B15A6801325A60704737B508
:10305C00044668460D46FFF7F1FF009B019A23607A
:10306C000023626001A801930093FDF777F935B155
:10307C00281DFDF773F908212846FDF70AF82046AC
:10308C0003B030BD826810B50AB900F0DDFDC3682D
:10309C00BDE81040184708B5006800F11001FFF7B3
:1030AC00F1FF08BD826810B50AB900F0CDFDC36808
:1030BC00BDE81040184708B5006800F11001FFF793
:1030CC00F1FF08BD38B500230446036010200D46FF
:1030DC00FCF7DBFF28B10123C0E90133024BC560CB
:1030EC0003602060204638BDF4730A0838B500230D
:1030FC0083608B6804460D462BB102229847EB681F
:10310C00E360AB68A360204638BD0000F0B589B021
:10311C0004686846FFF726FF4FF00203D4E84F2FF0
:10312C00002A03D1C4E8413F0029F7D125D104F18D
:10313C000C0569462846FFF715FF0123BFF35B8F8B
:10314C0063700020BFF35B8F04F1080353E8006F3A
:10315C0043E80002002AF9D1BFF35B8F6EB1FFF791
:10316C00D1F878B129463046FFF78CFF3046FDF791
:10317C0009F810213046FCF78CFF6846FFF7FFFE7C
:10318C0009B0F0BD314602A8FFF7B0FFE068B4F912
:10319C00105008B102F0B6F906901020ADF81C5092
:1031AC00FCF773FF0546E8B1002787601820FCF791
:1031BC006CFF044688B10146876002A8FFF7FDFD4D
:1031CC00049BA268A360059B0492E26806A9E360D5
:1031DC0004F110000592FFF7C5FE084B2C60EB6064
:1031EC00074BAB6006A8FFF7CAFE02A8FCF7CAFFA4
:1031FC00002229460348FFF78DF8B7E7A3300A08E9
:10320C002D330A08E9370A082DE9F0478AB005463C
:10321C000C46174698469DF84890FFF717F907AEED
:10322C00824638BB4FF62E73059005A93046ADF893
:10323C001830FFF797FE1420FCF727FF044648B11F
:10324C00022303700123C0E901AA437031460C30FC
:10325C00FFF788FE2846214640F8044BFFF732FF63
:10326C003046FFF78CFE05A8FFF789FE28460AB00A
:10327C00BDE8F0870C234FF0000A1420CDE908AA12
:10328C000793FCF702FF014628B1C0E901AA80F8B8
:10329C0000A080F801A004A80391FFF713FF1F4BB7
:1032AC0008200893FCF7F1FE824610B103A9FFF742
:1032BC00C5FE42463946204600965FFA89F3CDF8A2
:1032CC0024A0FFF7D3F8B8B9039B5B7803F0FF0297
:1032DC0093B94FF69C7305A903A80592ADF8183065
:1032EC00FFF714FF05A8FFF74AFE05A80999FFF799
:1032FC00AEFE06A8FDF732F803A905A8FFF79EFE5F
:10330C00059B069A2B6000236A6006A8069305931A
:10331C00FDF724F804A8FDF721F8A7E7A9330A085C
:10332C00012AF8B5054603D10B6803600020F8BDEF
:10333C00022A10D0032AF9D10468002CF6D004F12B
:10334C001000FFF71CFE2046FCF71CFF182120463E
:10335C00FCF79FFEEAE718200E68FCF796FE044681
:10336C0050B13146FFF7C2FE3069B6F9147008B19E
:10337C0002F0C8F82061A7822C60D7E738B500238B
:10338C0083608B6804460D462BB102229847EB688C
:10339C00E360AB68A360204638BD0000F0B504467E
:1033AC0089B00D4601A81146FFF751FEA4B124B215
:1033BC001DB1284602F0A6F8054601A803A90395FD
:1033CC00ADF81040FFF7A2FE03A8FFF7D8FD02A846
:1033DC00FCF7C4FF09B0F0BD0123019DD5E84F2FC8
:1033EC00002A03D1C5E8413F0029F7D1EFD12B7357
:1033FC00BFF35B8F6B70BFF35B8F2B1D53E8006FBC
:10340C0043E80042002AF9D1BFF35B8F002EDED0D7
:10341C002046FEF777FF074660B1304605F10C01F8
:10342C00FFF740FE3046FCF7ADFE10213046FCF7AE
:10343C0030FECCE7314603A8FFF7A0FF2B7B102012
:10344C008DF81C30FCF721FE0546D0B187601420A6
:10345C00FCF71BFE044678B10146876003A8FFF712
:10346C00ACFC059BA268A360069B0592E268E36036
:10347C009DF81C3006922374064B2C60EB60064BB7
:10348C00AB6003A8FCF77EFE002229460348FEF73A
:10349C0041FFC7E7C3300A08AD340A08E9370A0808
:1034AC00012A70B5044603D10B680360002070BD7F
:1034BC00022A0CD0032AF9D10468002CF6D020463D
:1034CC00FCF760FE14212046FCF7E3FDEEE7142028
:1034DC000E68FCF7DAFD054620B13146FFF74EFFCA
:1034EC00337C2B742560E1E77047F8B50E46002459
:1034FC0000F10807051D17F8011D0A223046FFF7D9
:10350C0064FAAF42044401D12046F8BD002CF2D03D
:10351C002E213046FFF740FA0444ECE710B5044680
:10352C001821FCF7B6FD204610BD000010B504466E
:10353C00044B1122002140F8043B01F01BFD2046F6
:10354C0010BD00BF10740A080346074A10B543F8B3
:10355C00042B01F1100251F8044B914243F8044B37
:10356C00F9D10A781A7010BD10740A08024AC0E921
:10357C00002104220275704710740A0810B59DF8DA
:10358C00084044EA0324042344EA024444EA016464
:10359C004460037510BD000013B5044C04609DF825
:1035AC0010400094FFF7EAFF02B010BD10740A0837
:1035BC00417470477047704708B50021007CFEF7D6
:1035CC0061FE40EAE07008BD08B50121007CFEF701
:1035DC0059FE40EAE07008BD08B5007CFEF74AFED3
:1035EC0020EAE07008BD08B5007CFEF73BFE20EA3F
:1035FC00E07008BD38B50446007C0D46FEF73AFE77
:10360C00002801DC607C28B12946207CFEF742FEB4
:10361C0020EAE07038BD007CFEF744BE10B50446CD
:10362C001421FCF736FD204610BD704710B54FF441
:10363C007A73044608460021C4E90113044B207434
:10364C002360012311466374FEF704FE204610BD6F
:10365C0024740A0810B504461422002101F08AFCD7
:10366C00054B20466360054BE36040F20113238158
:10367C008123238210BD00BFD0050020D10600207D
:10368C0030B50E4D87B001A8FFF7E4FF2978BFF3E2
:10369C005B8F11F001040ED12846FCF7FCFC50B1F5
:1036AC00214601AA0648FFF7C1FF2846FCF7F8FCA3
:1036BC00044801F055FB024807B030BDA0050020BE
:1036CC00A8050020C1350A0810B5044614220021B3
:1036DC0001F050FC054B20466360054BE36040F263
:1036EC00011323818123238210BD00BF52070020C8
:1036FC005308002010B50E4C86B001A8FFF7E4FF6C
:10370C002378BFF35B8FDB070ED42046FCF7C3FC9A
:10371C0050B1012101AA0748FFF788FF2046FCF7AA
:10372C00BFFC054801F01CFB024806B010BD00BFF1
:10373C00A4050020BC05002037360A0870474174E8
:10374C00704708B5007CFEF72BFD20EAE07008BD41
:10375C0008B5007CFEF7FCFC20EAE07008BD08B55B
:10376C00007CFEF705FD40EAE07008BD08B5007C62
:10377C00FEF7F6FC40EAE07008BD007CFEF700BDE9
:10378C0070B5467C04460D462EB12946207CBDE81A
:10379C007040FEF7D5BC007CFEF702FD0028F4DC7F
:1037AC00304670BD10B504461421FCF772FC20465F
:1037BC0010BD000010B54FF47A730446084611464C
:1037CC000022C4E90123044B207423600123637499
:1037DC00FEF7EEFC204610BD54740A0810B5836841
:1037EC0004460BB900F030FAC3689847A3681BB1C4
:1037FC0003222146204698472046BDE81040102160
:10380C00FCF747BC7047F8B5064615460C468F18B2
:10381C00BC4206D0336830469B6814F8011B9847AD
:10382C00F6E72846F8BD0022007CFEF7C9BC002153
:10383C00007CFEF7CDBC0021007CFEF7D1BC002142
:10384C00007CFEF7D5BC0021007CFEF7D9BC10B57E
:10385C0004461421FCF71DFC204610BD10B54FF496
:10386C007A73044608460021C4E90113034B114640
:10387C0023602074FEF7D4FC204610BD84740A0823
:10388C00002240681146FEF781BDF0B5154689B09F
:10389C0011220E460446002103A801F06BFB2846BA
:1038AC0002F082FB002781B273682846009703AAB6
:1038BC00FEF700FD30B139462046FFF757FE204693
:1038CC0009B0F0BD204603A9FFF73EFEF7E7002242
:1038DC0040681146FEF77ABD002240681146FEF79B
:1038EC0085BD00224068FEF779BD0022406881F05A
:1038FC000101FEF763BD002340681A461946FEF726
:10390C0055BD002340681A461946FEF747BD0022F4
:10391C0040681146FEF72ABD002202214068FEF7DE
:10392C002DBD002340681A46FEF718BD0422024B39
:10393C005A60024A1A607047D4080020AC740A0816
:10394C00002340681A46FEF709BD00220221406898
:10395C00FEF714BD002240681146FEF707BD002299
:10396C0040681146FEF712BD002340681A461946FE
:10397C00FEF714BD002340681A461946FEF716BD23
:10398C0000214068FEF73ABD00214068FEF73EBDBD
:10399C000022406881F00101FEF710BD0022406852
:1039AC00FEF71CBD002240681146FEF71FBD002229
:1039BC0040681146FEF70ABD70B515468EB0044638
:1039CC0008A8FFF7B3FD1122002103A801F0D2FAD9
:1039DC000026284602F0E8FA0A4B009681B25B6892
:1039EC00284603AAFEF766FC30B131462046FFF7A5
:1039FC00BDFD20460EB070BD204603A9FFF7A4FD07
:103A0C00F7E700BFD4080020024B034A1A600022DB
:103A1C005A607047DC080020E8740A08024B98686A
:103A2C0008B1FEF785BB7047E8080020172870B571
:103A3C00044601D9002070BDA0F10D03022B0BD957
:103A4C00012824D800F0DAF80021007CFEF7E0FB16
:103A5C0080F00100C0B2EEE7124E3178BFF35B8FFD
:103A6C0011F001050DD13046FCF715FB48B1294684
:103A7C000D48FEF793FD3046FCF712FB0B4801F0A6
:103A8C006FF9094B1878FEF7DDFB0028D2D1123CF8
:103A9C00012C05D800F052F8007CFEF779FBD7E733
:103AAC000120C8E7E4080020E8080020293A0A08A9
:103ABC00172838B504460D460AD8FF2908D0FFF759
:103ACC00B5FF28B129462046BDE83840FEF7D0BAEC
:103ADC0038BD38B504460D46FEF7D2FAFF2810D093
:103AEC00062804D84D2323FA00F0C30709D4204636
:103AFC00FFF79CFF28B129462046BDE83840FEF769
:103B0C00C7BA38BD7047000070B5142504462A4664
:103B1C00002101F02FFA25808025074E28463146DA
:103B2C002581258200F08EF831466060284600F031
:103B3C0089F8E060204670BD1C750A0830B50E4D42
:103B4C0087B02978BFF35B8F11F0010411D128469F
:103B5C00FCF7A1FA68B101A8FFF7D6FF214601AA2C
:103B6C000648FFF727FE2846FCF79AFA044801F0AE
:103B7C00F7F8024807B030BDF4080020F808002020
:103B8C00113B0A0810B5084C2378BFF35B8FDB0799
:103B9C0008D42046FCF77FFA20B1FEF791FA2046B4
:103BAC00FCF77EFA014810BD100900201409002012
:103BBC00002307B51A46194600930348FFF7ECFC9F
:103BCC0003B05DF804FB00BF18090020704700002B
:103BDC0070B514232025084E0446036031468560D9
:103BEC000561284600F02EF831466060284600F04A
:103BFC0029F8E060204670BD1C750A0830B50E4DE2
:103C0C0087B02978BFF35B8F11F0010411D12846DE
:103C1C00FCF741FA68B101A8FFF7DAFF214601AAC7
:103C2C000648FFF71BFE2846FCF73AFA044801F059
:103C3C0097F8024807B030BD300900203409002045
:103C4C00D93B0A08FCF723BA08B5FEF77FFC000045
:103C5C0081F0004102E000BF83F0004330B54FEA31
:103C6C0041044FEA430594EA050F08BF90EA020F9E
:103C7C001FBF54EA000C55EA020C7FEA645C7FEA31
:103C8C00655C00F0E2804FEA5454D4EB5555B8BF54
:103C9C006D420CDD2C4480EA020281EA030382EAC5
:103CAC00000083EA010180EA020281EA0303362D57
:103CBC0088BF30BD11F0004F4FEA01314FF4801C2A
:103CCC004CEA113102D0404261EB410113F0004F3C
:103CDC004FEA03334CEA133302D0524263EB4303F3
:103CEC0094EA050F00F0A780A4F10104D5F1200E91
:103CFC000DDB02FA0EFC22FA05F2801841F10001EC
:103D0C0003FA0EF2801843FA05F359410EE0A5F1BF
:103D1C0020050EF1200E012A03FA0EFC28BF4CF0F0
:103D2C00020C43FA05F3C01851EBE37101F00045A6
:103D3C0007D54FF0000EDCF1000C7EEB00006EEBB3
:103D4C000101B1F5801F1BD3B1F5001F0CD349083D
:103D5C005FEA30004FEA3C0C04F101044FEA445294
:103D6C0012F5800F80F09A80BCF1004F08BF5FEA1B
:103D7C00500C50F1000041EB045141EA050130BDFB
:103D8C005FEA4C0C404141EB0101013C28BFB1F50D
:103D9C00801FE9D291F0000F04BF01460020B1FA58
:103DAC0081F308BF2033A3F10B03B3F120020CDA2B
:103DBC000C3208DD02F1140CC2F10C0201FA0CF009
:103DCC0021FA02F10CE002F11402D8BFC2F1200C6E
:103DDC0001FA02F120FA0CFCDCBF41EA0C01904024
:103DEC00E41AA2BF01EB0451294330BD6FEA04046D
:103DFC001F3C1CDA0C340EDC04F11404C4F1200258
:103E0C0020FA04F001FA02F340EA030021FA04F369
:103E1C0045EA030130BDC4F10C04C4F1200220FAC0
:103E2C0002F001FA04F340EA0300294630BD21FAFE
:103E3C0004F0294630BD94F0000F83F4801306BFC4
:103E4C0081F480110134013D4EE77FEA645C18BFB8
:103E5C007FEA655C29D094EA050F08BF90EA020F4F
:103E6C0005D054EA000C04BF1946104630BD91EA47
:103E7C00030F1EBF0021002030BD5FEA545C05D14A
:103E8C004000494128BF41F0004130BD14F5800489
:103E9C003CBF01F5801130BD01F0004545F0FE41FD
:103EAC0041F470014FF0000030BD7FEA645C1ABF32
:103EBC00194610467FEA655C1CBF0B46024650EA69
:103ECC00013406BF52EA033591EA030F41F4002195
:103EDC0030BD00BF90F0000F04BF0021704730B51B
:103EEC004FF4806404F132044FF000054FF00001F0
:103EFC0050E700BF90F0000F04BF0021704730B5B1
:103F0C004FF4806404F1320410F0004548BF404285
:103F1C004FF000013EE700BF42004FEAE2014FEADA
:103F2C0031014FEA02701FBF12F07F4393F07F4FB5
:103F3C0081F06051704732F07F4208BF704793F0B8
:103F4C007F4F04BF41F40021704730B54FF46074CB
:103F5C0001F0004521F000411CE700BF50EA0102CE
:103F6C0008BF704730B54FF000050AE050EA010277
:103F7C0008BF704730B511F0004502D5404261EBE7
:103F8C0041014FF4806404F132045FEA915C3FF428
:103F9C00D8AE4FF003025FEADC0C18BF03325FEAC5
:103FAC00DC0C18BF033202EBDC02C2F1200300FA76
:103FBC0003FC20FA02F001FA03FE40EA0E0021FA9B
:103FCC0002F11444BDE600BF70B54FF0FF0C4CF489
:103FDC00E06C1CEA11541DBF1CEA135594EA0C0F3B
:103FEC0095EA0C0F00F0DEF82C4481EA030621EA76
:103FFC004C5123EA4C5350EA013518BF52EA0335B1
:10400C0041F4801143F4801338D0A0FB02CE4FF062
:10401C000005E1FB02E506F00042E0FB03E54FF092
:10402C000006E1FB03569CF0000F18BF4EF0010E8A
:10403C00A4F1FF04B6F5007F64F5407404D25FEA86
:10404C004E0E6D4146EB060642EAC62141EA555139
:10405C004FEAC52040EA5E504FEACE2EB4F1FD0C7B
:10406C0088BFBCF5E06F1ED8BEF1004F08BF5FEAF9
:10407C00500E50F1000041EB045170BD06F00046AB
:10408C0046EA010140EA020081EA0301B4EB5C0458
:10409C00C2BFD4EB0C0541EA045170BD41F4801150
:1040AC004FF0000E013C00F3AB8014F1360FDEBF75
:1040BC00002001F0004170BDC4F10004203C35DA51
:1040CC000C341BDC04F11404C4F1200500FA05F3D4
:1040DC0020FA04F001FA05F240EA020001F0004275
:1040EC0021F0004110EBD37021FA04F642EB0601EB
:1040FC005EEA430E08BF20EAD37070BDC4F10C0415
:10410C00C4F1200500FA04F320FA05F001FA04F2D8
:10411C0040EA020001F0004110EBD37041F10001C4
:10412C005EEA430E08BF20EAD37070BDC4F12005CF
:10413C0000FA05F24EEA020E20FA04F301FA05F237
:10414C0043EA020321FA04F001F0004121FA04F2DF
:10415C0020EA020000EBD3705EEA430E08BF20EAAF
:10416C00D37070BD94F0000F0FD101F000464000E9
:10417C0041EB010111F4801F08BF013CF7D041EA6B
:10418C00060195F0000F18BF704703F0004652006F
:10419C0043EB030313F4801F08BF013DF7D043EA40
:1041AC000603704794EA0C0F0CEA135518BF95EAF6
:1041BC000C0F0CD050EA410618BF52EA4306D1D17D
:1041CC0081EA030101F000414FF0000070BD50EA9C
:1041DC00410606BF1046194652EA430619D094EA26
:1041EC000C0F02D150EA013613D195EA0C0F05D110
:1041FC0052EA03361CBF104619460AD181EA030164
:10420C0001F0004141F0FE4141F470014FF000001B
:10421C0070BD41F0FE4141F4780170BD70B54FF0B6
:10422C00FF0C4CF4E06C1CEA11541DBF1CEA135536
:10423C0094EA0C0F95EA0C0F00F0A7F8A4EB050418
:10424C0081EA030E52EA03354FEA013100F088800F
:10425C004FEA03334FF0805545EA131343EA1263D8
:10426C004FEA022245EA111545EA10654FEA00268D
:10427C000EF000419D4208BF964244F1FD0404F546
:10428C00407402D25B084FEA3202B61A65EB0305A2
:10429C005B084FEA32024FF480104FF4002CB6EB5F
:1042AC00020E75EB030E22BFB61A754640EA0C00DF
:1042BC005B084FEA3202B6EB020E75EB030E22BF1F
:1042CC00B61A754640EA5C005B084FEA3202B6EB60
:1042DC00020E75EB030E22BFB61A754640EA9C001F
:1042EC005B084FEA3202B6EB020E75EB030E22BFEF
:1042FC00B61A754640EADC0055EA060E18D04FEAAD
:10430C00051545EA16754FEA06164FEAC30343EA4C
:10431C0052734FEAC2025FEA1C1CC0D111F4801F19
:10432C000BD141EA00014FF000004FF0004CB6E712
:10433C0011F4801F04BF01430020B4F1FD0C88BFB1
:10434C00BCF5E06F3FF6AFAEB5EB030C04BFB6EBBC
:10435C00020C5FEA500C50F1000041EB045170BDAF
:10436C000EF0004E4EEA113114EB5C04C2BFD4EBDC
:10437C000C0541EA045170BD41F480114FF0000E60
:10438C00013C90E645EA060E8DE60CEA135594EADC
:10439C000C0F08BF95EA0C0F3FF43BAF94EA0C0FDF
:1043AC000AD150EA01347FF434AF95EA0C0F7FF454
:1043BC0025AF104619462CE795EA0C0F06D152EAA8
:1043CC0003353FF4FDAE1046194622E750EA41068C
:1043DC0018BF52EA43067FF4C5AE50EA41047FF49D
:1043EC000DAF52EA43057FF4EBAE12E74A0011D24F
:1043FC0012F5001211D20DD56FF47873B3EB625233
:10440C000ED44FEAC12343F0004343EA505323FA3E
:10441C0002F070474FF00000704750EA013002D1B3
:10442C004FF0FF3070474FF00000704780F00040B5
:10443C0002E000BF81F0004142001FBF5FEA410370
:10444C0092EA030F7FEA226C7FEA236C6AD04FEA70
:10445C001262D2EB1363C1BFD218414048404140B5
:10446C00B8BF5B42192B88BF704710F0004F40F467
:10447C00000020F07F4018BF404211F0004F41F483
:10448C00000121F07F4118BF494292EA030F3FD04F
:10449C00A2F1010241FA03FC10EB0C00C3F1200362
:1044AC0001FA03F100F0004302D5494260EB4000F1
:1044BC00B0F5000F13D3B0F1807F06D340084FEA5C
:1044CC00310102F10102FE2A51D2B1F1004F40EB51
:1044DC00C25008BF20F0010040EA030070474900B9
:1044EC0040EB0000013A28BFB0F5000FEDD2B0FA56
:1044FC0080FCACF1080CB2EB0C0200FA0CF0AABF79
:10450C0000EBC25052421843BCBFD0401843704716
:10451C0092F0000F81F4000106BF80F4000001321C
:10452C00013BB5E74FEA41037FEA226C18BF7FEAF3
:10453C00236C21D092EA030F04D092F0000F08BF35
:10454C000846704790EA010F1CBF0020704712F01C
:10455C007F4F04D1400028BF40F00040704712F15B
:10456C0000723CBF00F50000704700F0004343F0C0
:10457C00FE4040F4000070477FEA226216BF0846F6
:10458C007FEA23630146420206BF5FEA412390EAB9
:10459C00010F40F4800070474FF0000304E000BFAF
:1045AC0010F0004348BF40425FEA000C08BF704760
:1045BC0043F0964301464FF000001CE050EA010224
:1045CC0008BF70474FF000030AE000BF50EA010239
:1045DC0008BF704711F0004302D5404261EB410126
:1045EC005FEA010C02BF84460146002043F0B6434B
:1045FC0008BFA3F18053A3F50003BCFA8CF2083A70
:10460C00A3EBC25310DB01FA02FC634400FA02FC78
:10461C00C2F12002BCF1004F20FA02F243EB02007F
:10462C0008BF20F00100704702F1200201FA02FCE1
:10463C00C2F1200250EA4C0021FA02F243EB0200D4
:10464C0008BF20EADC7070474FF0FF0C1CEAD05218
:10465C001EBF1CEAD15392EA0C0F93EA0C0F6FD0D9
:10466C001A4480EA010C400218BF5FEA41211ED0B7
:10467C004FF0006343EA501043EA5111A0FB0131A3
:10468C000CF00040B1F5000F3EBF490041EAD37178
:10469C005B0040EA010062F17F02FD2A1DD8B3F1F4
:1046AC00004F40EBC25008BF20F00100704790F063
:1046BC00000F0CF0004C08BF49024CEA502040EAB5
:1046CC0051207F3AC2BFD2F1FF0340EAC25070477B
:1046DC0040F400004FF00003013A5DDC12F1190FB9
:1046EC00DCBF00F000407047C2F10002410021FA2B
:1046FC0002F1C2F1200200FA02FC5FEA310040F143
:10470C00000053EA4C0308BF20EADC70704792F0BB
:10471C00000F00F0004C02BF400010F4000F013AF3
:10472C00F9D040EA0C0093F0000F01F0004C02BFEE
:10473C00490011F4000F013BF9D041EA0C018FE75D
:10474C000CEAD15392EA0C0F18BF93EA0C0F0AD063
:10475C0030F0004C18BF31F0004CD8D180EA010089
:10476C0000F00040704790F0000F17BF90F0004F22
:10477C00084691F0000F91F0004F14D092EA0C0F04
:10478C0001D142020FD193EA0C0F03D14B0218BF97
:10479C00084608D180EA010000F0004040F0FE40DD
:1047AC0040F40000704740F0FE4040F44000704779
:1047BC004FF0FF0C1CEAD0521EBF1CEAD15392EAF8
:1047CC000C0F93EA0C0F69D0A2EB030280EA010CE8
:1047DC0049024FEA402037D04FF0805343EA111181
:1047EC0043EA10130CF000408B4238BF5B0042F1DF
:1047FC007D024FF4000C8B4224BF5B1A40EA0C0084
:10480C00B3EB510F24BFA3EB510340EA5C00B3EBB5
:10481C00910F24BFA3EB910340EA9C00B3EBD10FA3
:10482C0024BFA3EBD10340EADC001B0118BF5FEAF5
:10483C001C1CE0D1FD2A3FF650AF8B4240EBC2501E
:10484C0008BF20F0010070470CF0004C4CEA5020DF
:10485C007F32C2BFD2F1FF0340EAC250704740F42E
:10486C0000004FF00003013A37E792F0000F00F020
:10487C00004C02BF400010F4000F013AF9D040EA9E
:10488C000C0093F0000F01F0004C02BF490011F432
:10489C00000F013BF9D041EA0C0195E70CEAD1532A
:1048AC0092EA0C0F08D142027FF47DAF93EA0C0F11
:1048BC007FF470AF084676E793EA0C0F04D14B02F5
:1048CC003FF44CAF08466EE730F0004C18BF31F0A7
:1048DC00004CCAD130F000427FF45CAF31F00043A1
:1048EC007FF43CAF5FE700BF4FF0FF3C06E000BF3A
:1048FC004FF0010C02E000BF4FF0010C4DF804CD5D
:10490C004FEA40024FEA41037FEA226C18BF7FEA6C
:10491C00236C11D001B052EA530C18BF90EA010F6E
:10492C0058BFB2EB030088BFC81738BF6FEAE170FD
:10493C0018BF40F0010070477FEA226C02D15FEA99
:10494C00402C05D17FEA236CE4D15FEA412CE1D005
:10495C005DF8040B704700BF844608466146FFE7CC
:10496C000FB5FFF7C9FF002848BF10F1000F0FBDAE
:10497C004DF808EDFFF7F4FF0CBF012000205DF8A7
:10498C0008FB00BF4DF808EDFFF7EAFF34BF01202C
:10499C0000205DF808FB00BF4DF808EDFFF7E0FFC5
:1049AC0094BF012000205DF808FB00BF4DF808ED16
:1049BC00FFF7D2FF94BF012000205DF808FB00BF79
:1049CC004DF808EDFFF7C8FF34BF012000205DF85B
:1049DC0008FB00BF10B500210446FFF7D3FF20B938
:1049EC002046BDE8104000F009B804F1004000F08A
:1049FC0005F8404261EB410110BD00BFD0B5FFF797
:104A0C008BFA00220B4B06460F46FFF7DDFAFFF739
:104A1C00EDFC0446FFF75EFA0022074BFFF7D4FAD1
:104A2C0002460B4630463946FFF716F9FFF7DEFC17
:104A3C002146D0BD0000F03D0000F0412DE9F047CB
:104A4C00089E0D4604468846002B4DD18A4294465A
:104A5C0068D9B2FA82F252B101FA02F3C2F1200122
:104A6C0020FA01F10CFA02FC41EA030894404FEAE7
:104A7C001C41B8FBF1F71FFA8CFE01FB178807FBF2
:104A8C000EF0230C43EA084398420AD91CEB0303AB
:104A9C0007F1FF3580F01E81984240F21B81023FE6
:104AAC0063441B1AB3FBF1F001FB103300FB0EFE49
:104ABC00A4B244EA0344A6450AD91CEB040400F151
:104ACC00FF3380F00981A64540F206816444023828
:104ADC000021A4EB0E0440EA07401EB10023D44091
:104AEC00C6E90043BDE8F0878B4208D9002E00F0E0
:104AFC00EE800021C6E900050846BDE8F087B3FA50
:104B0C0083F100294AD1AB4202D3824200F2FC80ED
:104B1C00841A65EB030301209846002EE2D0C6E907
:104B2C000048DFE702B9FFDEB2FA82F2002A40F059
:104B3C009180A1EB0C0001214FEA1C471FFA8CFE5F
:104B4C00B0FBF7F307FB1300250C45EA00450EFB01
:104B5C0003F0A84208D91CEB050503F1FF3802D27B
:104B6C00A84200F2CE8043462D1AB5FBF7F007FBA6
:104B7C0010550EFB00FEA4B244EA0544A64508D924
:104B8C001CEB040400F1FF3502D2A64500F2B680FE
:104B9C002846A4EB0E0440EA03409EE7C1F120072F
:104BAC008B4022FA07FC4CEA030C25FA07FA4FEA71
:104BBC001C49BAFBF9F820FA07F309FB18AA8D4037
:104BCC001FFA8CFE1D4300FA01F308FB0EF02C0CAF
:104BDC0044EA0A44A04202FA01F20BD91CEB040489
:104BEC0008F1FF3A80F08880A04240F28580A8F15D
:104BFC0002086444241AB4FBF9F009FB104400FBCE
:104C0C000EFEADB245EA0444A64508D91CEB0404DB
:104C1C0000F1FF356CD2A6456AD90238644440EAEB
:104C2C000840A0FB0295A4EB0E04AC42C846AE466D
:104C3C0056D353D0002E69D0B3EB080264EB0E04AC
:104C4C0022FA01F304FA07F71F43CC40C6E90074BB
:104C5C00002147E70CFA02FCC2F1200125FA01F30E
:104C6C004FEA1C4720FA01F195400D43B3FBF7F1D5
:104C7C0007FB11331FFA8CFE280C40EA034001FBA2
:104C8C000EF3834204FA02F408D91CEB000001F184
:104C9C00FF382FD283422DD902396044C01AB0FBA1
:104CAC00F7F307FB1300ADB245EA004503FB0EF02A
:104CBC00A84208D91CEB050503F1FF3816D2A8420F
:104CCC0014D9023B6544281A43EA014138E73146BE
:104CDC00304607E72F46E4E61846F9E64B45A9D2DD
:104CEC00B9EB020865EB0C0E0138A3E74346EAE783
:104CFC00284694E74146D1E7D0467BE76444023826
:104D0C0047E7023B65442FE7084606E73146E9E6EC
:104D1C00704700BF10B50C46416986B001F26C714A
:104D2C00036982690491016803EB430303914168B1
:104D3C0002EB4202029181680191C1682046009108
:104D4C0004490B4404490A440449FDF7D7FB2046A7
:104D5C0006B010BD52750A083D750A081D750A0883
:104D6C00002301461A46184601F09EBC0A22002177
:104D7C0001F0DCB92DE9F0410C46804601F054FD00
:104D8C0021460546404601F053FD43690446990708
:104D9C0003F26C7705D1642297FBF2F302FB1373D9
:104DAC0073BB4FF4C87397FBF3F603FB1676B6FA96
:104DBC0086F35B093022664E02FB036601F0E0FAD3
:104DCC0001F0EAFA634B1B684BB36B68BB4219D119
:104DDC00D8E90023D5E908012F68DFB9824273EBCB
:104DEC00010123DAD5E91201824273EB0107B4BF4A
:104DFC000127002782428B41276219DBAB6A18E03E
:104E0C000123D7E7384601F017FA0028E0D14FF01C
:104E1C00FF3304E0824273EB010102DA00232362C8
:104E2C00ECE7D5E9120182428B41F7DA01232362C8
:104E3C002B6D4FF4616293FBF2F53C2002FB1533B2
:104E4C0093FBF0F200FB123061682368891AA268A8
:104E5C001B1A521B3B2B23606160A26034DD0131B5
:104E6C0061603C3B236063683B2B33DD0132A26005
:104E7C003C3B6360A368172B32DDE269183B0132BF
:104E8C00E261A269A3600132062AC8BF0022A261B6
:104E9C00E26823690132E26056F823108A420EDD83
:104EAC000B2BA2EB0102E26003F1010205BF002211
:104EBC0063692261013302BF22616361E26101F027
:104ECC0065FA2046BDE8F081002BCCDA013961602F
:104EDC003C33C7E7002BCDDA013AA2603C33C8E77C
:104EEC00002BECDAE2691833013AE261A269A360A3
:104EFC00013A48BF0622A261E268013AE260002A48
:104F0C00DDD12369013B05D42361236956F8233095
:104F1C00E360D4E70B23236163695A1E03F26B73BE
:104F2C0062619A0705D1642193FBF1F201FB123205
:104F3C0062B94FF4C87293FBF2F102FB1133B3FA6E
:104F4C0083F35B0903F5B673E361DEE70123F9E74D
:104F5C00D8750A08640900200A44914200F1FF3315
:104F6C0000D1704710B511F8014B914203F8014F75
:104F7C00F9D110BD03460244934200D1704703F8A7
:104F8C00011BF9E7F7B5016804463B2911D93C220E
:104F9C00684601F0F1FB019A63680099002A0B4402
:104FAC006360BBBF3C3203F1FF3322602260B8BFA9
:104FBC00636061683B2911D93C22684601F0DCFB37
:104FCC00019AA3680099002A0B44A360BBBF3C3232
:104FDC0003F1FF3362606260B8BFA360A168172958
:104FEC0011D91822684601F0C7FB019AE3680099B1
:104FFC00002A0B44E360BBBF183203F1FF33A260FD
:10500C00A260B8BFE36021690B2911D90C22684654
:10501C0001F0B2FB019A63690099002A0B446361A9
:10502C00BBBF0C3203F1FF3322612261B8BF636155
:10503C006369980720D1642193FBF1F201FB1232D2
:10504C00E2B94FF4C87203F26C7393FBF2F102FBFA
:10505C001133002B14BF1C231D23E268002A0FDC24
:10506C000B2664204FF4C875314FD4F80CC0BCF13A
:10507C00000F31DD03B0F0BD1C23EEE71D23ECE780
:10508C00002764204FF4C875294ED4E90312012A75
:10509C000CBF9C4656F822C06145EBDD0132A1EBFA
:1050AC000C010C2AE1602261EFD163695A1C910753
:1050BC00C4E9047237D192FBF0F100FB1122002AF3
:1050CC0033D103F26D7393FBF5F205FB1233002B16
:1050DC0014BF1C231D23D8E721690139216101313B
:1050EC0014D163695A1E9107C4E9046217D192FB6B
:1050FC00F0F100FB1122A2B903F26B7393FBF5F2F2
:10510C0005FB1233002B14BF1C231D232269012A1B
:10511C000CBF1A4657F822206244E260A5E71C2314
:10512C00F4E71D23F2E71C23AFE71D23ADE700BF17
:10513C0078750A082DE9F04F85B0074601F074FB2D
:10514C0081463846FFF71EFFD7E900403C2303FB9E
:10515C0000444FF46163B868BC4A03FB0044D7E9D0
:10516C00035352F82320013D012B7E69154411DDB8
:10517C00B1070FD1642296FBF2F302FB136343B920
:10518C004FF4C87206F26C7393FBF2F102FB11330D
:10519C0003B9013544F6206206F51C5310339342D3
:1051AC00FD6100F25C81462E71DD462340F26D1CE0
:1051BC0064214FF4C8709A0763D193FBF1F201FBA1
:1051CC001232002A60D103F26C7292FBF0FE00FBEB
:1051DC001E22002A14BF62464FF4B77201339E425E
:1051EC001544E8D19A4B4FEAE478C5FB034801F02B
:1051FC00C7F801F0D1F8974BD3F800B0BBF1000F12
:10520C0039D0D7F820B07869D9F80430BBF1010F48
:10521C0000F26C70DA46A8BF4FF0010A834278D1D5
:10522C00D9E90832D9F85010D9F84CE05B1A02933E
:10523C0062EBE1730393D9F82820D9F84830B3EB2B
:10524C00020C6EEBE2706445019378EB000366DAB6
:10525C00D9F80030002B6FD0029B9C42039B78EB5B
:10526C00030303DB644578EB00036BDBBBF1000F3E
:10527C004FF0000B6BDAD9F828100C1948EBE178D9
:10528C00A9E040F26D12A9E74FF4B772A6E7A9D0D6
:10529C00452340F26D1C64214FF4C87012E062BBD0
:1052AC0093FBF1F201FB123252BB03F26C7292FBD4
:1052BC00F0FE00FB1E22002A14BF62464FF4B772A8
:1052CC00AD1A013B9E4203F00302E8DBDAB964221B
:1052DC0096FBF2F302FB1363C3B94FF4C87206F2E8
:1052EC006C7393FBF2F102FB1133002B40F26D1344
:1052FC0008BF4FF4B773ED1A74E740F26D12DFE795
:10530C004FF4B772DCE740F26D13F4E74FF4B77368
:10531C00F1E700F091FF002882D1D34650E0019BC9
:10532C005B1A01934FEAE1736EEB030E019B9C42F7
:10533C0078EB0E03F1DB8BE7029B9C42039B78EB33
:10534C0003038FDBBBF1000F3EDB4FF0010B8AEA4E
:10535C000B0ABAF1010F33D1BBF1000F4ED0521A28
:10536C003B681419134438463B6048EBE278D7F895
:10537C000CA0FFF707FEFA68B2EB0A0220D0012A54
:10538C003EDC901CD8BF0122FB691544D31840D5D4
:10539C00731E990737D1642293FBF2F102FB113390
:1053AC00A3BB4FF4C87306F26B7696FBF3F203FBC8
:1053BC001266002E40F26D1318BF4FF4B673FB61EA
:1053CC00BBF1010F7FF457AF4FF0010BD9F8501020
:1053DC000C1948EBE17800F0D9FF0723043595FB55
:1053EC00F3F3C3EBC303ED1A48BF0735C7F820B07E
:1053FC00BD612046414605B0BDE8F08F8A1AAFE783
:10540C004FF0FF32C0E74FF4B673D8E740F26D139C
:10541C00D5E7B20717D1642196FBF1F201FB1262BA
:10542C00D2B94FF4C87206F26C7696FBF2F102FB1D
:10543C001166002E40F26D1208BF4FF4B772934202
:10544C00A8BF9B1ABBE740F26D12F8E7A8750A08D3
:10545C0080510100640900204FF4B772EFE74FF060
:10546C00FF34A046C5E700BF38B5104B04461D6895
:10547C00AB6BB3B91820FDF721F80246A86320B92D
:10548C0042210B4B0B48FDF779F80B490B4BC0E94C
:10549C0000130B4B002183600B2383810120C2E995
:1054AC0004010022AB6B1C615A6138BD080000205E
:1054BC0038760A084F760A080E33CDAB34126DE6F7
:1054CC00ECDE05000346C9B2184613F8012B12B1E5
:1054DC008A42F9D17047002918BF0020704710F894
:1054EC00012B11F8013B012A28BF9A42F7D0D01AA0
:1054FC007047034611F8012B03F8012B002AF9D150
:10550C0070470000024B0146186800F003B800BF5A
:10551C000800002070B5044608460D4600F044FD16
:10552C00461C31462046FDF719F8044618B13246A0
:10553C002946FFF711FD204670BD0000426940F27C
:10554C006C73002AA8BF6FF063031344920705D154
:10555C00642193FBF1F201FB1232DAB94FF4C872F9
:10556C0093FBF2F102FB1133B3FA83F35B09D0E93D
:10557C000602400000EB0210184441F2A26398426C
:10558C003AD021DC01281ADC0028B4BF00204FF0EF
:10559C00FF3070470123EAE7172813D8DFE800F043
:1055AC000C0C0C0C12120C0C1212121212121212F3
:1055BC0012120C0C12120C0C4FF0FF3070470A3800
:1055CC001728E9D90020704741F2B463984206DCF1
:1055DC0041F2B1639842D4BF002001207047A0F57E
:1055EC00B65002381528EDD80123834003481840E3
:1055FC00003818BF01207047012070471F002A0097
:10560C002DE9F04F1E46002307460D461C468FB071
:10561C0002931378002B00F0B584252B1FD192F840
:10562C0001B0BBF1300F24D0BBF12B0F21D04FF0C8
:10563C00000B02F1010898F80020313A082A1BD817
:10564C0040460A2206A900F0EDFD8146DDF81880DF
:10565C0098F80020452A12D108F1010811E0691EC2
:10566C00A14202D8002400F090BC3B550132013419
:10567C00CFE702F10208DEE74FF00009E8E74F2A16
:10568C00EAD098F80000A0F12502552AEAD801A327
:10569C0053F822F0855F0A0871560A0871560A08F9
:1056AC0071560A0871560A0871560A0871560A088A
:1056BC0071560A0871560A0871560A0871560A087A
:1056CC0071560A0871560A0871560A0871560A086A
:1056DC0071560A0871560A0871560A0871560A085A
:1056EC0071560A0871560A0871560A0871560A084A
:1056FC0071560A0871560A0871560A0871560A083A
:10570C0071560A0835580A088D580A08FB580A08B9
:10571C0099590A0871560A08E3590A08D15A0A0815
:10572C00A75B0A08B55B0A0871560A0871560A0885
:10573C0071560A08E55B0A0871560A0871560A0880
:10574C00F95B0A0871560A084B5C0A085D5D0A0889
:10575C006D5D0A08955D0A08A55D0A083F5E0A089A
:10576C00F3580A086B5E0A08335F0A0871560A0878
:10577C0071560A0871560A0871560A0871560A08B9
:10578C0071560A08F9570A0863580A08B9580A08E2
:10579C0075590A0875590A0871560A08355A0A08C3
:1057AC0063580A0871560A08D75B0A08A75B0A08EF
:1057BC00B55B0A08DF5B0A08E95B0A0871560A0840
:1057CC00F95B0A0871560A08E3580A085D5C0A0876
:1057DC00615D0A087B5D0A0871560A08315E0A0889
:1057EC00EB580A084F5E0A08BD5E0A08B369A94A5D
:1057FC00183352F82390484600F0D6FB09F1FF39D4
:10580C0020446B1EA04207D198F80030002B00F00A
:10581C00B98308F10102FCE6A3427FF623AF19F825
:10582C00012F3A550134EDE7B2699A4B03EB820331
:10583C00D3F87C90484600F0B7FB09F1FF392044BF
:10584C006B1EA042E0D0A3427FF60CAF19F8012FDB
:10585C003A550134F5E78F4B326953F8229048469C
:10586C0000F0A2FB09F1FF3920446B1EA042CBD003
:10587C00A3427FF6F7AE19F8012F3A550134F5E73C
:10588C003369844A0C3352F82390484600F08CFB61
:10589C0009F1FF3920446B1EA042B5D0A3427FF61C
:1058AC00E1AE19F8012F3A550134F5E7794BD3F8ED
:1058BC00A090484600F078FB99F80030002BA3D05C
:1058CC0033464A46291B3819FFF79AFE00287FF702
:1058DC00C9AE044498E76F4BD3F8E490E9E76D4BFD
:1058EC00D3F89C90E5E76B4BD3F89890E1E76A49C5
:1058FC00D6F814A08A45ACBF00210121BAF1000FE3
:10590C0011DB64209AFBF0F01330BBF1000F14D0C4
:10591C00632827DD614B624ABBF12B0F18BF1A4677
:10592C00DFF880C10CE00AF26C70039100F020FFEC
:10593C006422039990FBF2F0E7E7584ADFF868C15C
:10594C00B9F1020F2CBFC1EB0901C1F10201574B98
:10595C000091514901908A45A8BF13466246291B04
:10596C00381929E04D4ADBE75149524AF36864285B
:10597C0008BF0A46291B3819FCF7D8FD0028FFF68A
:10598C0071AE0444A5423FF63FAF6BE670693369D4
:10599C000028F26807EB0409A5EB040A03F1010BDC
:1059AC000DDB642190FBF1FC01FB1C00CDE9002018
:1059BC005B4651464846404AFCF7B8FDDEE700F22C
:1059CC006C70039200F0D4FE642190FBF1FC039AFE
:1059DC000CFB1100EAE725228DF81820BBF1000F13
:1059EC0011D0B9F1060F38BF4FF00609B9F1060313
:1059FC008DF819B00CD10DF11A003049FFF779FD73
:105A0C00334606AA5EE74FF02B0B4FF00A09EDE781
:105A1C001E212B4A0DF11A00FCF788FD0028EADD47
:105A2C000DF11A031844E8E73046FFF787FD81466D
:105A3C007069002811DB642390FBF3F203FB120066
:105A4C006422814499FBF2F302FB13999144B9FB54
:105A5C00F2F302FB1393164A8CE700F26C7000F021
:105A6C0087FE642390FBF3F2B9F1000F02FB1300E5
:105A7C0007DA7269A3F2CF739A42B8BF4FF00109EB
:105A8C00DEE7DDD07269044B9A42B8BF4FF0FF39A4
:105A9C00D6E700BF54780A0894F8FFFF866B0A0813
:105AAC00DB760A08D3760A08CC760A08DD760A0873
:105ABC00ED760A08DF760A08E3760A08F6760A0815
:105ACC00F2760A087169BA4A30469142ACBF00239B
