:02000004080AE8
:1000000000000A08147D0A08000006000600050129
:080010000402BD0B000000001A
:04001800E86A0A0880
:10001C0009480A4908B5884205D0094A824202D0EB
:10002C00121A04F0E9FF0748074A0021121A04F0DB
:10003C00F1FF064808BD00BF00000020AC7A0A089A
:10004C004002002040020020E5070020E5070020C8
:10005C0070B502F091FF0025054E064CA41BA408B8
:10006C00A54200D170BD56F8043B98470135F7E71F
:10007C00687A0A08947A0A0801F0C8BC08B501F03D
:10008C000BFEBDE8084002F039BF02F05BBA02F08B
:10009C0059BA02F05FBA0078B0FA80F040097047A4
:1000AC00012303707047F8B50E46054611463046DD
:1000BC00B3F900201C46069F02F028FC03B22380F3
:1000CC002846B7F90020314602F040FC2288284629
:1000DC00013212B222803A80F8BD00B58BB0039386
:1000EC000C9BA0F26C7002930D9B06900193002365
:1000FC00013901A8CDE90421099305F06BF80BB087
:10010C005DF804FB022A38B5044607D0032A11D047
:10011C00012A01D10B682360002038BD0C200D682A
:10012C00FFF7B3FF03460028F5D095E8070083E8F6
:10013C000700F0E700680028EED00C2103F0CDFD9D
:10014C00EAE770B4036809685C689D68661005EBA3
:10015C006400E40748BFAC591B68126848BFE358F9
:10016C0070BC184713B50446054B0A461B78054965
:10017C008DF800303C2303F08DF8204602B010BD02
:10018C0044020020FC6A0A0810B58368044613B1C7
:10019C00032201469847204610BD70B5054601F074
:1001AC00CBFFD5F8B042064601F0C6FFD5F8B43205
:1001BC00C5F8B0021C44A01B0028C5F8B402D4BF7B
:1001CC000020012070BD90F8BE02831E5842584199
:1001DC00704790F8BE02C31E58425841704790F8C1
:1001EC00BE02431F58425841704798B5D0F8A4320C
:1001FC0000AF083323F00703ADEB030D0446D0F832
:10020C009C12684605F0C9F90023694623724FF425
:10021C00007204F1090005F061FF03F0EBFC40F201
:10022C000122206804F1080101F09EFFBD4698BD33
:10023C001FB5044603F0DEFC40F20122206804F1F5
:10024C00080101F089FF237A012B0FD004F1090179
:10025C00684602F06FFA694604F5277002F0B4FAAA
:10026C00684602F01DFA012004B010BD0020FBE727
:10027C00F8B500254FF40073C0E900530123044680
:10028C000F4616460372294B29461A689B88C0F8FC
:10029C000920A0F80D304FF4FD720F3004F0BAFEB7
:1002AC00234904F5037002F045FA224904F507705E
:1002BC0002F040FA204904F50B7002F03BFA394683
:1002CC0004F50F7002F075FA314604F5137002F064
:1002DC0070FA1A4904F5177002F02CFA174904F554
:1002EC001B7002F027FA154904F51F7002F022FA70
:1002FC00124904F5237002F01DFA104904F5277019
:10030C0002F018FA0D4904F5317002F013FA204688
:10031C00FFF78EFFA84214BF02232B46204684F819
:10032C00BE32C4F8B85284F8C052F8BD406E0A0808
:10033C00026B0A08116B0A08216B0A08CB6B0A08BE
:10034C0038B505460123044605F8083F03F052FC76
:10035C002946206840F20122BDE8384001F004BF74
:10036C0038B5046805467CB16368013B63605BB9D2
:10037C00236820469B689847A368013BA3601BB980
:10038C0023682046DB689847284638BDF0B5002620
:10039C000D469BB01146044606A8ADF80C60ADF8AE
:1003AC000E6002F0C7F929460AA80DF10E0502F0FD
:1003BC00C1F92F2203AB0AA916A80095FFF773FE0B
:1003CC0016A802F06DF92F2203AB0AA90EA800950E
:1003DC00FFF769FE0AA912A82F22009503ABFFF7BD
:1003EC0062FE74490EA8ADF80C60ADF80E6002F018
:1003FC0070FA002800F0CC8004F5037112A802F00A
:10040C005BFA0746002860D07E2203AB06A916A82B
:10041C000095FFF748FE16A904F5177002F0D4F901
:10042C0016A802F03DF97E2203AB06A916A800958A
:10043C00FFF739FE16A904F51B7002F0C5F916A8D2
:10044C0002F02EF97E2203AB06A916A80095FFF741
:10045C002AFE16A904F51F7002F0B6F916A802F0D0
:10046C001FF97E2206A903AB16A80095FFF71BFE09
:10047C0016A802F08DFA4FF47A73434316A8C4F809
:10048C00B43202F00DF903AB324606A916A800955A
:10049C00FFF709FE16A802F07BFAC0EB401300EB45
:1004AC008300C000A4F8BC0216A802F0F9F812A848
:1004BC0002F0F6F80EA802F0F3F80AA802F0F0F831
:1004CC0006A802F0EDF81BB0F0BD04F5077112A8F8
:1004DC0002F0F2F90646002840D07E2203AB06A9B2
:1004EC0016A80095FFF7DFFD16A904F5237002F09E
:1004FC006BF916A802F0D4F87E2203AB06A916A855
:10050C000095FFF7D0FD16A904F5277002F05CF9F1
:10051C0016A802F0C5F84FF47A7002F091FCD4F8EA
:10052C009C1216A802F03AFA169904A8FFF71AFEC4
:10053C0005A8FFF715FF16A802F0B2F83A46009589
:10054C0003AB06A916A8FFF7AEFD16A802F020FA19
:10055C004FF47A734343C4F8B432A5E704F50B7136
:10056C0012A802F0A9F90028A1D07E2203AB06A99B
:10057C0016A80095FFF797FD16A904F5237002F055
:10058C0023F916A802F08CF83246009503ABD8E795
:10059C0009490EA802F09DF9002888D010230D22DD
:1005AC0006A916A802F0D2F916A802F0F1F9A4F8DF
:1005BC00D40279E7316B0A083F6B0A0810B5044680
:1005CC008AB0FFF7E3FE94F8BF32012B6FD0022BF9
:1005DC0000F09080002B40F0A380584902A802F054
:1005EC00A9F8574906A802F0A5F804F51F7106A84A
:1005FC0002F02DF9014602A802F016F906A802F045
:10060C004FF8504906A802F095F804F51B7106A89E
:10061C0002F01DF94C4902F026F9014602A802F03D
:10062C0003F906A802F03CF84FF47A7002F008FCCB
:10063C00D4F87C1206A802F0B1F906996846FFF7C7
:10064C0091FD01A8FFF78CFE06A802F029F84FF4E3
:10065C007A7002F0F5FBD4F86C1206A802F09EF941
:10066C0006996846FFF77EFD01A8FFF779FE06A8FC
:10067C0002F016F84FF47A7002F0E2FB029906A829
:10068C0002F08CF906996846FFF76CFD01A8FFF79C
:10069C0067FE06A802F004F894F8BE3202A884F8AB
:1006AC00BF32012384F8BE3201F0FAFF17E027496C
:1006BC0006A802F073F9069902A8FFF753FD03A8E8
:1006CC00FFF74EFE06A801F0EBFF94F8BE32204671
:1006DC0084F8BF32032384F8BE32FFF786FD01F0A5
:1006EC002BFDC4F8B002002084F8C00201F012FF08
:1006FC000AB010BD164906A802F050F9069902A8D6
:10070C00FFF730FD03A8FFF72BFE06A801F0C8FF8A
:10071C0094F8BE3284F8BF32032384F8BE32DEE78D
:10072C000C4906A802F03AF9069902A8FFF71AFD3F
:10073C0003A8FFF715FE06A8B6E700BF4A6B0A0828
:10074C00966B0A08A86B0A08C96B0A08CC6B0A08D6
:10075C00DF6B0A08F76B0A0830B504468BB0FFF75D
:10076C0015FE04F53175B4F8D422494906A802F0F7
:10077C0015F906A9284602F027F806A801F090FF03
:10078C0094F8BF32012B2ED0022B7DD01BB92846FA
:10079C00404902F021F8B4F8D43213B3B3F5D67F44
:1007AC001FD03D4902A801F0C5FF294602A802F05E
:1007BC004EF8016806A802F0F1F806996846FFF7B2
:1007CC00D1FC01A8FFF7CCFD06A801F069FF02A837
:1007DC0001F066FF94F8BE3284F8BF32052384F82A
:1007EC00BE320BB030BDB4F8D432B3F5D67F38D1AD
:1007FC0006A82A4902F0D2F8069902A8FFF7B2FC23
:10080C0003A8FFF7ADFD06A801F04AFF4FF47A707C
:10081C0002F016FBD4F87C1206A802F0BFF8069979
:10082C0002A8FFF79FFC03A8FFF79AFD06A801F0AA
:10083C0037FF4FF47A7002F003FBD4F86C1206A861
:10084C0002F0ACF8069902A8FFF78CFC03A8FFF79E
:10085C0087FD06A801F024FF4FF47A7002F0F0FA3D
:10086C0099E740F29312934204D10D49284601F0C6
:10087C00DFFF90E740F29112934201D10949F5E76D
:10088C00002B88D00849F1E72046FFF759FDF9E71E
:10089C00156C0A08276C0A08AE6C0A08436C0A0827
:1008AC005C6C0A08746C0A08946C0A0830B587B042
:1008BC000546FFF772FC044680B90223094985F806
:1008CC00BE3202A802F06AF868460299FFF74AFCA9
:1008DC0001A8FFF745FD02A801F0E2FE204607B093
:1008EC0030BD00BFBB6C0A0810B504468AB00E4977
:1008FC0002A801F01FFF04F5317102A801F0A7FF57
:10090C00016806A802F04AF806996846FFF72AFC27
:10091C0001A8FFF725FD06A801F0C2FE02A801F010
:10092C00BFFE0AB010BD00BFAE6C0A0838B500237C
:10093C0083608B6804460D462BB102229847EB6806
:10094C00E360AB68A360204638BD0000F0B51F46DD
:10095C00002391B002AD85E8060005AC064695E88B
:10096C00030084E805000C200A93FFF78EFB024677
:10097C0020B194E8030082E803009760134B08A9A8
:10098C000B93134B0CA80A930892FFF7CFFF0E9B07
:10099C004BB900240CA8FFF7F7FB08A8FFF7F4FBF2
:1009AC00204611B0F0BD1020FFF76FFB0446002865
:1009BC00EFD00CA9FFF7BAFF002322463046CDE951
:1009CC000033044901F09EFD0446E3E74F010A0899
:1009DC0011010A089F300A082DE9F04190F8C07205
:1009EC000646884690B0002F4FD10CAC384608AD67
:1009FC0001F090FD204601F075FD2146284601F0DE
:100A0C00D8FE2349284601F02EFF414601F01FFF76
:100A1C000146684601F0CDFE284601F041FE204615
:100A2C0001F03EFE204601F05DFD2146284601F016
:100A3C00C0FE1849284601F016FF414601F007FF99
:100A4C00014604A801F0B5FE284601F029FE204617
:100A5C0001F026FE104B0098CDE90837334695E897
:100A6C000600FFF773FF0D4B0498CDE90C373346A6
:100A7C0094E80600FFF76AFF012304A886F8C03249
:100A8C0001F00EFE684601F00BFE10B0BDE8F081DF
:100A9C00D86C0A08E86C0A08C9050A0865070A0830
:100AAC0010B504468CB08D4904A801F043FE94F8AF
:100ABC00BE32042B00F20381DFE813F005003C008A
:100ACC009300EB00BA00204604F50371FFF784FF96
:100ADC00D4F83C22824908A801F060FF08A904A8B8
:100AEC0001F072FE08A801F0DBFD7E4BD4F80C126D
:100AFC001B78049A8DF8003008A83C2302F0CAFB3E
:100B0C0009A8FFF72DFC784908A801F047FF0899C0
:100B1C0002A8FFF727FB03A8FFF722FC08A801F0A7
:100B2C00BFFD0023C4F8AC3294F8BE3284F8BF3257
:100B3C0004233BE001F000FBB4F8BC22D4F8B8323B
:100B4C0003EB4203834233D201F0F6FAC4F8B80245
:100B5C002046FFF722FB80B3204604F50771FFF710
:100B6C003BFFD4F85C32D4F83C226049009308A8CF
:100B7C00D4F84C3201F012FF08A904A801F024FEAD
:100B8C0008A801F08DFD574B049A1B78D4F81C1261
:100B9C008DF8003008A83C2302F07CFB09A8FFF775
:100BAC00DFFB94F8BE3284F8BF32012384F8BE32E6
:100BBC0004A801F075FD0CB010BD4D4908A801F05A
:100BCC00EDFE089902A8FFF7CDFA03A8FFF7C8FBC2
:100BDC0008A801F065FD94F8BE3284F8BF320523F5
:100BEC00E4E7204604F50B71FFF7F6FED4F84C321F
:100BFC00D4F89C223F49009308A8D4F83C3201F069
:100C0C00CDFE08A904A801F0DFFD08A801F048FDFD
:100C1C00344BD4F82C121B78049A8DF8003008A8A9
:100C2C003C2302F037FB09A8FFF79AFB32496BE72C
:100C3C00324908A801F0B2FE089902A8FFF792FA0F
:100C4C0003A8FFF78DFB08A801F02AFD41F28830BC
:100C5C0002F0F6F8D4F8AC320133062BC4F8AC32FF
:100C6C00A6DD274908A801F099FE089902A8FFF70C
:100C7C0079FA03A8FFF774FB08A801F011FD94F8AA
:100C8C00BF32022B94F8BE3284F8BF32A7D10023B6
:100C9C008CE74FF47A7002F0D3F808A8194901F0E8
:100CAC007DFE089902A8FFF75DFA03A8FFF758FB31
:100CBC0008A801F0F5FC2046FFF7BAFA78E708A877
:100CCC00114901F06BFE089902A8FFF74BFA03A833
:100CDC00FFF746FB08A801F0E3FC69E7CB6B0A08B9
:100CEC00F56C0A0845020020086D0A08206D0A08F8
:100CFC00546D0A08726D0A08AF6D0A08CA6D0A08AD
:100D0C00E66D0A080F6E0A08226E0A080022034BD1
:100D1C001A700122024B1A70704700BF4402002067
:100D2C0045020020022A38B5044607D0032A11D008
:100D3C00012A01D10B682360002038BD0C200D68FE
:100D4C00FFF7A3F903460028F5D095E8070083E8E0
:100D5C000700F0E700680028EED00C2102F0BDFF80
:100D6C00EAE770B4036809685C689D68661005EB77
:100D7C006400E40748BFAC591B68126848BFE358CD
:100D8C0070BC184738B515460446043001F011FD07
:100D9C002B780F4D23750F4B0F49A36104F11C00E9
:100DAC0001F0C8FC294604F12C0001F0C3FC2946D3
:100DBC0004F13C0001F0BEFC294604F16C0001F08A
:100DCC00B9FC00232046236084F8683038BD00BF8E
:100DDC00CB6B0A0800DD6D0040700A08B0F87C008F
:100DEC00C83818BF0120704790F8680070472DE98B
:100DFC00F743044602F00EF8054602F003F80646E7
:100E0C0001F0F4FF074601F0CDFF804601F0D6FF5C
:100E1C00814601F0DFFF43463A46CDE9009031466A
:100E2C002846FFF75AF90B4694F868100246B1B100
:100E3C00D4E91401824273EB01050BDBD4E91601F2
:100E4C00904271EB030507DB121A2266206E03B089
:100E5C00BDE8F083821AF8E700232366F6E74FF427
:100E6C007A72A36993FBF2F3F7E710B504463C31B1
:100E7C0001F09FFC204610BD2DE9F04F0025A3B0DA
:100E8C0004460291ADF81C50ADF81E5001F079FFEC
:100E9C00DFF8D8B10DF11E0602465946C31700956E
:100EAC000AA801F00FFF07AB54220AA90EA800965E
:100EBC00FFF7F9F813210AA801F026FDDFF8B0A11D
:100ECC00024607AB0AA912A80096FFF7ECF80EA988
:100EDC001EA801F06EFC51461EA801F0C4FC014690
:100EEC0016A801F066FCDFF88C911EA801F0D8FB67
:100EFC0012A91EA801F05DFC49461EA801F0B3FC26
:100F0C00014616A801F090FC1EA801F0C9FB01F0E7
:100F1C0081FF074601F076FF804601F067FF0590E0
:100F2C0001F040FF049001F049FF039001F052FFE3
:100F3C00DDE9043203990190009138464146FFF7F0
:100F4C00CCF807460020884601F0FAFD4FF47A737E
:100F5C00A2691EA892FBF3F21146BA1848EBE17392
:100F6C0000955946ADF81C50ADF81E5001F0AAFE84
:100F7C001EA90AA801F028FC1EA801F091FB07ABE2
:100F8C0054220AA91EA80096FFF78DF81EA90EA8D8
:100F9C0001F01AFC1EA801F083FB13210AA801F032
:100FAC00B3FC07AB02460AA91EA80096FFF77BF814
:100FBC001EA912A801F008FC1EA801F071FB0EA9D5
:100FCC001EA801F0F6FB51461EA801F04CFC014690
:100FDC001AA801F0EEFB1EA801F062FB12A91EA8D4
:100FEC0001F0E7FB49461EA801F03DFC01461AA89A
:100FFC0001F01AFC1EA801F053FB94F9140003F045
:10100C001BFB01F09DFD1A9B62680193169B1EA8A9
:10101C000093029B1349D3F88C3201F0BFFC124BA6
:10102C001E9A1B78E1698DF8003008A83C2302F069
:10103C0031F909A8FFF794F91EA801F031FB1AA8A1
:10104C0001F02EFB16A801F02BFB12A801F028FBD7
:10105C000EA801F025FB0AA801F022FB23B0BDE885
:10106C00F08F00BF56700A0847020020AC06002023
:10107C0025790A084F700A0800B5436F89B09BB1F7
:10108C00C16E04A801F08AFC094B049A1B7809492B
:10109C008DF8003002A83C2302F0FCF803A8FFF7FF
:1010AC005FF904A801F0FCFA09B05DF804FB00BF7D
:1010BC0046020020FC6A0A0800232DE9F04F95B087
:1010CC000DF116052D22ADF81430ADF81630009543
:1010DC0005AB0CA80C46FEF7E6FF0CA801F058FC7B
:1010EC0006460CA801F0DCFA214605AB2D22009532
:1010FC000CA8FEF7D8FF0CA801F04AFC07460CA878
:10110C0001F0CEFA214605AB542200950CA8FEF74F
:10111C00CAFF0CA801F03CFC80460CA801F0C0FAF8
:10112C00214605AB3A2200950CA8FEF7BCFF0CA893
:10113C0001F02EFC81460CA801F0B2FA05AB3A2264
:10114C00214600950CA8FEF7AEFF0CA801F020FC80
:10115C0082460CA801F0A4FA1321204601F0D4FB1E
:10116C002146024605AB00950CA8FEF79CFF0CA887
:10117C0001F00EFC04460CA801F092FA4B464246D4
:10118C0039463046CDE900A4FEF7A7FF83460D464D
:10119C003B4632461249CDE902A4CDE900890CA8A0
:1011AC0001F0E8F94FF47A7001F04AFE0CA908A896
:1011BC0001F0F4FB0B4B089A1B780B498DF80030AF
:1011CC0006A83C2302F066F807A8FFF7C9F808A8A0
:1011DC0001F066FA5846294615B0BDE8F08F00BFFD
:1011EC009F700A0846020020FC6A0A08F0B5002627
:1011FC000D469DB01146044604A8ADF80C60ADF840
:10120C000E6001F097FA294608A801F093FA5749A5
:10121C000CA801F08FFA0DF10E05544910A801F03D
:10122C0089FA2F2203AB08A918A80095FEF73BFFFB
:10123C0018A801F035FA08A914A82F22009503ABC1
:10124C00FEF731FF4A4914A8ADF80C60ADF80E60FA
:10125C0001F03FFB002873D0464904A801F039FB8C
:10126C000746A8B184F86860C823A4F87C3014A899
:10127C0001F016FA10A801F013FA0CA801F010FAFC
:10128C0008A801F00DFA04A801F00AFA1DB0F0BD8F
:10129C007E2203AB04A918A80095FEF704FF18A939
:1012AC0004F13C0001F090FA18A801F0F9F97E2243
:1012BC0003AB04A918A80095FEF7F5FE18A90CA815
:1012CC0001F082FA18A801F0EBF97E2203AB04A915
:1012DC0018A80095FEF7E7FE18A910A801F074FAFB
:1012EC0018A801F0DDF903AB3A4604A918A800953B
:1012FC00FEF7D9FE18A904F12C0001F065FA18A824
:10130C0001F0CEF90CA918A801F053FA204618A93F
:10131C00FFF7D2FEC4E9140118A801F0C1F910A915
:10132C0018A801F046FA204618A9FFF7C5FEC4E933
:10133C00160118A801F0B4F9012384F8683093E77A
:10134C000D4914A801F0C5FA002890D010230D22E5
:10135C000DEB030118A801F0F9FA18A801F018FB1D
:10136C00A4F87C0018A801F09BF980E7CB6B0A0865
:10137C00316B0A08B5700A083F6B0A0810B50446B1
:10138C00FFF734FF2368BDE81040184730B504461A
:10139C0085B0FFF72BFF04F16C05B4F87C20684690
:1013AC00104901F0FBFA6946284601F00DFA68462F
:1013BC0001F076F9B4F87C30B3F5C87F07D10A494F
:1013CC00284601F035FA2368984705B030BD40F245
:1013DC009112934201D10549F2E7B3F5CA7FF2D1DC
:1013EC000349EDE7156C0A08B9700A0804710A087C
:1013FC0022710A08F0B51F46002391B002AD85E8B2
:10140C00060005AC064695E8030084E805000C20B0
:10141C000A93FEF73AFE024620B194E8030082E8F4
:10142C0003009760134B08A90B93134B0CA80A935A
:10143C000892FFF77BFA0E9B4BB900240CA8FEF721
:10144C00A3FE08A8FEF7A0FE204611B0F0BD1020A8
:10145C00FEF71BFE04460028EFD00CA9FFF766FA36
:10146C00002322463046CDE90033044901F04AF806
:10147C000446E3E76F0D0A08310D0A089F300A088D
:10148C00F0B5074691B008AD0CAC47F81C1B0646EE
:10149C00284601F027F82946204601F08AF9204613
:1014AC00214901F0E0F9394601F0D1F901466846CD
:1014BC0001F07FF9204601F0F3F8284601F0F0F82E
:1014CC00284601F00FF82946204601F072F9204613
:1014DC00164901F0C8F9394601F0B9F9002701465F
:1014EC0004A801F066F9204601F0DAF8284601F06C
:1014FC00D7F80F4B0997089395E8060033460098E8
:10150C00FFF778FF0B4B0498CDE90C37334694E882
:10151C000600FFF76FFF04A801F0C2F8684601F05F
:10152C00BFF811B0F0BD00BFD86C0A08E86C0A080F
:10153C0089130A0899130A080022034B1A70012216
:10154C00024B1A70704700BF460200204702002071
:10155C0010B504466C3001F0A3F804F13C0001F026
:10156C009FF804F12C0001F09BF804F11C0001F031
:10157C0097F8201D01F094F8204610BD10B50446D4
:10158C0000F5317001F08CF804F5277001F088F843
:10159C0004F5237001F084F804F51F7001F080F855
:1015AC0004F51B7001F07CF804F5177001F078F865
:1015BC0004F5137001F074F804F50F7001F070F875
:1015CC0004F50B7001F06CF804F5077001F068F885
:1015DC0004F5037001F064F8204610BD08B501F065
:1015EC00D7F901220146024800F050FD002008BD49
:1015FC00C802002008B501F0CBF9002201460248D0
:10160C0000F044FD002008BDC802002013B50446BC
:10161C00054B0A461B7805498DF800303C2301F038
:10162C0039FE204602B010BDCC050020FC6A0A0829
:10163C0007B50F4B0F4A1B6812684FF461611344D6
:10164C00181A4FF47A730C4AB0FBF2F2B0FBF3F0B9
:10165C0001FB12003C21B0FBF1F301FB1301074825
:10166C000091074900F086FF03B05DF804FB00BF52
:10167C00100600200C06002080EE36001406002018
:10168C00A8700A0808B5094B1B783BB1012B09D08F
:10169C00BDE808404FF47A7001F0D2BB0448FFF764
:1016AC0023F9F5E70348FFF7E7FCF1E7080600200C
:1016BC00D40200204802002030B589B0044600F066
:1016CC003BFD0546072C1FD8DFE814F0080032005C
:1016DC001E004C00690093009500D400794904A8C1
:1016EC0001F05CF904996846FFF790FF01A8FEF73A
:1016FC0037FE04A800F0D4FF4FF47A72724B1A60D4
:10170C0000F01AFD714B1860714B724A19781C70FD
:10171C0011700222704B00201A7000F0FBFE012C9D
:10172C0040F0B7806D496E48FFF7AAFE09B030BD96
:10173C0004A86C4901F032F904996846FFF766FF7A
:10174C0001A8FEF70DFE04A800F0AAFF4FF47A7270
:10175C005D4B1A6000F0F0FC5C4B18606048FFF7C2
:10176C008BFCD1E7604904A801F018F9049968468C
:10177C00FFF74CFF01A8FEF7F3FD04A800F090FF63
:10178C005A4800F093FC5648FFF731FB4FF47A733C
:10179C005843984238BF18464B4B186013E05449D5
:1017AC0004A801F0FBF804996846FFF72FFF01A885
:1017BC00FEF7D6FD04A800F073FF4C4800F076FC51
:1017CC00414B4C4A1A6000F0B7FC404B186028465D
:1017DC00FFF72EFF04A8484901F0E0F86846049989
:1017EC00FFF714FF01A8FEF7BBFD04A800F058FF9B
:1017FC008AE74249B7E7424904A801F0CFF80499B7
:10180C006846FFF703FF01A8FEF7AAFD04A800F045
:10181C0047FF334904A8FFF728FB04A9334800F01D
:10182C0039FB04A800F03CFF364904A800F082FF05
:10183C0068462B49FFF719FB694604A801F007F825
:10184C000168314800F096FE684600F029FF04A8B4
:10185C0000F026FF2248FFF7CAFA4FF47A7202FB17
:10186C0000F3002BB8BF5B429342B8BF1346164A35
:10187C001360A8E704A8254901F090F8684604997C
:10188C00FFF7C4FE01A8FEF76BFD04A800F008FFEB
:10189C009DE7022C7FF44AAF144800F007FC4FF48C
:1018AC007A7001F0CDFA04A8194901F077F868466E
:1018BC000499FFF7ABFE01A8FEF752FD04A800F057
:1018CC00EFFE33E740710A080C06002010060020DA
:1018DC00E00500200806002001060020591B0A081C
:1018EC004802002059710A0869710A08C8020020D0
:1018FC0078710A0880EE3600140600208E710A08F2
:10190C009D710A08AB710A08E1050020B3710A0841
:10191C00C1710A0808B501F03BF8002802DD01206E
:10192C00FFF7CAFE002008BD08B501F031F8002809
:10193C0005DD0448FEF704FD0020FFF7BDFE002086
:10194C0008BD00BFD402002070B504460E4E0D46F3
:10195C00304600F0ABFB22460C490D4800F00AFE65
:10196C0021463046012200F091FB4EF660235D4388
:10197C00084B1D6000F0E0FB074B1860BDE87040A1
:10198C000720FFF799BE00BFC8020020D3710A08D8
:10199C00E10500200C0600201006002008B500F020
:1019AC00F7FF01460120FFF7CFFF002008BD08B567
:1019BC0000F0EEFF01460220FFF7C6FF002008BD35
:1019CC0008B500F0E5FF01460320FFF7BDFF00203E
:1019DC0008BD000008B50B48FFF762F80948FEF790
:1019EC00F8FB40B1084B1878012818BF0320BDE85C
:1019FC000840FFF761BE0348FEF7F1FB08B1022077
:101A0C00F5E708BDD4020020080600207FB50023AE
:101A1C0004223249324800F045FD002304223149AA
:101A2C00314800F03FFD002302223049304800F0DD
:101A3C0039FD304A3049314801F039FB304A3149DF
:101A4C002E4801F034FB304A30492C4801F02FFB72
:101A5C002F4A3049294801F02AFB2F4A2F492748A1
:101A6C0001F025FB2E4A2F49244801F020FB2E4A79
:101A7C002E49224801F01BFB2D4801F061F82D4B3B
:101A8C002D491A682D4B02A81A6000F087FF0299A5
:101A9C006846FFF7BBFD01A8FEF762FC02A800F048
:101AAC00FFFD2748FEF78FFB70B1264902A800F016
:101ABC0075FF02996846FFF7A9FD01A8FEF750FCD7
:101ACC0002A800F0EDFD0120FFF7F6FD00F034FB5D
:101ADC001D4B186007B05DF804FB00BF1406002016
:101AEC00E4710A08E1050020F3710A0804060020DD
:101AFC0001720A0808720A0821190A0873300A08C8
:101B0C001F720A0835190A0835720A08E9150A08FD
:101B1C0046720A0801160A0858720A08A9190A0816
:101B2C0064720A08BB190A0870720A08CD190A08EF
:101B3C000000E0C0040000207C720A08B0060020FF
:101B4C00D402002088720A081006002000B528482C
:101B5C0089B0FFF743F9002845D12548FFF744F930
:101B6C0028B32348FFF743F900281BDA0620FFF7B8
:101B7C00A3FD2049684600F0DDFD1D4904A8FFF7D0
:101B8C0074F904A9684600F062FE01681A4800F076
:101B9C00F1FC04A800F084FD684600F081FD09B05A
:101BAC005DF804FB0520FFF787FD1449E2E74FF4CD
:101BBC007A7001F045F904A8114900F0EFFE049980
:101BCC006846FFF723FD01A8FEF7CAFB04A800F046
:101BDC0067FD0320FFF770FD0A49074809B05DF85F
:101BEC0004EB03F0DABC0220FFF766FDD7E700BF79
:101BFC0048020020AB710A08E1050020A4720A0813
:101C0C00AE720A08C1720A0810B5134B86B01A7866
:101C1C001C46AAB9114B1B78012B0DD1104902A8F7
:101C2C0000F0BCFE68460299FFF7F0FC01A8FEF735
:101C3C0097FB02A800F034FD0123237006B010BD01
:101C4C00012A04D14FF47A7001F0FAF8F6E7022A6F
:101C5C0004BF00221A70F1E701060020E005002005
:101C6C00C9720A0808B5094B1B783BB90848FEF73E
:101C7C001DFE38B106490748FFF7FEF8BDE80840DD
:101C8C00FFF7C2BFFFF718FDF8E700BF0106002001
:101C9C00D40200204802002070B586B000F0D0FCC1
:101CAC00374B384D186000F047FA0446FFF7C0FC7C
:101CBC002968354A354E914213D93378062B10D109
:101CCC00334902A800F06AFE02996846FFF79EFCB1
:101CDC0001A8FEF745FB02A800F0E2FC0420FFF788
:101CEC00EBFC2C4A296810683378241AA14214465C
:101CFC002BD3022B0BD0033B042B02D8264800F02D
:101D0C0043F94FF47A7001F09BF806B070BD22488D
:101D1C0000F0CCF94FF47A7001F092F802A81F4948
:101D2C0000F03CFE02996846FFF770FC01A8FEF734
:101D3C0017FB02A800F0B4FC194801F081F8FFF77A
:101D4C00A1FC154800F0B2F9D8E7072B07D8DFE85B
:101D5C0003F0040A0614140D1411FFF73BFE00F0F7
:101D6C00EBF92060D1E7FFF77DFFF8E70620FFF7DE
:101D7C00A3FCF4E7084800F099F90120F7E700BF4D
:101D8C00040600200C06002080EE3600E005002042
:101D9C00E3720A0810060020C8020020FB720A0831
:101DAC00A0BB0D0000222DE9F041224B224E234C0A
:101DBC00DFF8B4801A70224F3046224900F0BAFC8A
:101DCC0022464146304601F083FF1F4D38461F49DD
:101DDC0000F0B0FC22464146384601F079FF284617
:101DEC001B4900F0A7FC4146DFF8808022462846BC
:101DFC0001F06EFF3A463146164F174E4046FEF73D
:101E0C0037FA22464046154901F062FF3246294610
:101E1C003846FEF7B7FF22463846114901F058FF05
:101E2C003146104800F0A2F8BDE8F041012000F066
:101E3C008DBA00BFCC050020D00500204002002048
:101E4C00BC0500200E730A08AC05002057730A0865
:101E5C0070730A0848020020A5730A0889150A083D
:101E6C005D150A08C8020020AD260A08D40200201D
:101E7C0013B50446054B0A461B7805498DF800300E
:101E8C003C2301F007FA204602B010BD9406002056
:101E9C00FC6A0A087FB50D4604461749684600F0EF
:101EAC0049FC6946284600F04EFD0646F643684656
:101EBC00F60F00F0F5FB26716846104900F03AFC6D
:101ECC006946284600F03FFD0646F6436846F60F85
:101EDC0000F0E6FB68460A49667100F02BFC694687
:101EEC00284600F030FD05466846ED4300F0D8FB6F
:101EFC00ED0FA57104B070BDA6730A08AA730A0889
:101F0C00AE730A087FB50121042001F049FE0121BE
:101F1C00052001F045FE0121062001F041FE0121C2
:101F2C00072001F03DFE0121042001F04AFE0121B1
:101F3C00052001F046FE0121062001F042FE0121A0
:101F4C00072001F03EFE02A8074900F027FD029988
:101F5C006846FFF78DFF01A8FEF702FA02A800F011
:101F6C009FFB07B05DF804FBB2730A080B7810B541
:101F7C0003700446FFF7C6FF00232046C4E9013373
:101F8C006370638010BD000010B50379427804467D
:101F9C009A4286B0C3711AD04FF47A7000F050FF99
:101FAC00E379002B54D00021042001F00AFE3149C2
:101FBC0002A800F0F3FC02996846FFF759FF01A84C
:101FCC00FEF7CEF902A800F06BFBE379637063793E
:101FDC00A278E3719A421AD04FF47A7000F030FF75
:101FEC00E379002B3AD00021052001F0EAFD2249CB
:101FFC0002A800F0D3FC02996846FFF739FF01A84C
:10200C00FEF7AEF902A800F04BFBE379A370A379BD
:10201C00E278E3719A4219D04FF47A7000F010FF15
:10202C00E3790BB30021062001F0CBFD134902A884
:10203C0000F0B4FC02996846FFF71AFF01A8FEF7FE
:10204C008FF902A800F02CFBE379E37006B010BD09
:10205C000121042001F0B5FD0949A9E70121052062
:10206C0001F0AFFD0749C3E70121062001F0A9FDEE
:10207C000549DCE7C7730A08E0730A08F9730A0814
:10208C00D3730A08EC730A0805740A08032906D8E6
:10209C00DFE801F002040709427182710271FFF757
:1020AC0073BF4271FBE78271F9E7000010B504467B
:1020BC0086B04FF47A7000F0C3FE02A80A4900F013
:1020CC006DFC02996846FFF7D3FE01A8FEF748F9AC
:1020DC0002A800F0E5FA00232046A380A371FFF7C5
:1020EC0053FF06B010BD00BF12740A080022014B4A
:1020FC001A7070479406002008B5024B1B689B6849
:10210C00019308BDB001060808B5024B1B68DB68DB
:10211C00019308BDB001060808B5024B1B681B698A
:10212C00019308BDB001060808B5024B1B685B683B
:10213C00019308BD9C01060808B5024B1B685B693E
:10214C00019308BD9C01060808B5024B1B689B6AED
:10215C00019308BD9C01060808B5024B1B685B6C1B
:10216C00019308BD9C01060808B5024B1B689B6CCB
:10217C00019308BD9C01060808B5024B1B689B6DBA
:10218C00019308BD9C01060808B5024B1B685B6EE9
:10219C00019308BD9C01060808B5024B1B685B6DDA
:1021AC00019308BDB801060808B5024B1B685B6CAF
:1021BC00019308BDD001060808B5024B1B689B6C47
:1021CC00019308BDD001060808B5024B1B689B693A
:1021DC00019308BDC401060808B5024B1B685B6A75
:1021EC00019308BDC401060808B5024B1B689B6A25
:1021FC00019308BDC401060808B5024B1B68DB6AD5
:10220C00019308BDC401060808B5024B1B681B6B83
:10221C00019308BDC401060808B5024B1B685B6B33
:10222C00019308BDC401060808B5024B1B689B6BE3
:10223C00019308BDC401060808B5024B1B681B6C52
:10224C00019308BDC401060808B5024B1B681B6E40
:10225C00019308BDAC01060808B5024B1B685B6E08
:10226C00019308BDAC01060808B5024B1B689B6EB8
:10227C00019308BDAC01060808B5024B1B68DB6E68
:10228C00019308BDAC01060808B5024B1B681B6F17
:10229C00019308BDAC01060808B5024B1B685B6FC7
:1022AC00019308BDAC01060808B5034B1B68D3F8B5
:1022BC008030019308BD0000AC01060808B5024B44
:1022CC001B68DB69019308BDB401060808B5024B15
:1022DC001B681B6A019308BDB401060808B5024BC4
:1022EC001B681B68019308BDD801060808B5024B92
:1022FC001B681B69019308BDD801060808B5024B81
:10230C001B685B69019308BDD801060808B5024B30
:10231C001B689B69019308BDD801060808B5024BE0
:10232C001B68DB69019308BDD801060808B5024B90
:10233C001B681B6A019308BDD801060808B5024B3F
:10234C001B689B6C019308BDC001060808B5024BC5
:10235C001B681B6D019308BDC001060808B5024B34
:10236C001B681B68019308BDA401060808B5024B45
:10237C001B685B68019308BDA401060808B5024BF5
:10238C001B685B69019308BDA401060808B5024BE4
:10239C001B68DB6C019308BDA401060808B5024B51
:1023AC001B685B6D019308BDA401060808B5024BC0
:1023BC001B689B6D019308BDA401060808B5034B6F
:1023CC001B68D3F89030019308BD0000A4010608E7
:1023DC0008B5034B1B68D3F89C30019308BD000073
:1023EC00A401060808B5024B1B685B68019308BD85
:1023FC00C801060808B5024B1B689B68019308BD11
:10240C00C801060808B5024B1B68DB68019308BDC0
:10241C00C801060808B5024B1B681B69019308BD6F
:10242C00C801060808B5024B1B685B69019308BD1F
:10243C00C801060808B5024B1B689B69019308BDCF
:10244C00C801060808B5024B1B68DB69019308BD7F
:10245C00C801060808B5024B1B681B6A019308BD2E
:10246C00C801060808B5024B1B681B6B019308BD1D
:10247C00C801060808B5024B1B685B6B019308BDCD
:10248C00C801060808B5024B1B681B6C019308BDFC
:10249C00C801060808B5024B1B685B6C019308BDAC
:1024AC00C801060808B5024B1B681B68019308BDE0
:1024BC00CC01060808B5024B1B685B68019308BD8C
:1024CC00CC01060808B5024B1B689B68019308BD3C
:1024DC00CC01060808B5024B1B685B69019308BD6B
:1024EC00CC01060808B5024B1B68DB69019308BDDB
:1024FC00CC01060808B5024B1B681B6A019308BD8A
:10250C00CC01060808B5024B1B685B6A019308BD39
:10251C00CC01060808B5024B1B689B6A019308BDE9
:10252C00CC01060808B5024B1B681B6B019308BD58
:10253C00CC01060808B5024B1B68DB6B019308BD88
:10254C00CC01060808B5024B1B681B68019308BD3B
:10255C00A001060808B5024B1B685B68019308BD17
:10256C00A001060808B5024B1B689B68019308BDC7
:10257C00A001060808B5024B1B68DB68019308BD77
:10258C00A001060808B5024B1B681B69019308BD26
:10259C00A001060808B5024B1B689B69019308BD96
:1025AC00A001060808B5024B1B68DB69019308BD46
:1025BC00A001060808B5024B1B681B6A019308BDF5
:1025CC00A001060808B5024B1B685B6A019308BDA5
:1025DC00A001060808B5024B1B68DB6A019308BD15
:1025EC00A001060808B5024B1B681B6B019308BDC4
:1025FC00A001060808B5024B1B685B6C019308BD73
:10260C00A001060870B5002604460D4640F8086F78
:10261C00FFF7CAFD28462570FFF750FE204666607E
:10262C0070BD10B50446006818B1FFF793FF002386
:10263C00236010BD10B50446FFF7F3FF204610BD14
:10264C0010B5202488B022460021684602F0E2FC36
:10265C0000216846ADF80040FFF79EFD019808B0D8
:10266C0010BD00000222002010B5084B084C1A6067
:10267C00084B2060A080A071A360FFF777FE204676
:10268C00BDE81040044A054901F022BBA406002015
:10269C00980600200000FFFF4002002041260A0897
:1026AC0010B504460068FFF755FF204610BD10B565
:1026BC000446006808B1FFF74DFF0023C4E901335D
:1026CC00236010BD38B504460D4600680131FFF794
:1026DC0049FF10B1C4E90005012038BD10B50368ED
:1026EC00044623B143688B4201D3012010BD204620
:1026FC00FFF7E8FF0028F9D0A368002BF5D122687A
:10270C001370F2E770B50E46114604461546FFF7F6
:10271C00E5FF20B92046FFF7CAFF204670BD2A46C8
:10272C0031462068A56002F067FC00212268A3688E
:10273C00D154F2E738B5002304460D46C0E9003306
:10274C008360037339B1084603F0AEFC2946024698
:10275C002046FFF7D7FF204638BD38B50546006840
:10276C000C4668B16A688B689A4207D3096802F014
:10277C0014FFA368AB600023A36038BDFFF7EAFE2B
:10278C0023682B6063686B60A368AB600023C4E9AB
:10279C000033F1E7884210B50B46044604D00968B3
:1027AC0021B19A68FFF7AEFF204610BDFFF77FFFFF
:1027BC00FAE7002310B50446C0E9003383600373C5
:1027CC00FFF7E8FF204610BD884210B5044601D043
:1027DC00FFF7C3FF204610BD38B505460C4649B17E
:1027EC00084603F061FC214602462846FFF78AFFA3
:1027FC00284638BDFFF75BFFFAE770B505460E4675
:10280C0009B9002070BD6AB1846814442146FFF7F1
:10281C0065FF0028F5D02868AB683146184402F0F3
:10282C00BCFEAC600120EDE78A680968FFF7E5BFE4
:10283C0038B505460C46084641B103F035FC214637
:10284C0002462846BDE83840FFF7D7BF38BD10B563
:10285C008A6809680446FFF7D0FF10B92046FFF7D5
:10286C0026FF204610BD38B504460D4621B920463A
:10287C00FFF71DFF204638BD084603F015FC29461E
:10288C0002462046FFF7B9FF0028F0D0F2E70246D7
:10289C0000680B46096858B141B9916851B100788C
:1028AC007047986838B109784842704702F06BBE9F
:1028BC000029F6D10846704708B582688B689A42A1
:1028CC0005D1FFF7E4FFB0FA80F0400908BD002005
:1028DC00FCE708B582683AB921B10878B0FA80F003
:1028EC00400900E0012008BD006809B90078F5E74F
:1028FC0002F049FEF2E783688B4203D9006810B1FD
:10290C00405C704700207047FFF7F5BF10B5836837
:10291C00934206D90468A01802F028FE08B1001BE7
:10292C0010BD4FF0FF30FBE710B58368934207D919
:10293C0004680968A01803F0E4FB08B1001B10BD83
:10294C004FF0FF30FBE70022FFF7EEBFF8B51D4656
:10295C009A4288BF13460F46144688BF2C460B4933
:10296C0088BF1D460646FFF7E5FEBA68A2420AD3A9
:10297C003968AA4294BFC4EB0202C4EB050230468C
:10298C002144FFF7BFFE3046F8BD00BFCB6B0A08F1
:10299C00006808B102F028BA704700000EB4FFB509
:1029AC0009AD55F8047B04462B463A46052102A88E
:1029BC000195FFF707FE06460B492046FFF7BAFEC6
:1029CC0031462046FFF78AFE206830B12B463A4646
:1029DC00711C0195FFF7F6FDA060204604B0BDE820
:1029EC00F04003B0704700BFCB6B0A08F8B5064641
:1029FC000D4600248F18BD420CD0336830469B68BE
:102A0C0015F8011B9847031E01DB1C44F3E7002C4F
:102A1C0008BF1C462046F8BD70B505460C46084656
:102A2C0049B103F041FB2B68024621462846BDE81C
:102A3C007040DB68184770BD03689B68184700231B
:102A4C00012A98BF0A2230B58BB00C468DF8243081
:102A5C0009A92546B4FBF2F404FB1253DBB2092B93
:102A6C0094BF30333733DBB2AA4201F8013DF0D9C1
:102A7C00FFF7D2FF0BB030BD002340681A46194651
:102A8C00FFF7D0BC0B68036013B15A6801325A606F
:102A9C0070470000014B024A1A607047A8060020DC
:102AAC0025740A082DE9F041154ADFF86080D2E957
:102ABC000032C01842EB0101124A8CB0D2E900324C
:102ACC00C61841EB0207D8E90023BB4208BFB2424B
:102ADC0013D003A96846CDE9006702F097F9089B6B
:102AEC00094D03F26C7303AC08930FCC0FC50FCCDC
:102AFC000FC5C8E9006723682B600CB0BDE8F081F6
:102B0C00E0060020D8060020B4060020E8060020CD
:102B1C0008B50020FFF706FD28B1FFF7DBFC80F0BD
:102B2C000100C0B208BD0120FCE7000008B5FFF7AA
:102B3C00B9FF024B1869013008BD00BFB406002074
:102B4C0010B50A49044601F069FF68B920460849E6
:102B5C0001F082FF40B90749204601F0C1FD01F0A8
:102B6C0085FF054BC3E9000110BD00BF000040C14B
:102B7C000000604100006145E006002030B50446CD
:102B8C00184893B0D0E90010521840EB03031648D4
:102B9C000025D0E90010521840EB0303CDE90023C7
:102BAC00242200210DEB020002F034FA09A9684638
:102BBC0002F02CF91622294603A8029502F02AFAF3
:102BCC0002A909A802F0EAF802A803F06DFA12AB08
:102BDC00184400F8415C02A92046FFF7ABFD2046E3
:102BEC0013B030BDE0060020D80600202DE9F04FD0
:102BFC00A5B00746884614A811463F221D4603F08F
:102C0C006DFA002314A88DF88F3003F04DFA0446AA
:102C1C005DBB2A4903A802F0C0FC002514AE04F1E8
:102C2C00FF3BAB4536D9B14619F8013B05F1010A1A
:102C3C00252B17D173787A2B14D103A803F034FA0F
:102C4C00044614AB28181844ABEB0502B11C02F077
:102C5C00D3F9224603A9304602F0CEF914A803F0AA
:102C6C0023FA04464E465546D9E73C2195FBF1F331
:102C7C00002BB8BF5B42B3FBF1F201FB12330093A4
:102C8C004FF46163102195FBF3F30D4A03A8FFF792
:102C9C0089FCC2E700212E2208A8079102F0BAF99C
:102CAC00434614AA322107A803F0F4F9384607A9C1
:102CBC00FFF740FD384625B0BDE8F08F21790A08B2
:102CCC0029740A08F0B58DB0129D0446CDE9002395
:102CDC0015B9194B1D682DB1184B2846196802F00F
:102CEC0052FC38B9DDE900232046FFF747FF2046A8
:102CFC000DB0F0BD0099124E124FD6E900325B18A0
:102D0C00019941EB0202D7E900011B1841EB0202C9
:102D1C00CDE900320021242203A802F07BF903A99B
:102D2C00684602F073F832683B682046134403A9E6
:102D3C002A46FFF75BFFDAE7B00600200000002010
:102D4C00E0060020D806002010B50020FFF714FA8A
:102D5C000446A0B9FFF702FB012810D12046FFF76B
:102D6C0025FB60B9FFF7D4FE10B9FFF7ABFBF9E711
:102D7C00FFF7CEFEBDE810400020FFF7FDB920465E
:102D8C0010BD1FB5FFF7E0FF10220021684602F0CE
:102D9C0041F900216846FFF7F7F9009805B05DF896
:102DAC0004FB000008B5FFF7ECFFC117FFF77AFE34
:102DBC00014B986808BD00BFB406002008B5FFF7AA
:102DCC00E0FFC117FFF76EFE014B586808BD00BF4E
:102DDC00B406002008B5FFF7D4FFC117FFF762FE59
:102DEC00014B186808BD00BFB406002008B5FFF7FA
:102DFC00C8FFC117FFF756FE014BD86808BD00BFCE
:102E0C00B406002008B5FFF7BCFFBDE80840C117A9
:102E1C00FFF78CBE08B5FFF7B4FFC117FFF742FEF2
:102E2C00014B586908BD00BFB4060020024B1A685C
:102E3C00024B1A60704700BF00000020B006002053
:102E4C000021FFF79BBA10B50446FDF79DF920460B
:102E5C0010BD13B56C460B46024603C884E803004C
:102E6C0093E8030082E8030094E8030083E803007E
:102E7C0002B010BD00230348034A0449836000F0EC
:102E8C0027BF00BFF006002040020020532E0A0886
:102E9C00014B1860704700BF0800002008B5134BA9
:102EAC0043B100F029FC03681B699847002801DD39
:102EBC00AFF300800E4B43B100F0C8FC03681B69F4
:102ECC009847002801DDAFF300800A4B0BB1AFF33C
:102EDC000080094B43B100F03FFC03681B69984725
:102EEC00002801DDAFF3008008BD00BF000000002A
:102EFC0000000000000000000000000008B5FFF713
:102F0C00CDFFFFF719F9014B186008BD78070020B9
:102F1C000248034A0349121A02F06EB800400240FC
:102F2C0004400240A87A0A08002307B51A466FF03D
:102F3C0077010093FFF74CFA03B05DF804FB000037
:102F4C0007B543880A2B08D0502B0BD1094B1B68B3
:102F5C004BB103B05DF804EB1847FFF7E5FF03B086
:102F6C005DF804FB00231A466FF077010093FFF71E
:102F7C002FFAF4E70407002038B5124C0021124850
:102F8C00FFF738FB114D2368AB420CBF0122002226
:102F9C000F4B1A7002D0FFF7BBFF2560FFF7C4F888
:102FAC00044602F0BFFA0B4B13B12046AFF300807E
:102FBC0000210848FFF7BEFABDE83840002106485A
:102FCC00FFF7FCB9004002409D2E0A081E1C279AF0
:102FDC0000070020000000004D2F0A087047002059
:102FEC00704710B50446102100F077FE204610BD46
:102FFC0008B5FFF7F6FF08BD002230B54FF69C74FC
:10300C00026084808D888C800C68858004600A60E6
:10301C0030BD10B504460068FFF79CFA204610BD81
:10302C0038B5C468F4B12378022B03D104F10C0039
:10303C00FFF7EFFF656835B12846FDF7A5F81021BD
:10304C00284600F04AFEA56835B12846FDF79CF8E5
:10305C001021284600F041FE2046BDE838401421DE
:10306C0000F03BBE38BD10B588B004466846FFF78B
:10307C0061FB694604A8FFF79CFB04A8A047044623
:10308C0004A8FFF70DFB6846FFF70AFB204608B0C3
:10309C0010BD07B5CDE9001282680AB900F021FE17
:1030AC006946C36801AA984703B05DF804FB1FB5D5
:1030BC0000231024CDE90201019269461A461846F4
:1030CC00ADF80230ADF80040FFF7F4F904B010BDD4
:1030DC0073B50E46044656F8043B0D4601A831461E
:1030EC000093FFF7CFFC009B019A236000236260E2
:1030FC0001A801930093FDF733F93046FDF730F941
:10310C002846082100F0E9FD204602B070BD826817
:10311C0010B50AB900F0E5FDC368BDE810401847CA
:10312C0008B5006800F11001FFF7F1FF08BD8268D7
:10313C0010B50AB900F0D5FDC368BDE810401847BA
:10314C0008B5006800F11001FFF7F1FF08BD0000A1
:10315C0038B500230446036010200D46FCF795FF9C
:10316C0028B10123C0E90133024BC5600360206024
:10317C00204638BD58740A0838B5002383608B6824
:10318C0004460D462BB102229847EB68E360AB680E
:10319C00A360204638BD0000F0B589B004686846CD
:1031AC00FFF72AFF4FF00203D4E84F2F002A03D178
:1031BC00C4E8413F0029F7D125D104F10C0569463B
:1031CC002846FFF719FF0123BFF35B8F63700020C4
:1031DC00BFF35B8F04F1080353E8006F43E8000270
:1031EC00002AF9D1BFF35B8F6EB1FFF7CFF878B13E
:1031FC0029463046FFF78BFF3046FCF7C5FF102100
:10320C00304600F06AFD6846FFF703FF09B0F0BDD9
:10321C00314602A8FFF7B0FFE068B4F9105008B1CE
:10322C0002F0C4F906901020ADF81C50FCF72DFFED
:10323C000546E8B1002787601820FCF726FF0446F6
:10324C0088B10146876002A8FFF703FE049BA268C1
:10325C00A360059B0492E26806A9E36004F11000E8
:10326C000592FFF7C9FE084B2C60EB60074BAB6077
:10327C0006A8FFF7CEFE02A8FCF786FF002229461F
:10328C000348FFF78BF8B7E72D310A08C5330A0856
:10329C00DD380A082DE9F0478AB005460C4617467A
:1032AC0098469DF84890FFF715F907AE824638BB53
:1032BC004FF62E73059005A93046ADF81830FFF780
:1032CC009BFE1420FCF7E1FE044648B10223037078
:1032DC000123C0E901AA437031460C30FFF78CFE84
:1032EC002846214640F8044BFFF732FF3046FFF7E3
:1032FC0090FE05A8FFF78DFE28460AB0BDE8F087C2
:10330C000C234FF0000A1420CDE908AA0793FCF710
:10331C00BCFE014628B1C0E901AA80F800A080F8E3
:10332C0001A004A80391FFF713FF224B0820089378
:10333C00FCF7ABFE824628B1039B04A940F8043B82
:10334C00FFF7A0FB42463946204600965FFA89F308
:10335C00CDF824A0FFF7CEF8B8B9039B5B7803F047
:10336C00FF0293B94FF69C7305A903A80592ADF81B
:10337C001830FFF711FF05A8FFF74BFE05A80999B8
:10338C00FFF7A6FE06A8FCF7EBFF039B04A906A813
:10339C000593FFF777FB059B069A2B6000236A6069
:1033AC0006A806930593FCF7DBFF04A8FCF7D8FFEF
:1033BC00A2E700BF89340A08022AF8B5054607D0EF
:1033CC00032A18D0012A01D10B6803600020F8BD34
:1033DC0018200E68FCF759FE044650B13146FFF731
:1033EC00CBFE3069B6F9147008B102F0DFF8206139
:1033FC00A7822C60EAE70468002CE7D004F11000E7
:10340C00FFF707FE2046FCF7BFFE1821204600F010
:10341C0064FCDBE738B5002383608B6804460D46FB
:10342C002BB102229847EB68E360AB68A36020469F
:10343C0038BD022A70B5044607D0032A12D0012ADF
:10344C0001D10B680360002070BD14200E68FCF7DE
:10345C001CFE054620B13146FFF7DCFF337C2B7494
:10346C002560F0E70468002CEDD02046FCF78CFEBC
:10347C001421204600F031FCE5E70000F0B50446CD
:10348C0089B00D4601A81146FFF722FEA4B124B263
:10349C001DB1284602F08AF8054601A803A9039538
:1034AC00ADF81040FFF778FE03A8FFF7B2FD02A8B5
:1034BC00FCF756FF09B0F0BD0123019DD5E84F2F55
:1034CC00002A03D1C5E8413F0029F7D1EFD12B7376
:1034DC00BFF35B8F6B70BFF35B8F2B1D53E8006FDB
:1034EC0043E80042002AF9D1BFF35B8F002EDED0F7
:1034FC002046FEF74BFF074660B1304605F10C0144
:10350C00FFF715FE3046FCF73FFE1021304600F069
:10351C00E4FBCCE7314603A8FFF77CFF2B7B1020A4
:10352C008DF81C30FCF7B1FD0546D0B18760142036
:10353C00FCF7ABFD044678B10146876003A8FFF7A2
:10354C0088FC059BA268A360069B0592E268E36079
:10355C009DF81C3006922374064B2C60EB60064BD6
:10356C00AB6003A8FCF710FE002229460348FEF7C7
:10357C0015FFC7E74D310A083F340A08DD380A0841
:10358C007047F8B50E46002400F10807051D17F822
:10359C00011D0A223046FFF752FAAF42044401D112
:1035AC002046F8BD002CF2D02E213046FFF744FA0D
:1035BC000444ECE710B50446182100F08EFB2046BD
:1035CC0010BD000010B50446044B1122002140F838
:1035DC00043B01F01FFD204610BD00BF74740A08A7
:1035EC000346074A10B543F8042B01F1100251F8B9
:1035FC00044B914243F8044BF9D10A781A7010BD70
:10360C0074740A08024AC0E900210422027570474A
:10361C0074740A0810B59DF8084044EA0324042386
:10362C0044EA024444EA01644460037510BD00009E
:10363C0037B5044D05609DF818500095FFF7EAFF6B
:10364C0003B030BD74740A0841747047704708B5F4
:10365C000021007CFEF75AFE40EAE07008BD08B578
:10366C000121007CFEF752FE40EAE07008BD08B56F
:10367C00007CFEF743FE20EAE07008BD08B5007C34
:10368C00FEF734FE20EAE07008BD38B50446007C35
:10369C000D46FEF733FE002801DC607C28B129467C
:1036AC00207CFEF73BFE20EAE07038BD007CFEF784
:1036BC003DBE10B50446142100F00FFB204610BD92
:1036CC0010B54FF47A73044608460021C4E901137F
:1036DC00044B20742360012311466374FEF7FEFD36
:1036EC00204610BD88740A0810B504461422002127
:1036FC0001F090FC204610BD30B50F4D87B001A8ED
:10370C00FFF7F2FF2978BFF35B8F11F0010410D1A2
:10371C002846FCF7C0FC60B1214601AA0748FFF718
:10372C00CFFF2846FCF7BCFC054A0649034800F0CD
:10373C00CFFA024807B030BD080700201007002060
:10374C004002002059360A0810B504461422002104
:10375C0001F060FC204610BD10B50F4C86B001A8DE
:10376C00FFF7F2FF2378BFF35B8FDB0710D4204603
:10377C00FCF791FC60B1012101AA0848FFF7A0FFFA
:10378C002046FCF78DFC064A0649044800F0A0FAD6
:10379C00024806B010BD00BF0C0700202407002013
:1037AC004002002059360A0870474174704708B52A
:1037BC00007CFEF741FD20EAE07008BD08B5007CF6
:1037CC00FEF712FD20EAE07008BD08B5007CFEF79C
:1037DC001BFD40EAE07008BD08B5007CFEF70CFD4F
:1037EC0040EAE07008BD007CFEF716BD70B5467C63
:1037FC0004460D462EB12946207CBDE87040FEF7EC
:10380C00EBBC007CFEF718FD0028F4DC304670BDE4
:10381C0010B50446142100F060FA204610BD0000DB
:10382C004FF0000C10B50446084611464FF47A725E
:10383C00C4E901C2044A20742260012262741A464F
:10384C00FEF7C2FC204610BDB8740A08F8B51A4C35
:10385C0026684EB98420FCF718FC054618B1842262
:10386C00314601F0D7FB2560144D2F684FB98420E9
:10387C00FCF70BFC064618B18422394601F0CAFB52
:10388C002E600F4F3978BFF35B8F11F0010611D109
:10389C003846FCF700FC68B1314622682B680948B1
:1038AC00FFF7BEFF3846FCF7FBFB074A0749054804
:1038BC0000F00EFA0348F8BD3C070020400700203A
:1038CC00380700204407002040020020B5370A08C2
:1038DC0010B5836804460BB900F003FAC368984727
:1038EC00A3681BB103222146204698472046BDE819
:1038FC001040102100F0F1B97047F8B50646154696
:10390C000C468F18BC4206D0336830469B6814F8BE
:10391C00011B9847F6E72846F8BD0022007CFEF70D
:10392C0093BC0021007CFEF797BC0021007CFEF7C5
:10393C009BBC0021007CFEF79FBC0021007CFEF7A5
:10394C00A3BC10B50446142100F0C7F9204610BDE5
:10395C0010B54FF47A73044608460021C4E90113EC
:10396C00034B114623602074FEF79EFC204610BDCD
:10397C00E8740A08002240681146FEF74BBDF0B50A
:10398C00154689B011220E460446002103A801F009
:10399C0041FB284602F088FB002781B27368284659
:1039AC00009703AAFEF7CAFC30B139462046FFF750
:1039BC0029FE204609B0F0BD204603A9FFF710FEF2
:1039CC00F7E7002240681146FEF744BD002240682C
:1039DC001146FEF74FBD00224068FEF743BD0022A2
:1039EC00406881F00101FEF72DBD002340681A46A6
:1039FC001946FEF71FBD002240681146FEF7FABCBF
:103A0C00002202214068FEF7FDBC002340681A46E4
:103A1C00FEF7E8BC0422024B5A60024A1A60704757
:103A2C005807002010750A08002340681A46FEF754
:103A3C00D9BC002202214068FEF7E4BC0022406899
:103A4C001146FEF7D7BC002240681146FEF7E2BCD7
:103A5C00002340681A461946FEF7E4BC0023406870
:103A6C001A461946FEF7E6BC00214068FEF70ABD6F
:103A7C0000214068FEF70EBD0022406881F0010174
:103A8C00FEF7E0BC00224068FEF7ECBC0022406868
:103A9C001146FEF7EFBC002240681146FEF7DABC77
:103AAC0070B515468EB0044608A8FFF78BFD1122A1
:103ABC00002103A801F0AEFA0026284602F0F4FA21
:103ACC000A4B009681B25B68284603AAFEF736FCC7
:103ADC0030B131462046FFF795FD20460EB070BD43
:103AEC00204603A9FFF77CFDF7E700BF580700202D
:103AFC00024B034A1A6000225A607047600700208C
:103B0C004C750A0810B50446806808B1FEF754FBE2
:103B1C00204610BD172870B5044601D9002070BD91
:103B2C00A0F10D03022B0BD9012826D800F0A8F820
:103B3C000021007CFEF7B0FB80F00100C0B2EEE784
:103B4C00134E3178BFF35B8F11F001050FD1304666
:103B5C00FCF7A1FA58B129460E48FEF753FD304642
:103B6C00FCF79EFA0C4A0D490A4800F0B1F8094BD3
:103B7C001878FEF7ABFB0028D0D1123C012C05D8ED
:103B8C00FFF764FE007CFEF74FFBD5E70120C6E78C
:103B9C00680700206C07002040020020113B0A0837
:103BAC00172838B504460D460AD8FF2908D0FFF768
:103BBC00B1FF28B129462046BDE83840FEF79CBA33
:103BCC0038BD38B504460D46FEF79EFAFF2810D0D6
:103BDC00062804D84D2323FA00F0C30709D4204645
:103BEC00FFF798FF28B129462046BDE83840FEF77C
:103BFC0093BA38BD10B5084C2378BFF35B8FDB0745
:103C0C0008D42046FCF747FA20B1FEF79DFA20466F
:103C1C00FCF746FA014810BD7C0700208007002005
:103C2C00002313B5074C1A46194620460093FFF79C
:103C3C00FFFC2046044A054902B0BDE8104000F0E4
:103C4C0047B800BF84070020400200208D350A08C9
:103C5C00002370B5202543801423084E04460380AE
:103C6C00314685600561284600F039F831466060C0
:103C7C00284600F034F8E060204670BD80750A08D4
:103C8C0030B50F4D87B02978BFF35B8F11F001046D
:103C9C0013D12846FCF7FFF978B101A8FFF7D8FF3C
:103CAC00214601AA0748FFF753FE2846FCF7F8F90E
:103CBC00054A0649034800F00BF8024807B030BD2E
:103CCC009C070020A00700204002002005390A08AC
:103CDC000B460146184601F08BB8FCF7DAB9FCF735
:103CEC00D6B908B5FEF776FC81F0004102E000BFC2
:103CFC0083F0004330B54FEA41044FEA430594EAA0
:103D0C00050F08BF90EA020F1FBF54EA000C55EADA
:103D1C00020C7FEA645C7FEA655C00F0E2804FEAAB
:103D2C005454D4EB5555B8BF6D420CDD2C4480EA8D
:103D3C00020281EA030382EA000083EA010180EABD
:103D4C00020281EA0303362D88BF30BD11F0004F0B
:103D5C004FEA01314FF4801C4CEA113102D0404241
:103D6C0061EB410113F0004F4FEA03334CEA13337C
:103D7C0002D0524263EB430394EA050F00F0A78094
:103D8C00A4F10104D5F1200E0DDB02FA0EFC22FA8F
:103D9C0005F2801841F1000103FA0EF2801843FA83
:103DAC0005F359410EE0A5F120050EF1200E012A74
:103DBC0003FA0EFC28BF4CF0020C43FA05F3C018B2
:103DCC0051EBE37101F0004507D54FF0000EDCF12B
:103DDC00000C7EEB00006EEB0101B1F5801F1BD3D4
:103DEC00B1F5001F0CD349085FEA30004FEA3C0CD8
:103DFC0004F101044FEA445212F5800F80F09A80CE
:103E0C00BCF1004F08BF5FEA500C50F1000041EBD1
:103E1C00045141EA050130BD5FEA4C0C404141EBD5
:103E2C000101013C28BFB1F5801FE9D291F0000FD0
:103E3C0004BF01460020B1FA81F308BF2033A3F17F
:103E4C000B03B3F120020CDA0C3208DD02F1140C76
:103E5C00C2F10C0201FA0CF021FA02F10CE002F1B1
:103E6C001402D8BFC2F1200C01FA02F120FA0CFCAA
:103E7C00DCBF41EA0C019040E41AA2BF01EB0451F3
:103E8C00294330BD6FEA04041F3C1CDA0C340EDCF1
:103E9C0004F11404C4F1200220FA04F001FA02F334
:103EAC0040EA030021FA04F345EA030130BDC4F1F2
:103EBC000C04C4F1200220FA02F001FA04F340EAE7
:103ECC000300294630BD21FA04F0294630BD94F098
:103EDC00000F83F4801306BF81F480110134013D7F
:103EEC004EE77FEA645C18BF7FEA655C29D094EAF0
:103EFC00050F08BF90EA020F05D054EA000C04BF6E
:103F0C001946104630BD91EA030F1EBF0021002058
:103F1C0030BD5FEA545C05D14000494128BF41F0F7
:103F2C00004130BD14F580043CBF01F5801130BD5B
:103F3C0001F0004545F0FE4141F470014FF00000E6
:103F4C0030BD7FEA645C1ABF194610467FEA655C97
:103F5C001CBF0B46024650EA013406BF52EA033539
:103F6C0091EA030F41F4002130BD00BF90F0000F27
:103F7C0004BF0021704730B54FF4806404F1320463
:103F8C004FF000054FF0000150E700BF90F0000F1C
:103F9C0004BF0021704730B54FF4806404F1320443
:103FAC0010F0004548BF40424FF000013EE700BF13
:103FBC0042004FEAE2014FEA31014FEA02701FBFA3
:103FCC0012F07F4393F07F4F81F06051704732F0D5
:103FDC007F4208BF704793F07F4F04BF41F400212C
:103FEC00704730B54FF4607401F0004521F000418A
:103FFC001CE700BF50EA010208BF704730B54FF014
:10400C0000050AE050EA010208BF704730B511F014
:10401C00004502D5404261EB41014FF4806404F14C
:10402C0032045FEA915C3FF4D8AE4FF003025FEAD2
:10403C00DC0C18BF03325FEADC0C18BF033202EB56
:10404C00DC02C2F1200300FA03FC20FA02F001FAB0
:10405C0003FE40EA0E0021FA02F11444BDE600BF53
:10406C0070B54FF0FF0C4CF4E06C1CEA11541DBF02
:10407C001CEA135594EA0C0F95EA0C0F00F0DEF8CD
:10408C002C4481EA030621EA4C5123EA4C5350EAB2
:10409C00013518BF52EA033541F4801143F4801303
:1040AC0038D0A0FB02CE4FF00005E1FB02E506F094
:1040BC000042E0FB03E54FF00006E1FB03569CF0E9
:1040CC00000F18BF4EF0010EA4F1FF04B6F5007FEF
:1040DC0064F5407404D25FEA4E0E6D4146EB060661
:1040EC0042EAC62141EA55514FEAC52040EA5E50EA
:1040FC004FEACE2EB4F1FD0C88BFBCF5E06F1ED894
:10410C00BEF1004F08BF5FEA500E50F1000041EBCA
:10411C00045170BD06F0004646EA010140EA020077
:10412C0081EA0301B4EB5C04C2BFD4EB0C0541EA99
:10413C00045170BD41F480114FF0000E013C00F3AE
:10414C00AB8014F1360FDEBF002001F0004170BDD2
:10415C00C4F10004203C35DA0C341BDC04F11404EB
:10416C00C4F1200500FA05F320FA04F001FA05F277
:10417C0040EA020001F0004221F0004110EBD37044
:10418C0021FA04F642EB06015EEA430E08BF20EA70
:10419C00D37070BDC4F10C04C4F1200500FA04F313
:1041AC0020FA05F001FA04F240EA020001F00041A5
:1041BC0010EBD37041F100015EEA430E08BF20EA18
:1041CC00D37070BDC4F1200500FA05F24EEA020E60
:1041DC0020FA04F301FA05F243EA020321FA04F08F
:1041EC0001F0004121FA04F220EA020000EBD37046
:1041FC005EEA430E08BF20EAD37070BD94F0000F46
:10420C000FD101F00046400041EB010111F4801F79
:10421C0008BF013CF7D041EA060195F0000F18BF2A
:10422C00704703F00046520043EB030313F4801F66
:10423C0008BF013DF7D043EA0603704794EA0C0F20
:10424C000CEA135518BF95EA0C0F0CD050EA410636
:10425C0018BF52EA4306D1D181EA030101F00041B3
:10426C004FF0000070BD50EA410606BF10461946DB
:10427C0052EA430619D094EA0C0F02D150EA0136E7
:10428C0013D195EA0C0F05D152EA03361CBF104628
:10429C0019460AD181EA030101F0004141F0FE41C7
:1042AC0041F470014FF0000070BD41F0FE4141F44B
:1042BC00780170BD70B54FF0FF0C4CF4E06C1CEA4B
:1042CC0011541DBF1CEA135594EA0C0F95EA0C0F00
:1042DC0000F0A7F8A4EB050481EA030E52EA0335BB
:1042EC004FEA013100F088804FEA03334FF08055DC
:1042FC0045EA131343EA12634FEA022245EA111509
:10430C0045EA10654FEA00260EF000419D4208BFB9
:10431C00964244F1FD0404F5407402D25B084FEA66
:10432C003202B61A65EB03055B084FEA32024FF412
:10433C0080104FF4002CB6EB020E75EB030E22BF6F
:10434C00B61A754640EA0C005B084FEA3202B6EB2F
:10435C00020E75EB030E22BFB61A754640EA5C00DE
:10436C005B084FEA3202B6EB020E75EB030E22BF6E
:10437C00B61A754640EA9C005B084FEA3202B6EB6F
:10438C00020E75EB030E22BFB61A754640EADC002E
:10439C0055EA060E18D04FEA051545EA16754FEA90
:1043AC0006164FEAC30343EA52734FEAC2025FEAAE
:1043BC001C1CC0D111F4801F0BD141EA00014FF03D
:1043CC0000004FF0004CB6E711F4801F04BF01430E
:1043DC000020B4F1FD0C88BFBCF5E06F3FF6AFAE2A
:1043EC00B5EB030C04BFB6EB020C5FEA500C50F1BA
:1043FC00000041EB045170BD0EF0004E4EEA11313D
:10440C0014EB5C04C2BFD4EB0C0541EA045170BD43
:10441C0041F480114FF0000E013C90E645EA060E87
:10442C008DE60CEA135594EA0C0F08BF95EA0C0FB5
:10443C003FF43BAF94EA0C0F0AD150EA01347FF4FD
:10444C0034AF95EA0C0F7FF425AF104619462CE7D4
:10445C0095EA0C0F06D152EA03353FF4FDAE104637
:10446C00194622E750EA410618BF52EA43067FF488
:10447C00C5AE50EA41047FF40DAF52EA43057FF418
:10448C00EBAE12E74A0011D212F5001211D20DD583
:10449C006FF47873B3EB62520ED44FEAC12343F03E
:1044AC00004343EA505323FA02F070474FF00000E8
:1044BC00704750EA013002D14FF0FF3070474FF097
:1044CC000000704780F0004002E000BF81F0004126
:1044DC0042001FBF5FEA410392EA030F7FEA226C9E
:1044EC007FEA236C6AD04FEA1262D2EB1363C1BF2E
:1044FC00D218414048404140B8BF5B42192B88BF9D
:10450C00704710F0004F40F4000020F07F4018BFBF
:10451C00404211F0004F41F4000121F07F4118BFDF
:10452C00494292EA030F3FD0A2F1010241FA03FC87
:10453C0010EB0C00C3F1200301FA03F100F000436F
:10454C0002D5494260EB4000B0F5000F13D3B0F137
:10455C00807F06D340084FEA310102F10102FE2AA6
:10456C0051D2B1F1004F40EBC25008BF20F0010016
:10457C0040EA03007047490040EB0000013A28BFB5
:10458C00B0F5000FEDD2B0FA80FCACF1080CB2EB38
:10459C000C0200FA0CF0AABF00EBC25052421843B6
:1045AC00BCBFD0401843704792F0000F81F400015B
:1045BC0006BF80F400000132013BB5E74FEA41032E
:1045CC007FEA226C18BF7FEA236C21D092EA030F9A
:1045DC0004D092F0000F08BF0846704790EA010F14
:1045EC001CBF0020704712F07F4F04D1400028BF41
:1045FC0040F00040704712F100723CBF00F5000023
:10460C00704700F0004343F0FE4040F40000704758
:10461C007FEA226216BF08467FEA23630146420204
:10462C0006BF5FEA412390EA010F40F48000704717
:10463C004FF0000304E000BF10F0004348BF4042BD
:10464C005FEA000C08BF704743F0964301464FF0F9
:10465C0000001CE050EA010208BF70474FF0000355
:10466C000AE000BF50EA010208BF704711F0004396
:10467C0002D5404261EB41015FEA010C02BF844666
:10468C000146002043F0B64308BFA3F18053A3F5C5
:10469C000003BCFA8CF2083AA3EBC25310DB01FA0C
:1046AC0002FC634400FA02FCC2F12002BCF1004F90
:1046BC0020FA02F243EB020008BF20F00100704721
:1046CC0002F1200201FA02FCC2F1200250EA4C0075
:1046DC0021FA02F243EB020008BF20EADC707047BB
:1046EC004FF0FF0C1CEAD0521EBF1CEAD15392EAC9
:1046FC000C0F93EA0C0F6FD01A4480EA010C4002A5
:10470C0018BF5FEA41211ED04FF0006343EA5010FE
:10471C0043EA5111A0FB01310CF00040B1F5000F40
:10472C003EBF490041EAD3715B0040EA010062F1EF
:10473C007F02FD2A1DD8B3F1004F40EBC25008BFD9
:10474C0020F00100704790F0000F0CF0004C08BFF7
:10475C0049024CEA502040EA51207F3AC2BFD2F1C4
:10476C00FF0340EAC250704740F400004FF00003D2
:10477C00013A5DDC12F1190FDCBF00F0004070470C
:10478C00C2F10002410021FA02F1C2F1200200FA4A
:10479C0002FC5FEA310040F1000053EA4C0308BF11
:1047AC0020EADC70704792F0000F00F0004C02BF62
:1047BC00400010F4000F013AF9D040EA0C0093F0DD
:1047CC00000F01F0004C02BF490011F4000F013B37
:1047DC00F9D041EA0C018FE70CEAD15392EA0C0FA5
:1047EC0018BF93EA0C0F0AD030F0004C18BF31F010
:1047FC00004CD8D180EA010000F00040704790F0E6
:10480C00000F17BF90F0004F084691F0000F91F089
:10481C00004F14D092EA0C0F01D142020FD193EA4F
:10482C000C0F03D14B0218BF084608D180EA0100D7
:10483C0000F0004040F0FE4040F40000704740F0B3
:10484C00FE4040F4400070474FF0FF0C1CEAD05281
:10485C001EBF1CEAD15392EA0C0F93EA0C0F69D0DD
:10486C00A2EB030280EA010C49024FEA402037D048
:10487C004FF0805343EA111143EA10130CF000403F
:10488C008B4238BF5B0042F17D024FF4000C8B422F
:10489C0024BF5B1A40EA0C00B3EB510F24BFA3EB0F
:1048AC00510340EA5C00B3EB910F24BFA3EB9103DF
:1048BC0040EA9C00B3EBD10F24BFA3EBD10340EA39
:1048CC00DC001B0118BF5FEA1C1CE0D1FD2A3FF67F
:1048DC0050AF8B4240EBC25008BF20F00100704734
:1048EC000CF0004C4CEA50207F32C2BFD2F1FF03D7
:1048FC0040EAC250704740F400004FF00003013A08
:10490C0037E792F0000F00F0004C02BF400010F4AB
:10491C00000F013AF9D040EA0C0093F0000F01F0BF
:10492C00004C02BF490011F4000F013BF9D041EAE1
:10493C000C0195E70CEAD15392EA0C0F08D1420214
:10494C007FF47DAF93EA0C0F7FF470AF084676E7E7
:10495C0093EA0C0F04D14B023FF44CAF08466EE7C0
:10496C0030F0004C18BF31F0004CCAD130F000428E
:10497C007FF45CAF31F000437FF43CAF5FE700BFE6
:10498C004FF0FF3C06E000BF4FF0010C02E000BF0F
:10499C004FF0010C4DF804CD4FEA40024FEA4103B1
:1049AC007FEA226C18BF7FEA236C11D001B052EA67
:1049BC00530C18BF90EA010F58BFB2EB030088BF2D
:1049CC00C81738BF6FEAE17018BF40F0010070479C
:1049DC007FEA226C02D15FEA402C05D17FEA236C7E
:1049EC00E4D15FEA412CE1D05DF8040B704700BFC5
:1049FC00844608466146FFE70FB5FFF7C9FF00285C
:104A0C0048BF10F1000F0FBD4DF808EDFFF7F4FF94
:104A1C000CBF012000205DF808FB00BF4DF808ED2D
:104A2C00FFF7EAFF34BF012000205DF808FB00BF50
:104A3C004DF808EDFFF7E0FF94BF012000205DF872
:104A4C0008FB00BF4DF808EDFFF7D2FF94BF012023
:104A5C0000205DF808FB00BF4DF808EDFFF7C8FF1C
:104A6C0034BF012000205DF808FB00BF10B5002109
:104A7C000446FFF7D3FF20B92046BDE8104000F0F4
:104A8C0009B804F1004000F005F8404261EB410127
:104A9C0010BD00BFD0B5FFF78BFA00220B4B0646BA
:104AAC000F46FFF7DDFAFFF7EDFC0446FFF75EFA61
:104ABC000022074BFFF7D4FA02460B463046394624
:104ACC00FFF716F9FFF7DEFC2146D0BD0000F03DE4
:104ADC000000F0412DE9F047089E0D4604468E4635
:104AEC00002B40F083808A42174647D9B2FA82F3F2
:104AFC004BB1C3F1200105FA03FE20FA01F19F40EE
:104B0C0041EA0E0E9C404FEA1748BEFBF8FC1FFA18
:104B1C0087F908FB1CE20CFB09F0210C41EA02426C
:104B2C0090420AD9BA180CF1FF3180F018819042EA
:104B3C0040F21581ACF1020C3A44121AB2FBF8F0B7
:104B4C0008FB102200FB09F1A4B244EA0244A14282
:104B5C0009D93C1900F1FF3280F00381A14240F2E7
:104B6C00008102383C44641A002140EA0C401EB11A
:104B7C000022DC40C6E90042BDE8F08702B9FFDE46
:104B8C00B2FA82F3002B4FD18D1A01214FEA124E4B
:104B9C001FFA82F8B5FBFEFC0EFB1C5508FB0CF053
:104BAC00220C42EA0545A84207D97D190CF1FF32C7
:104BBC0002D2A84200F2E98094462D1AB5FBFEF011
:104BCC000EFB105508FB00F8A4B244EA0544A045BE
:104BDC0007D93C1900F1FF3202D2A04500F2D9806E
:104BEC001046A4EB080440EA0C40C0E78B4208D9FD
:104BFC00002E00F0B1800021C6E900050846BDE892
:104C0C00F087B3FA83F100294BD1AB4202D3824235
:104C1C0000F2B980841A65EB030301209E46002E36
:104C2C00AAD0C6E9004EA7E79F40C3F12002D140AD
:104C3C004FEA174EB1FBFEF01FFA87F80EFB10116E
:104C4C0024FA02F29D4000FB08FC2A43150C45EAAD
:104C5C000145AC4504FA03F409D97D1900F1FF3183
:104C6C0080F08F80AC4540F28C8002383D44A5EB3F
:104C7C000C05B5FBFEF10EFB115C01FB08F995B2BE
:104C8C0045EA0C45A94507D97D1901F1FF3274D2CB
:104C9C00A94572D902393D44A5EB090541EA004109
:104CAC0078E7C1F120078B4022FA07FC4CEA030C91
:104CBC0025FA07F44FEA1C4EB4FBFEF91FFA8CF8E8
:104CCC000EFB194420FA07F309FB08FA8D401D432B
:104CDC002B0C43EA0444A24502FA01F200FA01F358
:104CEC0009D91CEB040409F1FF3048D2A24546D97E
:104CFC00A9F102096444A4EB0A04B4FBFEF00EFB18
:104D0C00104400FB08FAADB245EA0444A24508D9A8
:104D1C001CEB040400F1FF352DD2A2452BD902382F
:104D2C00644440EA0940A0FB0289A4EB0A044C4508
:104D3C00C6464D4619D316D05EB1B3EB0E0264EBEA
:104D4C00050404FA07F722FA01F31F43CC40C6E925
:104D5C0000740021BDE8F087314630460CE78C46E4
:104D6C00EBE61046FFE64345E6D2B8EB020E69EBE4
:104D7C000C050138E0E72846D3E711468CE781465D
:104D8C00B9E7084673E7084649E7ACF1020C3D4425
:104D9C0013E702383C4424E7704700BF10B50C46BB
:104DAC00416986B001F26C710369826904910168F2
:104DBC0003EB43030391416802EB420202918168C9
:104DCC000191C1682046009104490B4404490A44EE
:104DDC000449FDF7D7FB204606B010BDB6750A088E
:104DEC00A1750A0881750A080A22002101F01ABA75
:104DFC0010B504460448134620B10A460220214649
:104E0C00AFF3008010BD00BF000000002DE9F041A1
:104E1C000C46074601F02AFD21468046384601F033
:104E2C0029FD436904469A0703F26C7605D1642286
:104E3C0096FBF2F302FB13637BBB4FF4C87396FB38
:104E4C00F3F503FB1565B5FA85F56D093022684B52
:104E5C0002FB053501F01EFB01F028FB654B1B68BE
:104E6C0053B3D8F80430B34219D1D7E90067D8E965
:104E7C000823D8F80010D1B9964277EB030323DA54
:104E8C00D8E91223964277EB0303B4BF0123002326
:104E9C0023621BDBD8F828101AE00125D6E7304630
:104EAC0001F050FA0028E0D14FF0FF3304E09642B5
:104EBC0077EB030302DA00232362EBE7D8E9122332
:104ECC00964277EB0303F6DA01232362D8F85010ED
:104EDC004FF4616391FBF3F63C2003FB161393FB39
:104EEC00F0F200FB123061682368891AA2681B1A61
:104EFC00921B3B2B23606160A26034DD0131616049
:104F0C003C3B236063683B2B33DD0132A2603C3BAE
:104F1C006360A368172B32DDE269183B0132E26152
:104F2C00A269A3600132062AC8BF0022A261E2680E
:104F3C0023690132E26055F823108A420EDD0B2BF7
:104F4C00A2EB0102E26003F1010205BF00226369DA
:104F5C002261013302BF22616361E26101F0A0FAB8
:104F6C002046BDE8F081002BCCDA013961603C337E
:104F7C00C7E7002BCDDA013AA2603C33C8E7002B1F
:104F8C00ECDAE2691833013AE261A269A360013AF2
:104F9C0048BF0622A261E268013AE260002ADDD134
:104FAC002369013B05D42361236955F82330E36061
:104FBC00D4E70B23236163695A1E626103F26B729F
:104FCC00930705D1642192FBF1F301FB132363B921
:104FDC004FF4C87192FBF1F301FB1323B3FA83F383
:104FEC005B0903F5B673E361DEE70123F9E700BF64
:104FFC003C760A08D00700200A44914200F1FF33A6
:10500C0000D1704710B511F8014B914203F8014FD4
:10501C00F9D110BD03460244934200D1704703F806
:10502C00011BF9E7F7B5016804463B2911D93C226D
:10503C00684601F0C5FB019A63680099002A0B448D
:10504C006360BBBF3C3203F1FF3322602260B8BF08
:10505C00636061683B2911D93C22684601F0B0FBC2
:10506C00019AA3680099002A0B44A360BBBF3C3291
:10507C0003F1FF3362606260B8BFA360A1681729B7
:10508C0011D91822684601F09BFB019AE36800993C
:10509C00002A0B44E360BBBF183203F1FF33A2605C
:1050AC00A260B8BFE36021690B2911D90C226846B4
:1050BC0001F086FB019A63690099002A0B44636135
:1050CC00BBBF0C3203F1FF3322612261B8BF6361B5
:1050DC006369990720D1642193FBF1F201FB123231
:1050EC00E2B94FF4C87103F26C7393FBF1F201FB5C
:1050FC001233002B14BF1C231D23E268002A0FDC83
:10510C000B2664204FF4C875314FD4F80CC0BCF199
:10511C00000F31DD03B0F0BD1C23EEE71D23ECE7DF
:10512C004FF0000C64254FF4C876294FD4E90312D4
:10513C00012A0CBF184657F822008142EADD0132E1
:10514C00091A0C2AE1602261F0D163695A1C91079B
:10515C00C4E904C237D192FBF5F105FB1122002AF8
:10516C0033D103F26D7393FBF6F206FB1233002B73
:10517C0014BF1C231D23D9E7216901392161013199
:10518C0014D16369591E8A07C4E9046117D191FBD4
:10519C00F0F200FB1211A1B903F26B7393FBF5F261
:1051AC0005FB1233002B14BF1C231D232269012A7B
:1051BC000CBF1A4657F822206244E260A5E71C2374
:1051CC00F4E71D23F2E71C23B0E71D23AEE700BF75
:1051DC00DC750A082DE9F04F8BB0054601F046FB53
:1051EC004FF03C0A07462846FFF71CFFD5E9002381
:1051FC000AFB03234FF4616AA868B44A0AFB003A1D
:10520C00D5E9034352F82320013C012B6E69144469
:10521C0011DDB1070FD1642296FBF2F302FB13638D
:10522C0043B94FF4C87206F26C7191FBF2F302FBB6
:10523C00131303B9013444F6206206F51C531033E2
:10524C009342EC6100F26881462E77DD462340F2F2
:10525C006D1E64214FF4C8709A0769D193FBF1F26B
:10526C0001FB1232002A66D103F26C7C9CFBF0F23B
:10527C0000FB12C2002A14BF72464FF4B7720133FE
:10528C009E421444E8D1924B4FEAEA7BC3FB04AB39
:10529C0001F000F901F00AF98E4BD3F80090B9F146
:1052AC00000F3FD0D5F8209068697B68B9F1010FE9
:1052BC0000F26C70C846A8BF4FF0010883427FD142
:1052CC003B6D1946DA17CDE90012D7E91212CDE978
:1052DC000212DDE90201BA6A801A61EBE2718245C1
:1052EC00CDE906017BEB010171DA0098396A091AE4
:1052FC0004910198796A61EB0001059139680029E4
:10530C0075D0DDE9040182457BEB010105DBDDE9AC
:10531C00060182457BEB01016FDBB9F1000F4FF009
:10532C0000096FDABB6A1AEB030A4BEBE37BAEE0C6
:10533C0040F26D12A3E74FF4B772A0E7A3D0452358
:10534C0040F26D1E64214FF4C87012E062BB93FBF7
:10535C00F1F201FB123252BB03F26C7C9CFBF0F2BB
:10536C0000FB12C2002A14BF72464FF4B772A41A83
:10537C00013B9E4203F00302E8DBDAB9642296FBA0
:10538C00F2F302FB1363C3B94FF4C87206F26C71EB
:10539C0091FBF2F302FB1313002B40F26D1308BFC9
:1053AC004FF4B773E41A6EE740F26D12DFE74FF477
:1053BC00B772DCE740F26D13F4E74FF4B773F1E723
:1053CC0000F0C0FF00287FF47BAFC14654E000988A
:1053DC000299091A08910198039961EB000109914E
:1053EC00DDE9080182457BEB0101EEDB7DE7DDE9C0
:1053FC00040182457BEB010189DBB9F1000F3FDB36
:10540C004FF0010988EA0908B8F1010F34D1B9F15C
:10541C00000F4FD0D31A2A681AEB030A1A442A60D9
:10542C002846D5F80C804BEBE37BFFF7FBFDEA68D5
:10543C00B2EB080220D0012A3EDC901CD8BF01221E
:10544C00EB691444D31847D5721E910737D16421E8
:10545C0092FBF1F301FB1323A3BB4FF4C87206F2CA
:10546C006B7696FBF2F302FB1366002E40F26D1383
:10547C0018BF4FF4B673EB61B9F1010F7FF452AF63
:10548C004FF001093B6D1AEB030A4BEBE37B01F088
:10549C0007F80723043494FBF3F3C3EBC303E41AB8
:1054AC0048BF0734C5F82090AC61504659460BB044
:1054BC00BDE8F08F9B1AAEE74FF0FF32C0E74FF418
:1054CC00B673D8E740F26D13D5E700BF0C760A0827
:1054DC0080510100D0070020B20717D1642196FB40
:1054EC00F1F201FB1262A2B94FF4C87106F26C76AC
:1054FC0096FBF1F201FB1266002E40F26D1208BF12
:10550C004FF4B7729342A8BF9B1AB4E740F26D12E6
:10551C00F8E74FF4B772F5E74FF0FF3A4FF0FF3B67
:10552C00C3E700BF38B50D4B04461D68AB6B7BB9A8
:10553C001820FDF707F80A4A0A4BA863C0E90023B4
:10554C00094B012283600B2383810023C0E90423D0
:10555C000022AB6B1C615A6138BD00BF08000020F3
:10556C000E33CDAB34126DE6ECDE05000346C9B24A
:10557C00184613F8012B12B18A42F9D17047002951
:10558C0018BF0020704710F8012B11F8013B012ABD
:10559C0028BF9A42F7D0D01A7047034611F8012B56
:1055AC0003F8012B002AF9D170470000024B014689
:1055BC00186800F003B800BF0800002070B504465E
:1055CC0008460D4600F070FD461C31462046FDF79E
:1055DC0009F8044618B132462946FFF70DFD20465E
:1055EC0070BD0000416940F26C730029A8BF6FF0D8
:1055FC006303CA188B0705D1642192FBF1F301FBFD
:10560C001323DBB94FF4C87192FBF1F301FB1323A5
:10561C00B3FA83F35B09D0E90602400000EB0210F9
:10562C00184441F2A26398423AD021DC01281ADCDA
:10563C000028B4BF00204FF0FF3070470123EAE789
:10564C00172813D8DFE800F00C0C0C0C12120C0C01
:10565C00121212121212121212120C0C12120C0C36
:10566C004FF0FF3070470A381728E9D900207047EF
:10567C0041F2B463984206DC41F2B1639842D4BF64
:10568C00002001207047A0F5B65002381528EDD83F
:10569C000123834003481840003818BF012070478D
:1056AC00012070471F002A002DE9F04F1E460023F1
:1056BC0007460D461C4691B004931378002B00F05E
:1056CC00DA84252B1FD192F80190B9F1300F24D038
:1056DC00B9F12B0F21D04FF0000902F1010A9AF811
:1056EC000030313B082B1BD850460A2208A900F089
:1056FC001FFE8046DDF820A09AF80030452B12D111
:10570C000AF1010A11E0691EA14202D8002400F03E
:10571C00B5BC3B5501320134CFE702F1020ADEE79A
:10572C004FF00008E8E74F2BEAD09AF80000A0F100
:10573C002503552BEAD801A252F823F077600A080A
:10574C0019570A0819570A0819570A0819570A0845
:10575C0019570A0819570A0819570A0819570A0835
:10576C0019570A0819570A0819570A0819570A0825
:10577C0019570A0819570A0819570A0819570A0815
:10578C0019570A0819570A0819570A0819570A0805
:10579C0019570A0819570A0819570A0819570A08F5
:1057AC0019570A0819570A0819570A08DD580A0820
:1057BC0035590A08A7590A083F5A0A0819570A08FE
:1057CC00895A0A087D5B0A08875C0A08955C0A08F6
:1057DC0019570A0819570A0819570A08C55C0A0804
:1057EC0019570A0819570A08D95C0A0819570A08E0
:1057FC00295D0A083F5E0A084F5E0A08A35E0A0884
:10580C00B35E0A08255F0A089F590A08595F0A08FF
:10581C0025600A0819570A0819570A0819570A085F
:10582C0019570A0819570A0819570A08A1580A08DB
:10583C000B590A0861590A081B5A0A081B5A0A080C
:10584C0019570A08DF5A0A080B590A0819570A0887
:10585C00B75C0A08875C0A08955C0A08BF5C0A08F2
:10586C00C95C0A0819570A08D95C0A0819570A08AA
:10587C008F590A083B5D0A08435E0A08895E0A08CC
:10588C0019570A08175F0A0897590A083D5F0A0852
:10589C00B55F0A08B369A94A183352F82380404609
:1058AC0000F002FC08F1FF3820446B1EA04207D127
:1058BC009AF80030002B00F0DE830AF10102FCE6BE
:1058CC00A3427FF623AF18F8012F3A550134EDE7C8
:1058DC00B2699A4B03EB8203D3F87C80404600F00C
:1058EC00E3FB08F1FF3820446B1EA042E0D0A3423A
:1058FC007FF60CAF18F8012F3A550134F5E78F4BB2
:10590C00326953F82280404600F0CEFB08F1FF3894
:10591C0020446B1EA042CBD0A3427FF6F7AE18F802
:10592C00012F3A550134F5E73369844A0C3352F8A8
:10593C002380404600F0B8FB08F1FF3820446B1E72
:10594C00A042B5D0A3427FF6E1AE18F8012F3A552C
:10595C000134F5E7794BD3F8A080404600F0A4FB66
:10596C0098F80030002BA3D01A9B42460093334684
:10597C00291B3819FFF798FE00287FF7C7AE04449F
:10598C0096E76E4BD3F8E480E7E76C4BD3F89C803A
:10599C00E3E76A4BD3F89880DFE76949D6F814B08F
:1059AC008B45ACBF00210121BBF1000F10DB642043
:1059BC009BFBF0F01330B9F1000F13D0632824DDFA
:1059CC00604A614BB9F12B0F18BF13465F4A0BE0CD
:1059DC000BF26C70059100F0EFFE6423059990FBBF
:1059EC00F3F0E8E7574B5A4AB8F1020F2CBFC1EB62
:1059FC000801C1F1020101900091514855498345BC
:105A0C00B8BF0B46291B381929E04E4BDEE752492B
:105A1C00524AF368642808BF0A46291B3819FCF758
:105A2C00C9FD0028FFF672AE0444A5423FF640AF14
:105A3C006CE670693369002803F1010B07EB04086D
:105A4C00F368A5EB04090DDB642190FBF1F201FB7B
:105A5C001202CDE9003249465B464046404AFCF70B
:105A6C00A9FDDEE700F26C70059300F0A5FE642240
:105A7C0090FBF2F1059B01FB1202EAE725238DF85E
:105A8C002030B9F1000F13D0B8F1060F38BF4FF02A
:105A9C000608B8F106038DF821900ED10DF1220005
:105AAC003049FFF77AFD1A9B08AA009333465FE74B
:105ABC004FF02B094FF00A08EBE71E212A4A0DF193
:105ACC002200FCF777FD0028E8DD0DF122031844D5
