:02000004080AE8
:1000000000000A08947B0A080000060006000501AB
:080010000402350800000000A5
:0400180098690A08D1
:10001C0009480A4908B5884205D0094A824202D0EB
:10002C00121A04F041FF0748074A0021121A04F083
:10003C0049FF064808BD00BF000000202C790A08C3
:10004C0040020020400200207507002075070020A8
:10005C0070B502F0E5FE0025054E064CA41BA40865
:10006C00A54200D170BD56F8043B98470135F7E71F
:10007C00EC780A0818790A0801F0E4BD08B501F01B
:10008C0055FEBDE8084002F08DBE02F0ABB902F09F
:10009C00A9B902F0AFB90078B0FA80F04009704706
:1000AC00012303707047F8B50E46054611463046DD
:1000BC00B3F900201C46069F02F066FB03B22380B6
:1000CC002846B7F90020314602F07EFB22882846EC
:1000DC00013212B222803A80F8BD00B58BB0039386
:1000EC000C9BA0F26C7002930D9B06900193002365
:1000FC00013901A8CDE90421099304F0C3FF0BB029
:10010C005DF804FB022A38B5044607D0032A11D047
:10011C00012A01D10B682360002038BD0C200D682A
:10012C00FFF7B3FF03460028F5D095E8070083E8F6
:10013C000700F0E700680028EED00C2103F025FD45
:10014C00EAE770B4036809685C689D68661005EBA3
:10015C006400E40748BFAC591B68126848BFE358F9
:10016C0070BC184713B50446054B0A461B78054965
:10017C008DF800303C2302F0E1FF204602B010BDA8
:10018C0044020020AC690A0810B58368044613B118
:10019C00032201469847204610BD000070B54FF46D
:1001AC0000730E460021C0E90013012304461546D6
:1001BC000372234B0F301A689B8840F8062C20F8EA
:1001CC00023C4FF4FD7204F07DFE1E4904F50370F1
:1001DC0002F0EEF91C4904F5077002F0E9F91B492D
:1001EC0004F50B7002F0E4F9314604F50F7002F0DF
:1001FC001EFA2946164D04F5137002F018FA29461A
:10020C0004F5177002F0D4F9294604F51B7002F0BE
:10021C00CFF9294604F51F7002F0CAF9294604F5F6
:10022C00237002F0C5F9294604F5277002F0C0F9D5
:10023C00294604F5317002F0BBF9204670BD00BFB1
:10024C00226D0A08B2690A08C1690A08D1690A084C
:10025C00F66A0A0870B5054601F0BEFED5F8B04244
:10026C00064601F0B9FED5F8B432C5F8B0021C440C
:10027C00A01B0028C5F8B402D4BF0020012070BD1B
:10028C0090F8BE02831E58425841704790F8BE0247
:10029C00C31E58425841704790F8BE02431F584243
:1002AC005841704798B5D0F8A43200AF083323F00A
:1002BC000703ADEB030D0446D0F89C12684605F01D
:1002CC00C4F80023694623724FF4007204F109004C
:1002DC0005F05CFE03F0E6FB40F20122206804F11D
:1002EC00080101F091FEBD4698BD1FB5044603F010
:1002FC00D9FB40F20122206804F1080101F07CFED8
:10030C00237A012B0FD004F10901684602F050F951
:10031C00694604F5277002F095F9684602F0FEF87C
:10032C00012004B010BD0020FBE738B505460123C1
:10033C00044605F8083F03F0B5FB2946206840F257
:10034C000122BDE8384001F05FBE38B504680546AF
:10035C007CB16368013B63605BB9236820469B6892
:10036C009847A368013BA3601BB923682046DB6850
:10037C009847284638BD000010B586B00446FFF7F4
:10038C00B4FFB8B102230D4984F8BE3202A802F0C2
:10039C0043FA02996846FFF7E5FE01A8FFF7D5FF7F
:1003AC0002A802F0BBF80023C4F8B83284F8C032BB
:1003BC0006B010BD024984F8BE02E7E7E1690A08FD
:1003CC00FD690A08F0B500260D469BB0114604469F
:1003DC0006A8ADF80C60ADF80E6002F0E9F82946FD
:1003EC000AA80DF10E0502F0E3F82F2203AB0AA9BF
:1003FC0016A80095FFF757FE16A802F08FF82F22CB
:10040C0003AB0AA90EA80095FFF74DFE0AA912A886
:10041C002F22009503ABFFF746FE74490EA8ADF8EA
:10042C000C60ADF80E6002F092F9002800F0CC8060
:10043C0004F5037112A802F07DF90746002860D07C
:10044C007E2203AB06A916A80095FFF72CFE16A971
:10045C0004F5177002F0F6F816A802F05FF87E2289
:10046C0003AB06A916A80095FFF71DFE16A904F507
:10047C001B7002F0E7F816A802F050F87E2203ABCE
:10048C0006A916A80095FFF70EFE16A904F51F7015
:10049C0002F0D8F816A802F041F87E2206A903ABA8
:1004AC0016A80095FFF7FFFD16A802F0AFF94FF460
:1004BC007A73434316A8C4F8B43202F02FF803AB96
:1004CC00324606A916A80095FFF7EDFD16A802F016
:1004DC009DF9C0EB401300EB8300C000A4F8BC02F4
:1004EC0016A802F01BF812A802F018F80EA802F0D9
:1004FC0015F80AA802F012F806A802F00FF81BB0C3
:10050C00F0BD04F5077112A802F014F90646002894
:10051C0040D07E2203AB06A916A80095FFF7C3FDB9
:10052C0016A904F5237002F08DF816A801F0F6FF59
:10053C007E2203AB06A916A80095FFF7B4FD16A9F9
:10054C0004F5277002F07EF816A801F0E7FF4FF4CF
:10055C007A7002F0C9FBD4F89C1216A802F05CF970
:10056C00169904A8FFF7FEFD05A8FFF7EEFE16A8E6
:10057C0001F0D4FF3A46009503AB06A916A8FFF785
:10058C0092FD16A802F042F94FF47A734343C4F873
:10059C00B432A5E704F50B7112A802F0CBF80028D1
:1005AC00A1D07E2203AB06A916A80095FFF77BFD10
:1005BC0016A904F5237002F045F816A801F0AEFF59
:1005CC003246009503ABD8E709490EA802F0BFF8F4
:1005DC00002888D010230D2206A916A802F0F4F8E2
:1005EC0016A802F013F9A4F8D40279E7196A0A08DC
:1005FC00276A0A0810B504468AB0FFF7E3FE94F8A0
:10060C00BF32012B74D0022B00F09A80002B40F0EB
:10061C00B2805F4902A801F0CBFF5E4906A801F049
:10062C00C7FF04F51F7106A802F04FF8014602A897
:10063C0002F038F806A801F071FF574906A801F03E
:10064C00B7FF04F51B7106A802F03FF8534902F0FE
:10065C0048F8014602A802F025F806A801F05EFF52
:10066C0002F0A2FF029902F034F94FF47A7002F012
:10067C003BFBD4F87C1206A802F0CEF8069968462B
:10068C00FFF770FD01A8FFF760FE06A801F046FF1A
:10069C004FF47A7002F028FBD4F86C1206A802F022
:1006AC00BBF806996846FFF75DFD01A8FFF74DFE04
:1006BC0006A801F033FF4FF47A7002F015FB029993
:1006CC0006A802F0A9F806996846FFF74BFD01A8A9
:1006DC00FFF73BFE06A801F021FF94F8BE3202A8FA
:1006EC0084F8BF32012384F8BE3201F017FF1CE0FE
:1006FC0002F05AFF2A4902F0ECF82A4906A802F047
:10070C008BF8069902A8FFF72DFD03A8FFF71DFE35
:10071C0006A801F003FF94F8BE32204684F8BF32DD
:10072C00032384F8BE32FFF7BDFD01F055FCC4F87D
:10073C00B002002084F8C00201F03CFE0AB010BDEB
:10074C0002F032FF184902F0C4F8184906A802F06A
:10075C0063F8069902A8FFF705FD03A8FFF7F5FD5E
:10076C0006A801F0DBFE94F8BE3284F8BF320323F6
:10077C0084F8BE32D9E70E4906A802F04DF8069966
:10078C0002A8FFF7EFFC03A8FFF7DFFD06A8ACE714
:10079C00326A0A087E6A0A08906A0A08F46A0A0829
:1007AC00B16A0A08C86A0A08DB6A0A08F76A0A0802
:1007BC000F6B0A0830B5044687B0FFF703FE04F54B
:1007CC003175B4F8D422354902A802F025F802A9F3
:1007DC00284601F037FF02A801F0A0FE94F8BF32C2
:1007EC00012B2AD0022B54D01BB928462C4901F0DE
:1007FC0031FFB4F8D432F3B1B3F5D67F1BD002F08D
:10080C00D3FED4F8C41202F064F8D4F8C41202A8CF
:10081C0002F002F802996846FFF7A4FC01A8FFF762
:10082C0094FD02A801F07AFE94F8BE3284F8BF322F
:10083C00052384F8BE3207B030BDB4F8D432B3F51A
:10084C00D67F13D102F0B0FE164902F042F802A88E
:10085C00144901F0E1FF68460299FFF783FC01A8F7
:10086C00FFF773FD02A801F059FEC2E740F29312A4
:10087C00934204D10C49284601F018FFB9E740F225
:10088C009112934201D10949F5E7002BB1D00849E7
:10089C00F1E72046FFF749FDF9E700BF2D6B0A0889
:1008AC003F6B0A085B6B0A08746B0A088C6B0A08AE
:1008BC00AC6B0A0830B587B00546FFF7CBFC044695
:1008CC0080B90223094985F8BE3202A801F0A4FFC1
:1008DC0068460299FFF746FC01A8FFF736FD02A80F
:1008EC0001F01CFE204607B030BD00BFC66B0A08E5
:1008FC0010B5044686B002F057FED4F8C41201F0CD
:10090C00E8FFD4F8C41202A801F086FF02996846E9
:10091C00FFF728FC01A8FFF718FD02A801F0FEFD67
:10092C0006B010BD38B5002383608B6804460D46B5
:10093C002BB102229847EB68E360AB68A3602046BA
:10094C0038BD0000F0B51F46002391B002AD85E81C
:10095C00060005AC064695E8030084E805000C206B
:10096C000A93FFF792FB024620B194E8030082E859
:10097C0003009760134B08A90B93134B0CA80A9315
:10098C000892FFF7CFFF0E9B4BB900240CA8FFF782
:10099C00FBFB08A8FFF7F8FB204611B0F0BD1020B8
:1009AC00FFF773FB04460028EFD00CA9FFF7BAFF42
:1009BC00002322463046CDE90033044901F0F2FC15
:1009CC000446E3E74F010A0811010A08472F0A08F9
:1009DC002DE9F04190F8C0720646884690B0002F81
:1009EC004FD10CAC384608AD01F0E4FC204601F0C8
:1009FC00C9FC2146284601F01AFE2349284601F07D
:100A0C0070FE414601F061FE0146684601F00FFEA2
:100A1C00284601F083FD204601F080FD204601F0C0
:100A2C00B1FC2146284601F002FE1849284601F087
:100A3C0058FE414601F049FE014604A801F0F7FDBD
:100A4C00284601F06BFD204601F068FD104B009824
:100A5C00CDE90837334695E80600FFF773FF0D4BD9
:100A6C000498CDE90C37334694E80600FFF76AFF8B
:100A7C00012304A886F8C03201F050FD684601F04D
:100A8C004DFD10B0BDE8F081E36B0A08F36B0A086A
:100A9C0001060A08C1070A0810B504468CB087493C
:100AAC0004A801F085FD94F8BE32042B00F2F68008
:100ABC00DFE813F005003E009A00DE00C600204679
:100ACC0004F50371FFF784FFD4F83C227C4908A895
:100ADC0001F0A2FE08A904A801F0B4FD08A801F0D9
:100AEC001DFD784B049A1B78D4F80C128DF800304D
:100AFC0008A83C2302F022FB09A8FFF726FC02F011
:100B0C0053FD714901F0E5FE6F4908A801F084FE20
:100B1C00089902A8FFF726FB03A8FFF716FC08A804
:100B2C0001F0FCFC94F8BE3284F8BF3204233BE0A5
:100B3C0001F052FAB4F8BC22D4F8B83203EB4203F9
:100B4C00834233D201F048FAC4F8B8022046FFF7CA
:100B5C0081FB80B3204604F50771FFF739FFD4F809
:100B6C005C32D4F83C225949009308A8D4F84C3292
:100B7C0001F052FE08A904A801F064FD08A801F0D8
:100B8C00CDFC504B049A1B78D4F81C128DF8003015
:100B9C0008A83C2302F0D2FA09A8FFF7D6FB94F878
:100BAC00BE3284F8BF32012384F8BE3204A801F0AF
:100BBC00B5FC0CB010BD02F0F7FC454901F089FE04
:100BCC00434908A801F028FE089902A8FFF7CAFAC1
:100BDC0003A8FFF7BAFB08A801F0A0FC94F8BE32FA
:100BEC0084F8BF320523DFE7204604F50B71FFF7CD
:100BFC00EFFED4F84C32D4F89C223649009308A866
:100C0C00D4F83C3201F008FE08A904A801F01AFD42
:100C1C0008A801F083FC2B4B049A1B78D4F82C12F7
:100C2C008DF8003008A83C2302F088FA09A8FFF7D9
:100C3C008CFB02F0B9FC284901F04BFE264964E715
:100C4C0002F0B2FC254901F044FE08A8234901F04A
:100C5C00E3FD089902A8FFF785FA03A8FFF775FBD7
:100C6C0008A801F05BFC41F2883002F03DF89DE7EA
:100C7C004FF47A7002F038F808A8194901F0CCFD4D
:100C8C00089902A8FFF76EFA03A8FFF75EFB08A805
:100C9C0001F044FC2046FFF728FB87E708A8114920
:100CAC0001F0BAFD089902A8FFF75CFA03A8FFF758
:100CBC004CFB08A801F032FC78E700BFF66A0A0882
:100CCC00006C0A0845020020136C0A082B6C0A08F9
:100CDC005F6C0A087D6C0A08BA6C0A08D56C0A08A5
:100CEC00F16C0A08046D0A080022034B1A700122E9
:100CFC00024B1A70704700BF4402002045020020CE
:100D0C00022A38B5044607D0032A11D0012A01D192
:100D1C000B682360002038BD0C200D68FFF7B5F977
:100D2C0003460028F5D095E8070083E80700F0E7B4
:100D3C0000680028EED00C2102F027FFEAE770B41F
:100D4C00036809685C689D68661005EB6400E4073D
:100D5C0048BFAC591B68126848BFE35870BC1847B1
:100D6C0013B50446054B0A461B7805498DF800302F
:100D7C003C2302F0E3F9204602B010BD46020020ED
:100D8C00AC690A0838B515460446043001F04FFC2E
:100D9C002B780F4D23750F4B0F49A36104F11C00E9
:100DAC0001F006FC294604F12C0001F001FC294657
:100DBC0004F13C0001F0FCFB294604F16C0001F04D
:100DCC00F7FB00232046236084F8683038BD00BF51
:100DDC00F66A0A0800DD6D00226F0A08B0F87C0084
:100DEC00C83818BF0120704790F86800704710B5DC
:100DFC0004463C3101F01BFC204610BD2DE9F04FA0
:100E0C000025A3B004460291ADF81C50ADF81E505D
:100E1C0001F00BFFDFF8D8B10DF11E060246594662
:100E2C00C31700950AA801F0A1FE07AB54220AA92A
:100E3C000EA80096FFF737F913210AA801F0A2FCBF
:100E4C00DFF8B0A1024607AB0AA912A80096FFF77B
:100E5C002AF90EA91EA801F0EAFB51461EA801F0C2
:100E6C0040FC014616A801F0E2FBDFF88C911EA8AD
:100E7C0001F054FB12A91EA801F0D9FB49461EA88B
:100E8C0001F02FFC014616A801F00CFC1EA801F085
:100E9C0045FB01F013FF074601F008FF804601F007
:100EAC00F9FE059001F0D2FE049001F0DBFE0390F8
:100EBC0001F0E4FEDDE9043203990190009138461B
:100ECC004146FFF70AF907460020884601F08CFDE1
:100EDC004FF47A73A2691EA892FBF3F21146BA186A
:100EEC0048EBE17300955946ADF81C50ADF81E5017
:100EFC0001F03CFE1EA90AA801F0A4FB1EA801F0FB
:100F0C000DFB07AB54220AA91EA80096FFF7CBF8DD
:100F1C001EA90EA801F096FB1EA801F0FFFA1321E2
:100F2C000AA801F02FFC07AB02460AA91EA80096DE
:100F3C00FFF7B9F81EA912A801F084FB1EA801F056
:100F4C00EDFA0EA91EA801F072FB51461EA801F085
:100F5C00C8FB01461AA801F06AFB1EA801F0DEFAD4
:100F6C0012A91EA801F063FB49461EA801F0B9FBAB
:100F7C0001461AA801F096FB1EA801F0CFFA94F9CD
:100F8C00140003F0B1FA01F02FFD1A9B6268019373
:100F9C00169B1EA80093029B1349D3F88C3201F0C8
:100FAC003BFC124B1E9A1B78E1698DF8003008A8A7
:100FBC003C2302F0C3F809A8FFF7C7F91EA801F0FB
:100FCC00ADFA1AA801F0AAFA16A801F0A7FA12A80D
:100FDC0001F0A4FA0EA801F0A1FA0AA801F09EFAF9
:100FEC0023B0BDE8F08F00BF386F0A08470200201D
:100FFC003C060020A9770A08316F0A0810B5044690
:10100C0086B002F0D1FAE16E01F063FCE16E02A849
:10101C0001F002FC02996846FFF7A2FE01A8FFF757
:10102C0094F902A801F07AFA06B010BD2DE9F0434C
:10103C0091B0044601F042FE054601F037FE06462B
:10104C0001F028FE074601F001FE804601F00AFE81
:10105C00814601F013FE43463A46CDE900903146F5
:10106C002846FFF73AF80B4694F868100246002918
:10107C003CD0D4E91401824273EB010531DBD4E995
:10108C001601904271EB03052DDB121A22664FF408
:10109C006162216E6FF03B0081EAE173A3EBE173B7
:1010AC00B3FBF2F2144901FB02313C2391FBF3F345
:1010BC0000FB031108A80091104901F0ABF908A935
:1010CC0004A801F0A9FB049902A8FFF749FE03A8A4
:1010DC00FFF73BF904A801F021FA206E11B0BDE82E
:1010EC00F083821AD2E700232366D0E74FF47A729A
:1010FC00A36993FBF2F3F7E7F0F1FFFF816F0A08A6
:10110C0000232DE9F04F95B00DF116052D22ADF809
:10111C001430ADF81630009505AB0CA80C46FEF754
:10112C00C2FF0CA801F072FB06460CA801F0F6F900
:10113C00214605AB2D2200950CA8FEF7B4FF0CA898
:10114C0001F064FB07460CA801F0E8F9214605AB59
:10115C00542200950CA8FEF7A6FF0CA801F056FB34
:10116C0080460CA801F0DAF9214605AB3A2200952D
:10117C000CA8FEF798FF0CA801F048FB81460CA8C0
:10118C0001F0CCF905AB3A22214600950CA8FEF7EC
:10119C008AFF0CA801F03AFB82460CA801F0BEF9BC
:1011AC001321204601F0EEFA2146024605AB0095CC
:1011BC000CA8FEF778FF0CA801F028FB04460CA83D
:1011CC0001F0ACF94B46424639463046CDE900A415
:1011DC00FEF783FF83460D463B4632460F49CDE969
:1011EC0002A4CDE900890CA801F014F94FF47A702F
:1011FC0001F07AFD0CA908A801F00EFB089906A8CD
:10120C00FFF7AEFD07A8FFF7A0F808A801F086F9D4
:10121C005846294615B0BDE8F08F00BF996F0A08F3
:10122C00F0B500260D469DB01146044604A8ADF855
:10123C000C60ADF80E6001F0BBF9294608A801F06E
:10124C00B7F957490CA801F0B3F90DF10E05544943
:10125C0010A801F0ADF92F2203AB08A918A800952E
:10126C00FEF721FF18A801F059F908A914A82F229C
:10127C00009503ABFEF717FF4A4914A8ADF80C60B4
:10128C00ADF80E6001F063FA002873D0464904A84B
:10129C0001F05DFA0746A8B184F86860C823A4F889
:1012AC007C3014A801F03AF910A801F037F90CA819
:1012BC0001F034F908A801F031F904A801F02EF975
:1012CC001DB0F0BD7E2203AB04A918A80095FEF753
:1012DC00EAFE18A904F13C0001F0B4F918A801F0D9
:1012EC001DF97E2203AB04A918A80095FEF7DBFEBE
:1012FC0018A90CA801F0A6F918A801F00FF97E2284
:10130C0003AB04A918A80095FEF7CDFE18A910A8E8
:10131C0001F098F918A801F001F903AB3A4604A9B9
:10132C0018A80095FEF7BFFE18A904F12C0001F0D7
:10133C0089F918A801F0F2F80CA918A801F077F9AE
:10134C00204618A9FFF7DCFEC4E9140118A801F027
:10135C00E5F810A918A801F06AF9204618A9FFF7BA
:10136C00CFFEC4E9160118A801F0D8F8012384F8BF
:10137C00683093E70D4914A801F0E9F9002890D0E2
:10138C0010230D220DEB030118A801F01DFA18A86B
:10139C0001F03CFAA4F87C0018A801F0BFF880E733
:1013AC00F66A0A08196A0A08AF6F0A08276A0A0857
:1013BC0010B50446FFF734FF2368BDE8104018470A
:1013CC0030B5044685B0FFF72BFF04F16C05B4F87B
:1013DC007C206846104901F01FFA6946284601F046
:1013EC0031F9684601F09AF8B4F87C30B3F5C87F4F
:1013FC0007D10A49284601F059F92368984705B0E6
:10140C0030BD40F29112934201D10549F2E7B3F598
:10141C00CA7FF2D10349EDE72D6B0A08B36F0A08B6
:10142C00FE6F0A081C700A08F0B51F46002391B025
:10143C0002AD85E8060005AC064695E8030084E895
:10144C0005000C200A93FEF720FE024620B194E81A
:10145C00030082E803009760134B08A90B93134B0E
:10146C000CA80A930892FFF75DFA0E9B4BB9002467
:10147C000CA8FEF789FE08A8FEF786FE204611B0E0
:10148C00F0BD1020FEF701FE04460028EFD00CA999
:10149C00FFF748FA002322463046CDE900330449D1
:1014AC0000F080FF0446E3E74B0D0A080D0D0A0817
:1014BC00472F0A08F0B5074691B008AD0CAC47F8B9
:1014CC001C1B0646284600F05DFF2946204601F00D
:1014DC00AEF82046214901F004F9394601F0F5F83F
:1014EC000146684601F0A3F8204601F017F828469B
:1014FC0001F014F8284600F045FF2946204601F07B
:10150C0096F82046164901F0ECF8394601F0DDF862
:10151C000027014604A801F08AF8204600F0FEFFDF
:10152C00284600F0FBFF0F4B0997089395E806003F
:10153C0033460098FFF778FF0B4B0498CDE90C3736
:10154C00334694E80600FFF76FFF04A800F0E6FFAF
:10155C00684600F0E3FF11B0F0BD00BFE36B0A0872
:10156C00F36B0A08BD130A08CD130A080022034BBB
:10157C001A700122024B1A70704700BF46020020FD
:10158C004702002013B50446054B0A461B78054953
:10159C008DF800303C2301F0D1FD204602B010BD87
:1015AC0048020020AC690A087FB50D46044617496D
:1015BC00684600F0FDFF6946284601F002F9064630
:1015CC00F6436846F60F00F0A9FF267168461049ED
:1015DC0000F0EEFF6946284601F0F3F80646F643A4
:1015EC006846F60F00F09AFF68460A49667100F0EB
:1015FC00DFFF6946284601F0E4F805466846ED43EE
:10160C0000F08CFFED0FA57104B070BD3A700A08A4
:10161C003E700A0842700A087FB50121042002F0CE
:10162C0017FA0121052002F013FA0121062002F01D
:10163C000FFA0121072002F00BFA0121042002F01D
:10164C0018FA0121052002F014FA0121062002F0FB
:10165C0010FA0121072002F00CFA02A8074901F048
:10166C00DBF802996846FFF78DFF01A8FEF76DFEC7
:10167C0002A800F053FF07B05DF804FB46700A089F
:10168C000B7810B503700446FFF7C6FF0023204605
:10169C00C4E901336370638010BD000010B5037999
:1016AC00427804469A4286B0C3711AD04FF47A70CD
:1016BC0001F01AFBE379002B54D00021042002F036
:1016CC00D8F9314902A801F0A7F802996846FFF74A
:1016DC0059FF01A8FEF739FE02A800F01FFFE379BD
:1016EC0063706379A278E3719A421AD04FF47A70DE
:1016FC0001F0FAFAE379002B3AD00021052002F030
:10170C00B8F9224902A801F087F802996846FFF758
:10171C0039FF01A8FEF719FE02A800F0FFFEE379DD
:10172C00A370A379E278E3719A4219D04FF47A70DE
:10173C0001F0DAFAE3790BB30021062002F099F9F3
:10174C00134902A801F068F802996846FFF71AFFDE
:10175C0001A8FEF7FAFD02A800F0E0FEE379E370C1
:10176C0006B010BD0121042002F083F90949A9E754
:10177C000121052002F07DF90749C3E7012106206C
:10178C0002F077F90549DCE75B700A0874700A0807
:10179C008D700A0867700A0880700A0899700A0828
:1017AC00032906D8DFE801F00204070942718271AF
:1017BC000271FFF773BF4271FBE78271F9E700001A
:1017CC0010B5044686B04FF47A7001F08DFA02A879
:1017DC000A4901F021F802996846FFF7D3FE01A8E7
:1017EC00FEF7B3FD02A800F099FE00232046A3806B
:1017FC00A371FFF753FF06B010BD00BFA6700A0817
:10180C000022014B1A707047480200201068704784
:10181C0010B504466C3000F081FE04F13C0000F081
:10182C007DFE04F12C0000F079FE04F11C0000F0A8
:10183C0075FE201D00F072FE204610BD10B504464A
:10184C0000F5317000F06AFE04F5277000F066FEBA
:10185C0004F5237000F062FE04F51F7000F05EFECC
:10186C0004F51B7000F05AFE04F5177000F056FEDC
:10187C0004F5137000F052FE04F50F7000F04EFEEC
:10188C0004F50B7000F04AFE04F5077000F046FEFC
:10189C0004F5037000F042FE204610BD08B500F0C0
:1018AC00B5FF012201460248FFF77AFF002008BD70
:1018BC00D002002008B500F0A9FF00220146024822
:1018CC00FFF76EFF002008BDD002002013B50446C0
:1018DC00054B0A461B7805498DF800303C2301F076
:1018EC002DFC204602B010BDD4050020AC690A08BE
:1018FC0007B50F4B0F4A1B6812684FF46161134414
:10190C00181A4FF47A730C4AB0FBF2F2B0FBF3F0F6
:10191C0001FB12003C21B0FBF1F301FB1301074862
:10192C000091074900F076FD03B05DF804FB00BFA1
:10193C00040600200006002080EE36000806002079
:10194C008C6F0A0810B5114B1A781C465AB9104BFB
:10195C001B78012B04D101F027FE0E4900F0B9FFD2
:10196C000123237010BD012A0AD101F01DFE0A4982
:10197C0000F0AFFFBDE810404FF47A7001F0B4B93D
:10198C00022A04BF00221A70ECE700BFFC050020FD
:10199C00E8050020B9700A08D3700A0808B5094B8D
:1019AC001B783BB1012B09D0BDE808404FF47A708D
:1019BC0001F09AB90448FEF79BFFF5E70348FFF7DF
:1019CC001DFBF1E7FD050020DC0200205002002089
:1019DC0010B5044688B005281AD8DFE800F0032DAE
:1019EC0019476177674904A800F016FF0499684607
:1019FC00FFF76CFF01A8FEF7A8FC04A800F08EFD11
:101A0C0000F0EAFA4FF47A725F4B18605F4B1A6081
:101A1C005F4B604A19781C70117002225E4B0020DB
:101A2C001A7000F0C7FC012C40F08D805B495C48BB
:101A3C00FFF740FD08B010BD04A85A4900F0ECFEB9
:101A4C0004996846FFF742FF01A8FEF77EFC04A844
:101A5C0000F064FD00F0C0FA4FF47A724A4B186043
:101A6C004A4B4F481A60FFF7C9FAD1E74E4904A810
:101A7C0000F0D2FE04996846FFF728FF01A8FEF794
:101A8C0064FC04A800F04AFD4848FFF799FE44485E
:101A9C00FFF7CCFA4FF47A7343433C4A1360B7E731
:101AAC00434904A800F0B8FE04996846FFF70EFFFE
:101ABC0001A8FEF74AFC04A800F030FD3B48FFF7F4
:101ACC007FFE00F089FA304B1860E0E7394904A832
:101ADC0000F0A2FE04996846FFF7F8FE01A8FEF795
:101AEC0034FC04A800F01AFD2D4904A8FFF77FF977
:101AFC0004A92E48FFF758FD04A800F00FFD2E494D
:101B0C0004A800F055FD68462549FFF770F96946B1
:101B1C0004A800F0DAFD0146284800F079FD68467B
:101B2C0000F0FCFC04A800F0F9FC00F055FA164B90
:101B3C0018601B48FFF77AFA4FF47A734343002B73
:101B4C00C8BF5B42A9E7022C7FF474AF1748FFF7BC
:101B5C0037FE01F029FD1A4900F0BBFE4FF47A70F4
:101B6C0001F0C2F804A8164900F056FE6846049924
:101B7C00FFF7ACFE01A8FEF7E8FB04A800F0CEFCD2
:101B8C0058E700BFF5700A08040600200006002084
:101B9C00E8050020FD050020FC050020051E0A08B4
:101BAC00500200200E710A081E710A08D002002093
:101BBC002D710A083C710A084A710A08EC050020CC
:101BCC0052710A0808B500F021FE002802DD012040
:101BDC00FFF7FEFE002008BD08B50B48FEF75CFFC2
:101BEC000948FEF753FB40B1084B1878012818BF81
:101BFC000320BDE80840FFF7EBBE0348FEF74CFBA3
:101C0C0008B10220F5E708BDDC020020FD0500202C
:101C1C0008B5094B1B783BB90848FEF74BFE38B1A9
:101C2C0006490748FFF7EAF8BDE80840FFF78ABE07
:101C3C00FFF7CEFEF8E700BFFC050020DC02002019
:101C4C00500200207FB501F0AFFC4FF4165101F0AB
:101C5C009FFC254800F0C8FE244B25491A68254BEB
:101C6C0025481A60254A01F076F9002304222449FC
:101C7C00244800F067FB0023029304930C23ADF877
:101C8C000830214B042221490393214802AB00F078
:101C9C0059FB204A2049184801F05DF91F4A204998
:101CAC00154801F058F91F48FEF766FB1D48FEF772
:101CBC00E7FA98B101F078FC1B4900F00AFE1A49CA
:101CCC0002A800F0A9FD02996846FFF7FFFD01A8E4
:101CDC00FEF73BFB02A800F021FC0120FFF778FE89
:101CEC0007B05DF804FB00BF0000E0C0040000205A
:101CFC00D11B0A08400600201B2F0A0864710A0831
:101D0C00080600207B710A0819180A08EC05002047
:101D1C008A710A0898710A08A9180A08A9710A0890
:101D2C00C1180A08DC020020BB710A0810B586B085
:101D3C0000F052F90446FFF7DBFD294B1868294BDC
:101D4C00241A1B689C42284B1B782BD8022B0BD0D7
:101D5C00033B022B02D82548FFF7A0FC4FF47A7006
:101D6C0000F0C2FF06B010BD2048FFF729FD4FF46C
:101D7C007A7000F0B9FF02A81D4900F04DFD0299E0
:101D8C006846FFF7A3FD01A8FEF7DFFA02A800F0F2
:101D9C00C5FB184800F0A8FFFFF700FE1348FFF73B
:101DAC000FFDD8E7052BDDD801A252F823F000BFB8
:101DBC00D51D0A08DB1D0A08711D0A08E11D0A0859
:101DCC00E91D0A08E11D0A08FFF706FFCAE7FFF73D
:101DDC001FFFC7E70120FFF7FBFDC3E70520FAE76C
:101DEC000406002000060020E8050020D002002098
:101DFC00D7710A08A0BB0D0000B5274889B0FEF7C3
:101E0C00EDFF002843D12448FEF7EEFF28B322480B
:101E1C00FFF70CF900281BDA0520FFF7D9FD1F4945
:101E2C00684600F0C5FB1C4904A8FEF7E0FF04A9B6
:101E3C00684600F04AFC0146194800F0E9FB04A88A
:101E4C0000F06CFB684600F069FB09B05DF804FB20
:101E5C000420FFF7BDFD1349E2E74FF47A7000F060
:101E6C0043FF04A8104900F0D7FC04996846FFF71B
:101E7C002DFD01A8FEF769FA04A800F04FFB032022
:101E8C00FFF7A6FD0949064800F0E4FBDDE7022058
:101E9C00FFF79EFDD9E700BF500200204A710A08E7
:101EAC00EC050020EA710A08F4710A0807720A08A6
:101EBC0000222DE9F843274B274F284C284D1A7048
:101ECC00DFF8C8803846274900F072FB22462946C5
:101EDC00384601F055FE244E4046244900F068FB7C
:101EEC0022462946404601F04BFEDFF8A4903046CE
:101EFC001F4900F05DFB22462946304601F040FEAA
:101F0C0042463946DFF88C801A4F4846FEF746F9B0
:101F1C0022464846184901F033FE3A4631464046BF
:101F2C00FEF730FF22464046144901F029FE144EBC
:101F3C0039461448FFF7A4FB012000F057F930464E
:101F4C00114900F035FB224629463046BDE8F843DE
:101F5C0001F016BED4050020D80500204002002058
:101F6C0029250A080F720A08B405002058720A08BD
:101F7C0071720A08A6720A0849180A081D180A087C
:101F8C00EC050020D0020020F66A0A08C4050020E7
:101F9C00DC0200205002002008B5024B1B689B6835
:101FAC00019308BDB001060808B5024B1B68DB683D
:101FBC00019308BDB001060808B5024B1B681B69EC
:101FCC00019308BDB001060808B5024B1B685B689D
:101FDC00019308BD9C01060808B5024B1B685B69A0
:101FEC00019308BD9C01060808B5024B1B689B6A4F
:101FFC00019308BD9C01060808B5024B1B685B6C7D
:10200C00019308BD9C01060808B5024B1B689B6C2C
:10201C00019308BD9C01060808B5024B1B689B6D1B
:10202C00019308BD9C01060808B5024B1B685B6E4A
:10203C00019308BD9C01060808B5024B1B685B6C3C
:10204C00019308BDD001060808B5024B1B689B6CB8
:10205C00019308BDD001060808B5024B1B689B69AB
:10206C00019308BDC401060808B5024B1B685B6AE6
:10207C00019308BDC401060808B5024B1B689B6A96
:10208C00019308BDC401060808B5024B1B68DB6A46
:10209C00019308BDC401060808B5024B1B681B6BF5
:1020AC00019308BDC401060808B5024B1B685B6BA5
:1020BC00019308BDC401060808B5024B1B689B6B55
:1020CC00019308BDC401060808B5024B1B681B6CC4
:1020DC00019308BDC401060808B5024B1B681B6EB2
:1020EC00019308BDAC01060808B5024B1B685B6E7A
:1020FC00019308BDAC01060808B5024B1B689B6E2A
:10210C00019308BDAC01060808B5024B1B68DB6ED9
:10211C00019308BDAC01060808B5024B1B681B6F88
:10212C00019308BDAC01060808B5024B1B685B6F38
:10213C00019308BDAC01060808B5034B1B68D3F826
:10214C008030019308BD0000AC01060808B5024BB5
:10215C001B68DB69019308BDB401060808B5024B86
:10216C001B681B6A019308BDB401060808B5024B35
:10217C001B681B68019308BDD801060808B5024B03
:10218C001B685B68019308BDD801060808B5024BB3
:10219C001B681B69019308BDD801060808B5024BE2
:1021AC001B685B69019308BDD801060808B5024B92
:1021BC001B689B69019308BDD801060808B5024B42
:1021CC001B68DB69019308BDD801060808B5024BF2
:1021DC001B681B6A019308BDD801060808B5024BA1
:1021EC001B689B6C019308BDC001060808B5024B27
:1021FC001B681B6D019308BDC001060808B5024B96
:10220C001B681B68019308BDA401060808B5024BA6
:10221C001B685B68019308BDA401060808B5024B56
:10222C001B685B69019308BDA401060808B5024B45
:10223C001B68DB6C019308BDA401060808B5024BB2
:10224C001B685B6D019308BDA401060808B5024B21
:10225C001B689B6D019308BDA401060808B5034BD0
:10226C001B68D3F89030019308BD0000A401060848
:10227C0008B5034B1B68D3F89C30019308BD0000D4
:10228C00A401060808B5024B1B685B68019308BDE6
:10229C00C801060808B5024B1B689B68019308BD72
:1022AC00C801060808B5024B1B68DB68019308BD22
:1022BC00C801060808B5024B1B681B69019308BDD1
:1022CC00C801060808B5024B1B685B69019308BD81
:1022DC00C801060808B5024B1B689B69019308BD31
:1022EC00C801060808B5024B1B68DB69019308BDE1
:1022FC00C801060808B5024B1B681B6A019308BD90
:10230C00C801060808B5024B1B681B6B019308BD7E
:10231C00C801060808B5024B1B685B6B019308BD2E
:10232C00C801060808B5024B1B681B6C019308BD5D
:10233C00C801060808B5024B1B685B6C019308BD0D
:10234C00C801060808B5024B1B681B68019308BD41
:10235C00CC01060808B5024B1B685B68019308BDED
:10236C00CC01060808B5024B1B689B68019308BD9D
:10237C00CC01060808B5024B1B685B69019308BDCC
:10238C00CC01060808B5024B1B68DB69019308BD3C
:10239C00CC01060808B5024B1B681B6A019308BDEB
:1023AC00CC01060808B5024B1B685B6A019308BD9B
:1023BC00CC01060808B5024B1B689B6A019308BD4B
:1023CC00CC01060808B5024B1B681B6B019308BDBA
:1023DC00CC01060808B5024B1B68DB6B019308BDEA
:1023EC00CC01060808B5024B1B681B68019308BD9D
:1023FC00A001060808B5024B1B685B68019308BD79
:10240C00A001060808B5024B1B689B68019308BD28
:10241C00A001060808B5024B1B68DB68019308BDD8
:10242C00A001060808B5024B1B681B69019308BD87
:10243C00A001060808B5024B1B689B69019308BDF7
:10244C00A001060808B5024B1B68DB69019308BDA7
:10245C00A001060808B5024B1B681B6A019308BD56
:10246C00A001060808B5024B1B685B6A019308BD06
:10247C00A001060808B5024B1B68DB6A019308BD76
:10248C00A001060808B5024B1B681B6B019308BD25
:10249C00A001060808B5024B1B685B6C019308BDD4
:1024AC00A001060870B5002604460D4640F8086FDA
:1024BC00FFF7C2FD28462570FFF748FE20466660F0
:1024CC0070BD10B50446006818B1FFF793FF0023E8
:1024DC00236010BD10B50446FFF7F3FF204610BD76
:1024EC000222002010B5084B084C1A60084B2060E3
:1024FC00A080A071A360FFF789FE2046BDE81040C4
:10250C00044A054901F03CBB340600202806002093
:10251C000000FFFF40020020E1240A0810B5044629
:10252C000068FFF767FF204610BD10B50446006831
:10253C0008B1FFF75FFF0023C4E90133236010BD2E
:10254C0038B504460D4600680131FFF75BFF10B14A
:10255C00C4E90005012038BD10B50368044623B159
:10256C0043688B4201D3012010BD2046FFF7E8FFE2
:10257C000028F9D0A368002BF5D122681370F2E77C
:10258C0070B50E46114604461546FFF7E5FF20B917
:10259C002046FFF7CAFF204670BD2A463146206808
:1025AC00A56002F081FC00212268A368D154F2E7F7
:1025BC0038B5002304460D46C0E90033836003732D
:1025CC0039B1084603F0C8FC294602462046FFF7FD
:1025DC00D7FF204638BD38B5054600680C4668B1B3
:1025EC006A688B689A4207D3096802F02EFFA368C9
:1025FC00AB600023A36038BDFFF7FCFE23682B60A3
:10260C0063686B60A368AB600023C4E90033F1E737
:10261C00884210B50B46044604D0096821B19A686B
:10262C00FFF7AEFF204610BDFFF77FFFFAE7002350
:10263C0010B50446C0E9003383600373FFF7E8FF6D
:10264C00204610BD884210B5044601D0FFF7C3FFE9
:10265C00204610BD38B505460C4649B1084603F076
:10266C007BFC214602462846FFF78AFF284638BDE8
:10267C00FFF75BFFFAE770B505460E4609B9002077
:10268C0070BD6AB1846814442146FFF765FF0028C9
:10269C00F5D02868AB683146184402F0D6FEAC6021
:1026AC000120EDE78A680968FFF7E5BF38B50546F4
:1026BC000C46084641B103F04FFC21460246284621
:1026CC00BDE83840FFF7D7BF38BD10B58A68096838
:1026DC000446FFF7D0FF10B92046FFF726FF20462F
:1026EC0010BD38B504460D4621B92046FFF71DFF35
:1026FC00204638BD084603F02FFC294602462046EA
:10270C00FFF7B9FF0028F0D0F2E7024600680B464D
:10271C00096858B141B9916851B10078704798680F
:10272C0038B109784842704702F085BE0029F6D1CD
:10273C000846704708B582688B689A4205D1FFF746
:10274C00E4FFB0FA80F0400908BD0020FCE708B5B2
:10275C0082683AB921B10878B0FA80F0400900E0FB
:10276C00012008BD006809B90078F5E702F063FEA6
:10277C00F2E783688B4203D9006810B1405C704764
:10278C0000207047FFF7F5BF10B58368934206D958
:10279C000468A01802F042FE08B1001B10BD4FF0F7
:1027AC00FF30FBE710B58368934207D904680968CA
:1027BC00A01803F0FEFB08B1001B10BD4FF0FF305A
:1027CC00FBE70022FFF7EEBFF8B51D469A4288BF23
:1027DC0013460F46144688BF2C460B4988BF1D462E
:1027EC000646FFF7E5FEBA68A2420AD33968AA4248
:1027FC0094BFC4EB0202C4EB050230462144FFF740
:10280C00BFFE3046F8BD00BFF66A0A08006808B182
:10281C0002F042BA704700000EB4FFB509AD55F88E
:10282C00047B04462B463A46052102A80195FFF786
:10283C0019FE06460B492046FFF7BAFE31462046E4
:10284C00FFF78AFE206830B12B463A46711C019581
:10285C00FFF708FEA060204604B0BDE8F04003B0CE
:10286C00704700BFF66A0A08F8B506460D46002404
:10287C008F18BD420CD0336830469B6815F8011B8D
:10288C009847031E01DB1C44F3E7002C08BF1C46D1
:10289C002046F8BD70B505460C46084649B103F014
:1028AC005BFB2B68024621462846BDE87040DB687E
:1028BC00184770BD03689B68184738B50D2105464D
:1028CC00FFF7F8FF0A2104462846FFF7F3FF2044E0
:1028DC0038BD38B50546FFF7DDFF04462846FFF73F
:1028EC00ECFF204438BD0023012A98BF0A2230B5E2
:1028FC008BB00C468DF8243009A92546B4FBF2F4B4
:10290C0004FB1253DBB2092B94BF30333733DBB2E9
:10291C00AA4201F8013DF0D9FFF7BCFF0BB030BD66
:10292C00002340681A461946FFF7CCBC0B680360BD
:10293C0013B15A6801325A6070470000014B024AC9
:10294C001A60704738060020A7720A082DE9F0417A
:10295C00154ADFF86080D2E90032C01842EB010161
:10296C00124A8CB0D2E90032C61841EB0207D8E902
:10297C000023BB4208BFB24213D003A96846CDE97D
:10298C00006702F09BF9089B094D03F26C7303ACD2
:10299C0008930FCC0FC50FCC0FC5C8E9006723688F
:1029AC002B600CB0BDE8F08170060020680600209A
:1029BC00440600207806002008B50020FFF702FD31
:1029CC0028B1FFF7D7FC80F00100C0B208BD012090
:1029DC00FCE7000008B5FFF7B9FF024B186901309E
:1029EC0008BD00BF4406002010B50A49044601F09A
:1029FC006DFF68B92046084901F086FF40B90749C8
:102A0C00204601F0C5FD01F089FF054BC3E900012B
:102A1C0010BD00BF000040C10000604100006145D6
:102A2C007006002030B50446184893B0D0E9001069
:102A3C00521840EB030316480025D0E90010521839
:102A4C0040EB0303CDE90023242200210DEB02000F
:102A5C0002F038FA09A9684602F030F91622294624
:102A6C0003A8029502F02EFA02A909A802F0EEF8CA
:102A7C0002A803F071FA12AB184400F8415C02A9E9
:102A8C002046FFF795FD204613B030BD70060020A0
:102A9C00680600202DE9F04FA5B00746884614A81B
:102AAC0011463F221D4603F071FA002314A88DF83D
:102ABC008F3003F051FA04465DBB2A4903A802F09B
:102ACC00C4FC002514AE04F1FF3BAB4536D9B1462E
:102ADC0019F8013B05F1010A252B17D173787A2BD4
:102AEC0014D103A803F038FA044614AB2818184480
:102AFC00ABEB0502B11C02F0D7F9224603A9304614
:102B0C0002F0D2F914A803F027FA04464E465546B3
:102B1C00D9E73C2195FBF1F3002BB8BF5B42B3FB2B
:102B2C00F1F201FB123300934FF46163102195FB1A
:102B3C00F3F30D4A03A8FFF785FCC2E700212E2210
:102B4C0008A8079102F0BEF9434614AA322107A83F
:102B5C0003F0F8F9384607A9FFF72AFD384625B0E7
:102B6C00BDE8F08FA5770A08AB720A08F0B58DB0F6
:102B7C00129D0446CDE9002315B9194B1D682DB1E2
:102B8C00184B2846196802F056FC38B9DDE90023C9
:102B9C002046FFF747FF20460DB0F0BD0099124EBE
:102BAC00124FD6E900325B18019941EB0202D7E9CA
:102BBC0000011B1841EB0202CDE900320021242256
:102BCC0003A802F07FF903A9684602F077F832688F
:102BDC003B682046134403A92A46FFF75BFFDAE75C
:102BEC00400600200000002070060020680600202F
:102BFC0010B50020FFF710FA0446A0B9FFF7FEFA53
:102C0C00012810D12046FFF721FB60B9FFF7D4FE55
:102C1C0010B9FFF7A7FBF9E7FFF7CEFEBDE81040B0
:102C2C000020FFF7F9B9204610BD1FB5FFF7E0FFF4
:102C3C0010220021684602F045F900216846FFF792
:102C4C00F3F9009805B05DF804FB000008B5FFF738
:102C5C00ECFFC117FFF77AFE014B986808BD00BF67
:102C6C004406002008B5FFF7E0FFC117FFF76EFE22
:102C7C00014B586808BD00BF4406002008B5FFF79B
:102C8C00D4FFC117FFF762FE014B186808BD00BFE7
:102C9C004406002008B5FFF7C8FFC117FFF756FE22
:102CAC00014BD86808BD00BF4406002008B5FFF7EB
:102CBC00BCFFBDE80840C117FFF78CBE08B5FFF795
:102CCC00B4FFC117FFF742FE014B586908BD00BFA6
:102CDC0044060020024B1A68024B1A60704700BF72
:102CEC0000000020400600200021FFF797BA10B525
:102CFC000446FDF749FA204610BD13B56C460B4649
:102D0C00024603C884E8030093E8030082E803004A
:102D1C0094E8030083E8030002B010BD00230348CD
:102D2C00034A0449836000F02BBF00BF80060020DB
:102D3C0040020020FB2C0A08014B1860704700BFB2
:102D4C000800002008B5134B43B100F02DFC0368BC
:102D5C001B699847002801DDAFF300800E4B43B18F
:102D6C0000F0CCFC03681B699847002801DDAFF329
:102D7C0000800A4B0BB1AFF30080094B43B100F05C
:102D8C0043FC03681B699847002801DDAFF3008002
:102D9C0008BD00BF000000000000000000000000A3
:102DAC000000000008B5FFF7CDFFFFF715F9014B48
:102DBC00186008BD080700200248034A0349121A8C
:102DCC0002F072B8004002400440024028790A0820
:102DDC00002307B51A466FF077010093FFF748FA06
:102DEC0003B05DF804FB000007B543880A2B08D03C
:102DFC00502B0BD1094B1B684BB103B05DF804EBA6
:102E0C001847FFF7E5FF03B05DF804FB00231A46F3
:102E1C006FF077010093FFF72BFAF4E7940600208C
:102E2C0038B5124C00211248FFF734FB114D2368C2
:102E3C00AB420CBF012200220F4B1A7002D0FFF7DD
:102E4C00BBFF2560FFF7C0F8044602F0C3FA0B4B3A
:102E5C0013B12046AFF3008000210848FFF7BAFAFF
:102E6C00BDE8384000210648FFF7F8B900400240A1
:102E7C00452D0A081E1C279A900600200000000011
:102E8C00F52D0A0870470020704710B50446102134
:102E9C0000F07BFE204610BD08B5FFF7F6FF08BD1D
:102EAC00002230B54FF69C74026084808D888C8033
:102EBC000C68858004600A6030BD10B5044600685B
:102ECC00FFF798FA204610BD38B5C468F4B12378E2
:102EDC00022B03D104F10C00FFF7EFFF656835B14D
:102EEC002846FDF751F91021284600F04EFEA56842
:102EFC0035B12846FDF748F91021284600F045FE6B
:102F0C002046BDE83840142100F03FBE38BD10B556
:102F1C0088B004466846FFF74BFB694604A8FFF7E8
:102F2C0086FB04A8A047044604A8FFF7F7FA6846F6
:102F3C00FFF7F4FA204608B010BD07B5CDE9001232
:102F4C0082680AB900F025FE6946C36801AA984751
:102F5C0003B05DF804FB1FB500231024CDE902017A
:102F6C00019269461A461846ADF80230ADF8004099
:102F7C00FFF7F0F904B010BD73B50E46044656F8D1
:102F8C00043B0D4601A831460093FFF7CFFC009B94
:102F9C00019A23600023626001A801930093FDF75E
:102FAC00D4F93046FDF7D1F92846082100F0EDFDA3
:102FBC00204602B070BD826810B50AB900F0E9FD78
:102FCC00C368BDE81040184708B5006800F110014F
:102FDC00FFF7F1FF08BD826810B50AB900F0D9FD02
:102FEC00C368BDE81040184708B5006800F110012F
:102FFC00FFF7F1FF08BD000038B50023044603605D
:10300C0010200D46FDF741F828B10123C0E901332A
:10301C00024BC56003602060204638BDDC720A0894
:10302C0038B5002383608B6804460D462BB1022211
:10303C009847EB68E360AB68A360204638BD00009E
:10304C00F0B589B004686846FFF72AFF4FF0020319
:10305C00D4E84F2F002A03D1C4E8413F0029F7D10F
:10306C0025D104F10C0569462846FFF719FF012309
:10307C00BFF35B8F63700020BFF35B8F04F1080319
:10308C0053E8006F43E80002002AF9D1BFF35B8FCD
:10309C006EB1FFF7CBF878B129463046FFF78BFFBE
:1030AC003046FDF771F81021304600F06EFD684691
:1030BC00FFF703FF09B0F0BD314602A8FFF7B0FFE0
:1030CC00E068B4F9105008B102F0C8F9069010206D
:1030DC00ADF81C50FCF7D9FF0546E8B10027876016
:1030EC001820FCF7D2FF044688B10146876002A87D
:1030FC00FFF703FE049BA268A360059B0492E268A1
:10310C0006A9E36004F110000592FFF7C9FE084B15
:10311C002C60EB60074BAB6006A8FFF7CEFE02A855
:10312C00FDF732F8002229460348FFF787F8B7E786
:10313C00D52F0A086D320A088D370A082DE9F04799
:10314C008AB005460C46174698469DF84890FFF7FE
:10315C0011F907AE824638BB4FF62E73059005A9C0
:10316C003046ADF81830FFF79BFE1420FCF78DFFAE
:10317C00044648B1022303700123C0E901AA43703D
:10318C0031460C30FFF78CFE2846214640F8044BA4
:10319C00FFF732FF3046FFF790FE05A8FFF78DFED4
:1031AC0028460AB0BDE8F0870C234FF0000A142023
:1031BC00CDE908AA0793FCF768FF014628B1C0E9DE
:1031CC0001AA80F800A080F801A004A80391FFF7E1
:1031DC0013FF224B08200893FCF757FF824628B1B7
:1031EC00039B04A940F8043BFFF7A0FB4246394679
:1031FC00204600965FFA89F3CDF824A0FFF7CAF8B1
:10320C00B8B9039B5B7803F0FF0293B94FF69C733C
:10321C0005A903A80592ADF81830FFF711FF05A812
:10322C00FFF74BFE05A80999FFF7A6FE06A8FDF7C8
:10323C008CF8039B04A906A80593FFF777FB059B65
:10324C00069A2B6000236A6006A806930593FDF787
:10325C007CF804A8FDF779F8A2E700BF31330A081F
:10326C00022AF8B5054607D0032A18D0012A01D145
:10327C000B6803600020F8BD18200E68FCF705FFF2
:10328C00044650B13146FFF7CBFE3069B6F91470E5
:10329C0008B102F0E3F82061A7822C60EAE7046829
:1032AC00002CE7D004F11000FFF707FE2046FCF7D6
:1032BC006BFF1821204600F068FCDBE738B50023D3
:1032CC0083608B6804460D462BB102229847EB684D
:1032DC00E360AB68A360204638BD022A70B5044693
:1032EC0007D0032A12D0012A01D10B6803600020F9
:1032FC0070BD14200E68FCF7C8FE054620B131469F
:10330C00FFF7DCFF337C2B742560F0E70468002C9E
:10331C00EDD02046FCF738FF1421204600F035FC98
:10332C00E5E70000F0B5044689B00D4601A811464A
:10333C00FFF722FEA4B124B21DB1284602F08EF88C
:10334C00054601A803A90395ADF81040FFF778FED8
:10335C0003A8FFF7B2FD02A8FCF7F7FF09B0F0BD18
:10336C000123019DD5E84F2F002A03D1C5E8413F29
:10337C000029F7D1EFD12B73BFF35B8F6B70BFF3C9
:10338C005B8F2B1D53E8006F43E80042002AF9D1F4
:10339C00BFF35B8F002EDED02046FEF747FF0746BB
:1033AC0060B1304605F10C01FFF715FE3046FCF715
:1033BC00EBFE1021304600F0E8FBCCE7314603A8C9
:1033CC00FFF77CFF2B7B10208DF81C30FCF75DFE8B
:1033DC000546D0B187601420FCF757FE044678B13F
:1033EC000146876003A8FFF788FC059BA268A360D1
:1033FC00069B0592E268E3609DF81C3006922374EC
:10340C00064B2C60EB60064BAB6003A8FCF7BCFED4
:10341C00002229460348FEF711FFC7E7F52F0A08DB
:10342C00E7320A088D370A08704710B50446182190
:10343C0000F0ABFB204610BDF8B50E46002400F1A1
:10344C000807051D17F8011D0A223046FFF74BFA35
:10345C00AF42044401D12046F8BD002CF2D02E21FD
:10346C003046FFF727FA0444ECE7000010B5044699
:10347C00044B1122002140F8043B01F023FD2046AF
:10348C0010BD00BFF8720A080346074A10B543F88E
:10349C00042B01F1100251F8044B914243F8044BF8
:1034AC00F9D10A781A7010BDF8720A08024AC0E9FC
:1034BC000021042202757047F8720A0810B59DF8B5
:1034CC00084044EA0324042344EA024444EA016425
:1034DC004460037510BD000037B5044D05609DF8C0
:1034EC0018500095FFF7EAFF03B030BDF8720A08D8
:1034FC0041747047704708B50021007CFEF756FEFA
:10350C0040EAE07008BD08B50121007CFEF74EFED4
:10351C0040EAE07008BD08B5007CFEF73FFE20EAEB
:10352C00E07008BD08B5007CFEF730FE20EAE070C4
:10353C0008BD38B50446007C0D46FEF72FFE00286A
:10354C0001DC607C28B12946207CFEF737FE20EA9E
:10355C00E07038BD007CFEF739BE10B5044614216E
:10356C0000F013FB204610BD10B54FF47A730446DF
:10357C0008460021C4E90113044B20742360012385
:10358C0011466374FEF7F2FD204610BD0C730A0859
:10359C000022007CFEF7F2BD10B504461422002177
:1035AC0001F090FC204610BD30B50F4D87B001A83E
:1035BC00FFF7F2FF2978BFF35B8F11F0010410D1F4
:1035CC002846FCF768FD60B1214601AA0748FFF7C1
:1035DC00CBFF2846FCF764FD054A0649034800F07A
:1035EC00CFFA024807B030BD98060020A006002094
:1035FC004002002001350A0810B5044614220021AF
:10360C0001F060FC204610BD10B50F4C86B001A82F
:10361C00FFF7F2FF2378BFF35B8FDB0710D4204654
:10362C00FCF739FD60B1012101AA0848FFF79CFFA6
:10363C002046FCF735FD064A0649044800F0A0FA7E
:10364C00024806B010BD00BF9C060020B406002046
:10365C004002002001350A0870474174704708B5D4
:10366C00007CFEF731FD20EAE07008BD08B5007C57
:10367C00FEF702FD20EAE07008BD08B5007CFEF7FD
:10368C000BFD40EAE07008BD08B5007CFEF7FCFCC1
:10369C0040EAE07008BD007CFEF706BD70B5467CC4
:1036AC0004460D462EB12946207CBDE87040FEF73D
:1036BC00DBBC007CFEF708FD0028F4DC304670BD56
:1036CC0010B50446142100F060FA204610BD00002D
:1036DC004FF0000C10B50446084611464FF47A72B0
:1036EC00C4E901C2044A20742260012262741A46A1
:1036FC00FEF7B2FC204610BD3C730A08F8B51A4C14
:10370C0026684EB98420FCF7C0FC054618B184220B
:10371C00314601F0D7FB2560144D2F684FB984203A
:10372C00FCF7B3FC064618B18422394601F0CAFBFB
:10373C002E600F4F3978BFF35B8F11F0010611D15A
:10374C003846FCF7A8FC68B1314622682B6809485A
:10375C00FFF7BEFF3846FCF7A3FC074A07490548AC
:10376C0000F00EFA0348F8BDCC060020D00600206D
:10377C00C8060020D40600204002002065360A0846
:10378C0010B5836804460BB900F003FAC368984778
:10379C00A3681BB103222146204698472046BDE86A
:1037AC001040102100F0F1B97047F8B506461546E7
:1037BC000C468F18BC4206D0336830469B6814F810
:1037CC00011B9847F6E72846F8BD0022007CFEF75F
:1037DC0083BC0021007CFEF787BC0021007CFEF737
:1037EC008BBC0021007CFEF78FBC0021007CFEF717
:1037FC0093BC10B50446142100F0C7F9204610BD47
:10380C0010B54FF47A73044608460021C4E901133D
:10381C00034B114623602074FEF78EFC204610BD2E
:10382C006C730A08002240681146FEF743BDF0B5E0
:10383C00154689B011220E460446002103A801F05A
:10384C0041FB284602F088FB002781B273682846AA
:10385C00009703AAFEF7C2FC30B139462046FFF7A9
:10386C0025FE204609B0F0BD204603A9FFF70CFE4B
:10387C00F7E7002240681146FEF73CBD0022406885
:10388C001146FEF747BD00224068FEF73BBD002203
:10389C00406881F00101FEF725BD002340681A46FF
:1038AC001946FEF717BD002240681146FEF7F2BC20
:1038BC00002202214068FEF7F5BC002340681A463E
:1038CC00FEF7E0BC0422024B5A60024A1A607047B1
:1038DC00E806002094730A08002340681A46FEF795
:1038EC00D1BC002202214068FEF7DCBC00224068FB
:1038FC001146FEF7CFBC002240681146FEF7DABC39
:10390C00002340681A461946FEF7DCBC00234068C9
:10391C001A461946FEF7DEBC00214068FEF702BDD0
:10392C0000214068FEF706BD0022406881F00101CD
:10393C00FEF7D8BC00224068FEF7E4BC00224068C9
:10394C001146FEF7E7BC002240681146FEF7D2BCD8
:10395C0070B515468EB0044608A8FFF787FD1122F6
:10396C00002103A801F0AEFA0026284602F0F4FA72
:10397C000A4B009681B25B68284603AAFEF72EFC20
:10398C0030B131462046FFF791FD20460EB070BD98
:10399C00204603A9FFF778FDF7E700BFE8060020F3
:1039AC00024B034A1A6000225A607047F00600204E
:1039BC00D0730A0810B50446806808B1FEF744FBC2
:1039CC00204610BD172870B5044601D9002070BDE3
:1039DC00A0F10D03022B0BD9012826D800F0A8F872
:1039EC000021007CFEF7A0FB80F00100C0B2EEE7E6
:1039FC00134E3178BFF35B8F11F001050FD13046B8
:103A0C00FCF749FB58B129460E48FEF74BFD3046F2
:103A1C00FCF746FB0C4A0D490A4800F0B1F8094B7B
:103A2C001878FEF79BFB0028D0D1123C012C05D84E
:103A3C00FFF764FE007CFEF73FFBD5E70120C6E7ED
:103A4C00F8060020FC06002040020020C1390A08BC
:103A5C00172838B504460D460AD8FF2908D0FFF7B9
:103A6C00B1FF28B129462046BDE83840FEF794BA8C
:103A7C0038BD38B504460D46FEF796FAFF2810D02F
:103A8C00062804D84D2323FA00F0C30709D4204696
:103A9C00FFF798FF28B129462046BDE83840FEF7CD
:103AAC008BBA38BD10B5084C2378BFF35B8FDB079E
:103ABC0008D42046FCF7EFFA20B1FEF795FA204621
:103ACC00FCF7EEFA014810BD0C070020100700208F
:103ADC00002313B5074C1A46194620460093FFF7EE
:103AEC00FBFC2046044A054902B0BDE8104000F03A
:103AFC0047B800BF140700204002002035340A08E4
:103B0C00002370B5202543801423084E04460380FF
:103B1C00314685600561284600F039F83146606011
:103B2C00284600F034F8E060204670BD04740A08A2
:103B3C0030B50F4D87B02978BFF35B8F11F00104BE
:103B4C0013D12846FCF7A7FA78B101A8FFF7D8FFE4
:103B5C00214601AA0748FFF753FE2846FCF7A0FAB6
:103B6C00054A0649034800F00BF8024807B030BD7F
:103B7C002C0700203007002040020020B5370A082F
:103B8C000B460146184601F08BB8FCF782BAFCF7DD
:103B9C007EBA08B5FEF76EFC81F0004102E000BF72
:103BAC0083F0004330B54FEA41044FEA430594EAF1
:103BBC00050F08BF90EA020F1FBF54EA000C55EA2C
:103BCC00020C7FEA645C7FEA655C00F0E2804FEAFD
:103BDC005454D4EB5555B8BF6D420CDD2C4480EADF
:103BEC00020281EA030382EA000083EA010180EA0F
:103BFC00020281EA0303362D88BF30BD11F0004F5D
:103C0C004FEA01314FF4801C4CEA113102D0404292
:103C1C0061EB410113F0004F4FEA03334CEA1333CD
:103C2C0002D0524263EB430394EA050F00F0A780E5
:103C3C00A4F10104D5F1200E0DDB02FA0EFC22FAE0
:103C4C0005F2801841F1000103FA0EF2801843FAD4
:103C5C0005F359410EE0A5F120050EF1200E012AC5
:103C6C0003FA0EFC28BF4CF0020C43FA05F3C01803
:103C7C0051EBE37101F0004507D54FF0000EDCF17C
:103C8C00000C7EEB00006EEB0101B1F5801F1BD325
:103C9C00B1F5001F0CD349085FEA30004FEA3C0C29
:103CAC0004F101044FEA445212F5800F80F09A801F
:103CBC00BCF1004F08BF5FEA500C50F1000041EB23
:103CCC00045141EA050130BD5FEA4C0C404141EB27
:103CDC000101013C28BFB1F5801FE9D291F0000F22
:103CEC0004BF01460020B1FA81F308BF2033A3F1D1
:103CFC000B03B3F120020CDA0C3208DD02F1140CC8
:103D0C00C2F10C0201FA0CF021FA02F10CE002F102
:103D1C001402D8BFC2F1200C01FA02F120FA0CFCFB
:103D2C00DCBF41EA0C019040E41AA2BF01EB045144
:103D3C00294330BD6FEA04041F3C1CDA0C340EDC42
:103D4C0004F11404C4F1200220FA04F001FA02F385
:103D5C0040EA030021FA04F345EA030130BDC4F143
:103D6C000C04C4F1200220FA02F001FA04F340EA38
:103D7C000300294630BD21FA04F0294630BD94F0E9
:103D8C00000F83F4801306BF81F480110134013DD0
:103D9C004EE77FEA645C18BF7FEA655C29D094EA41
:103DAC00050F08BF90EA020F05D054EA000C04BFBF
:103DBC001946104630BD91EA030F1EBF00210020AA
:103DCC0030BD5FEA545C05D14000494128BF41F049
:103DDC00004130BD14F580043CBF01F5801130BDAD
:103DEC0001F0004545F0FE4141F470014FF0000038
:103DFC0030BD7FEA645C1ABF194610467FEA655CE9
:103E0C001CBF0B46024650EA013406BF52EA03358A
:103E1C0091EA030F41F4002130BD00BF90F0000F78
:103E2C0004BF0021704730B54FF4806404F13204B4
:103E3C004FF000054FF0000150E700BF90F0000F6D
:103E4C0004BF0021704730B54FF4806404F1320494
:103E5C0010F0004548BF40424FF000013EE700BF64
:103E6C0042004FEAE2014FEA31014FEA02701FBFF4
:103E7C0012F07F4393F07F4F81F06051704732F026
:103E8C007F4208BF704793F07F4F04BF41F400217D
:103E9C00704730B54FF4607401F0004521F00041DB
:103EAC001CE700BF50EA010208BF704730B54FF065
:103EBC0000050AE050EA010208BF704730B511F066
:103ECC00004502D5404261EB41014FF4806404F19E
:103EDC0032045FEA915C3FF4D8AE4FF003025FEA24
:103EEC00DC0C18BF03325FEADC0C18BF033202EBA8
:103EFC00DC02C2F1200300FA03FC20FA02F001FA02
:103F0C0003FE40EA0E0021FA02F11444BDE600BFA4
:103F1C0070B54FF0FF0C4CF4E06C1CEA11541DBF53
:103F2C001CEA135594EA0C0F95EA0C0F00F0DEF81E
:103F3C002C4481EA030621EA4C5123EA4C5350EA03
:103F4C00013518BF52EA033541F4801143F4801354
:103F5C0038D0A0FB02CE4FF00005E1FB02E506F0E5
:103F6C000042E0FB03E54FF00006E1FB03569CF03A
:103F7C00000F18BF4EF0010EA4F1FF04B6F5007F40
:103F8C0064F5407404D25FEA4E0E6D4146EB0606B2
:103F9C0042EAC62141EA55514FEAC52040EA5E503B
:103FAC004FEACE2EB4F1FD0C88BFBCF5E06F1ED8E5
:103FBC00BEF1004F08BF5FEA500E50F1000041EB1C
:103FCC00045170BD06F0004646EA010140EA0200C9
:103FDC0081EA0301B4EB5C04C2BFD4EB0C0541EAEB
:103FEC00045170BD41F480114FF0000E013C00F300
:103FFC00AB8014F1360FDEBF002001F0004170BD24
:10400C00C4F10004203C35DA0C341BDC04F114043C
:10401C00C4F1200500FA05F320FA04F001FA05F2C8
:10402C0040EA020001F0004221F0004110EBD37095
:10403C0021FA04F642EB06015EEA430E08BF20EAC1
:10404C00D37070BDC4F10C04C4F1200500FA04F364
:10405C0020FA05F001FA04F240EA020001F00041F6
:10406C0010EBD37041F100015EEA430E08BF20EA69
:10407C00D37070BDC4F1200500FA05F24EEA020EB1
:10408C0020FA04F301FA05F243EA020321FA04F0E0
:10409C0001F0004121FA04F220EA020000EBD37097
:1040AC005EEA430E08BF20EAD37070BD94F0000F97
:1040BC000FD101F00046400041EB010111F4801FCB
:1040CC0008BF013CF7D041EA060195F0000F18BF7C
:1040DC00704703F00046520043EB030313F4801FB8
:1040EC0008BF013DF7D043EA0603704794EA0C0F72
:1040FC000CEA135518BF95EA0C0F0CD050EA410688
:10410C0018BF52EA4306D1D181EA030101F0004104
:10411C004FF0000070BD50EA410606BF104619462C
:10412C0052EA430619D094EA0C0F02D150EA013638
:10413C0013D195EA0C0F05D152EA03361CBF104679
:10414C0019460AD181EA030101F0004141F0FE4118
:10415C0041F470014FF0000070BD41F0FE4141F49C
:10416C00780170BD70B54FF0FF0C4CF4E06C1CEA9C
:10417C0011541DBF1CEA135594EA0C0F95EA0C0F51
:10418C0000F0A7F8A4EB050481EA030E52EA03350C
:10419C004FEA013100F088804FEA03334FF080552D
:1041AC0045EA131343EA12634FEA022245EA11155A
:1041BC0045EA10654FEA00260EF000419D4208BF0B
:1041CC00964244F1FD0404F5407402D25B084FEAB8
:1041DC003202B61A65EB03055B084FEA32024FF464
:1041EC0080104FF4002CB6EB020E75EB030E22BFC1
:1041FC00B61A754640EA0C005B084FEA3202B6EB81
:10420C00020E75EB030E22BFB61A754640EA5C002F
:10421C005B084FEA3202B6EB020E75EB030E22BFBF
:10422C00B61A754640EA9C005B084FEA3202B6EBC0
:10423C00020E75EB030E22BFB61A754640EADC007F
:10424C0055EA060E18D04FEA051545EA16754FEAE1
:10425C0006164FEAC30343EA52734FEAC2025FEAFF
:10426C001C1CC0D111F4801F0BD141EA00014FF08E
:10427C0000004FF0004CB6E711F4801F04BF01435F
:10428C000020B4F1FD0C88BFBCF5E06F3FF6AFAE7B
:10429C00B5EB030C04BFB6EB020C5FEA500C50F10B
:1042AC00000041EB045170BD0EF0004E4EEA11318E
:1042BC0014EB5C04C2BFD4EB0C0541EA045170BD95
:1042CC0041F480114FF0000E013C90E645EA060ED9
:1042DC008DE60CEA135594EA0C0F08BF95EA0C0F07
:1042EC003FF43BAF94EA0C0F0AD150EA01347FF44F
:1042FC0034AF95EA0C0F7FF425AF104619462CE726
:10430C0095EA0C0F06D152EA03353FF4FDAE104688
:10431C00194622E750EA410618BF52EA43067FF4D9
:10432C00C5AE50EA41047FF40DAF52EA43057FF469
:10433C00EBAE12E74A0011D212F5001211D20DD5D4
:10434C006FF47873B3EB62520ED44FEAC12343F08F
:10435C00004343EA505323FA02F070474FF0000039
:10436C00704750EA013002D14FF0FF3070474FF0E8
:10437C000000704780F0004002E000BF81F0004177
:10438C0042001FBF5FEA410392EA030F7FEA226CEF
:10439C007FEA236C6AD04FEA1262D2EB1363C1BF7F
:1043AC00D218414048404140B8BF5B42192B88BFEE
:1043BC00704710F0004F40F4000020F07F4018BF11
:1043CC00404211F0004F41F4000121F07F4118BF31
:1043DC00494292EA030F3FD0A2F1010241FA03FCD9
:1043EC0010EB0C00C3F1200301FA03F100F00043C1
:1043FC0002D5494260EB4000B0F5000F13D3B0F189
:10440C00807F06D340084FEA310102F10102FE2AF7
:10441C0051D2B1F1004F40EBC25008BF20F0010067
:10442C0040EA03007047490040EB0000013A28BF06
:10443C00B0F5000FEDD2B0FA80FCACF1080CB2EB89
:10444C000C0200FA0CF0AABF00EBC2505242184307
:10445C00BCBFD0401843704792F0000F81F40001AC
:10446C0006BF80F400000132013BB5E74FEA41037F
:10447C007FEA226C18BF7FEA236C21D092EA030FEB
:10448C0004D092F0000F08BF0846704790EA010F65
:10449C001CBF0020704712F07F4F04D1400028BF92
:1044AC0040F00040704712F100723CBF00F5000074
:1044BC00704700F0004343F0FE4040F400007047AA
:1044CC007FEA226216BF08467FEA23630146420256
:1044DC0006BF5FEA412390EA010F40F48000704769
:1044EC004FF0000304E000BF10F0004348BF40420F
:1044FC005FEA000C08BF704743F0964301464FF04B
:10450C0000001CE050EA010208BF70474FF00003A6
:10451C000AE000BF50EA010208BF704711F00043E7
:10452C0002D5404261EB41015FEA010C02BF8446B7
:10453C000146002043F0B64308BFA3F18053A3F516
:10454C000003BCFA8CF2083AA3EBC25310DB01FA5D
:10455C0002FC634400FA02FCC2F12002BCF1004FE1
:10456C0020FA02F243EB020008BF20F00100704772
:10457C0002F1200201FA02FCC2F1200250EA4C00C6
:10458C0021FA02F243EB020008BF20EADC7070470C
:10459C004FF0FF0C1CEAD0521EBF1CEAD15392EA1A
:1045AC000C0F93EA0C0F6FD01A4480EA010C4002F6
:1045BC0018BF5FEA41211ED04FF0006343EA501050
:1045CC0043EA5111A0FB01310CF00040B1F5000F92
:1045DC003EBF490041EAD3715B0040EA010062F141
:1045EC007F02FD2A1DD8B3F1004F40EBC25008BF2B
:1045FC0020F00100704790F0000F0CF0004C08BF49
:10460C0049024CEA502040EA51207F3AC2BFD2F115
:10461C00FF0340EAC250704740F400004FF0000323
:10462C00013A5DDC12F1190FDCBF00F0004070475D
:10463C00C2F10002410021FA02F1C2F1200200FA9B
:10464C0002FC5FEA310040F1000053EA4C0308BF62
:10465C0020EADC70704792F0000F00F0004C02BFB3
:10466C00400010F4000F013AF9D040EA0C0093F02E
:10467C00000F01F0004C02BF490011F4000F013B88
:10468C00F9D041EA0C018FE70CEAD15392EA0C0FF6
:10469C0018BF93EA0C0F0AD030F0004C18BF31F061
:1046AC00004CD8D180EA010000F00040704790F037
:1046BC00000F17BF90F0004F084691F0000F91F0DB
:1046CC00004F14D092EA0C0F01D142020FD193EAA1
:1046DC000C0F03D14B0218BF084608D180EA010029
:1046EC0000F0004040F0FE4040F40000704740F005
:1046FC00FE4040F4400070474FF0FF0C1CEAD052D3
:10470C001EBF1CEAD15392EA0C0F93EA0C0F69D02E
:10471C00A2EB030280EA010C49024FEA402037D099
:10472C004FF0805343EA111143EA10130CF0004090
:10473C008B4238BF5B0042F17D024FF4000C8B4280
:10474C0024BF5B1A40EA0C00B3EB510F24BFA3EB60
:10475C00510340EA5C00B3EB910F24BFA3EB910330
:10476C0040EA9C00B3EBD10F24BFA3EBD10340EA8A
:10477C00DC001B0118BF5FEA1C1CE0D1FD2A3FF6D0
:10478C0050AF8B4240EBC25008BF20F00100704785
:10479C000CF0004C4CEA50207F32C2BFD2F1FF0328
:1047AC0040EAC250704740F400004FF00003013A59
:1047BC0037E792F0000F00F0004C02BF400010F4FD
:1047CC00000F013AF9D040EA0C0093F0000F01F011
:1047DC00004C02BF490011F4000F013BF9D041EA33
:1047EC000C0195E70CEAD15392EA0C0F08D1420266
:1047FC007FF47DAF93EA0C0F7FF470AF084676E739
:10480C0093EA0C0F04D14B023FF44CAF08466EE711
:10481C0030F0004C18BF31F0004CCAD130F00042DF
:10482C007FF45CAF31F000437FF43CAF5FE700BF37
:10483C004FF0FF3C06E000BF4FF0010C02E000BF60
:10484C004FF0010C4DF804CD4FEA40024FEA410302
:10485C007FEA226C18BF7FEA236C11D001B052EAB8
:10486C00530C18BF90EA010F58BFB2EB030088BF7E
:10487C00C81738BF6FEAE17018BF40F001007047ED
:10488C007FEA226C02D15FEA402C05D17FEA236CCF
:10489C00E4D15FEA412CE1D05DF8040B704700BF16
:1048AC00844608466146FFE70FB5FFF7C9FF0028AD
:1048BC0048BF10F1000F0FBD4DF808EDFFF7F4FFE6
:1048CC000CBF012000205DF808FB00BF4DF808ED7F
:1048DC00FFF7EAFF34BF012000205DF808FB00BFA2
:1048EC004DF808EDFFF7E0FF94BF012000205DF8C4
:1048FC0008FB00BF4DF808EDFFF7D2FF94BF012075
:10490C0000205DF808FB00BF4DF808EDFFF7C8FF6D
:10491C0034BF012000205DF808FB00BF10B500215A
:10492C000446FFF7D3FF20B92046BDE8104000F045
:10493C0009B804F1004000F005F8404261EB410178
:10494C0010BD00BFD0B5FFF78BFA00220B4B06460B
:10495C000F46FFF7DDFAFFF7EDFC0446FFF75EFAB2
:10496C000022074BFFF7D4FA02460B463046394675
:10497C00FFF716F9FFF7DEFC2146D0BD0000F03D35
:10498C000000F0412DE9F047089E0D4604468E4686
:10499C00002B40F083808A42174647D9B2FA82F343
:1049AC004BB1C3F1200105FA03FE20FA01F19F403F
:1049BC0041EA0E0E9C404FEA1748BEFBF8FC1FFA6A
:1049CC0087F908FB1CE20CFB09F0210C41EA0242BE
:1049DC0090420AD9BA180CF1FF3180F0188190423C
:1049EC0040F21581ACF1020C3A44121AB2FBF8F009
:1049FC0008FB102200FB09F1A4B244EA0244A142D4
:104A0C0009D93C1900F1FF3280F00381A14240F238
:104A1C00008102383C44641A002140EA0C401EB16B
:104A2C000022DC40C6E90042BDE8F08702B9FFDE97
:104A3C00B2FA82F3002B4FD18D1A01214FEA124E9C
:104A4C001FFA82F8B5FBFEFC0EFB1C5508FB0CF0A4
:104A5C00220C42EA0545A84207D97D190CF1FF3218
:104A6C0002D2A84200F2E98094462D1AB5FBFEF062
:104A7C000EFB105508FB00F8A4B244EA0544A0450F
:104A8C0007D93C1900F1FF3202D2A04500F2D980BF
:104A9C001046A4EB080440EA0C40C0E78B4208D94E
:104AAC00002E00F0B1800021C6E900050846BDE8E3
:104ABC00F087B3FA83F100294BD1AB4202D3824287
:104ACC0000F2B980841A65EB030301209E46002E88
:104ADC00AAD0C6E9004EA7E79F40C3F12002D140FF
:104AEC004FEA174EB1FBFEF01FFA87F80EFB1011C0
:104AFC0024FA02F29D4000FB08FC2A43150C45EAFF
:104B0C000145AC4504FA03F409D97D1900F1FF31D4
:104B1C0080F08F80AC4540F28C8002383D44A5EB90
:104B2C000C05B5FBFEF10EFB115C01FB08F995B20F
:104B3C0045EA0C45A94507D97D1901F1FF3274D21C
:104B4C00A94572D902393D44A5EB090541EA00415A
:104B5C0078E7C1F120078B4022FA07FC4CEA030CE2
:104B6C0025FA07F44FEA1C4EB4FBFEF91FFA8CF839
:104B7C000EFB194420FA07F309FB08FA8D401D437C
:104B8C002B0C43EA0444A24502FA01F200FA01F3A9
:104B9C0009D91CEB040409F1FF3048D2A24546D9CF
:104BAC00A9F102096444A4EB0A04B4FBFEF00EFB69
:104BBC00104400FB08FAADB245EA0444A24508D9FA
:104BCC001CEB040400F1FF352DD2A2452BD9023881
:104BDC00644440EA0940A0FB0289A4EB0A044C455A
:104BEC00C6464D4619D316D05EB1B3EB0E0264EB3C
:104BFC00050404FA07F722FA01F31F43CC40C6E977
:104C0C0000740021BDE8F087314630460CE78C4635
:104C1C00EBE61046FFE64345E6D2B8EB020E69EB35
:104C2C000C050138E0E72846D3E711468CE78146AE
:104C3C00B9E7084673E7084649E7ACF1020C3D4476
:104C4C0013E702383C4424E7704700BF10B50C460C
:104C5C00416986B001F26C71036982690491016843
:104C6C0003EB43030391416802EB4202029181681A
:104C7C000191C1682046009104490B4404490A443F
:104C8C000449FDF7CFFB204606B010BD3A740A0864
:104C9C0025740A0805740A080A22002101F01ABAC0
:104CAC0010B504460448134620B10A46022021469A
:104CBC00AFF3008010BD00BF000000002DE9F041F3
:104CCC000C46074601F02AFD21468046384601F085
:104CDC0029FD436904469A0703F26C7605D16422D8
:104CEC0096FBF2F302FB13637BBB4FF4C87396FB8A
:104CFC00F3F503FB1565B5FA85F56D093022684BA4
:104D0C0002FB053501F01EFB01F028FB654B1B680F
:104D1C0053B3D8F80430B34219D1D7E90067D8E9B6
:104D2C000823D8F80010D1B9964277EB030323DAA5
:104D3C00D8E91223964277EB0303B4BF0123002377
:104D4C0023621BDBD8F828101AE00125D6E7304681
:104D5C0001F050FA0028E0D14FF0FF3304E0964206
:104D6C0077EB030302DA00232362EBE7D8E9122383
:104D7C00964277EB0303F6DA01232362D8F850103E
:104D8C004FF4616391FBF3F63C2003FB161393FB8A
:104D9C00F0F200FB123061682368891AA2681B1AB2
:104DAC00921B3B2B23606160A26034DD013161609A
:104DBC003C3B236063683B2B33DD0132A2603C3B00
:104DCC006360A368172B32DDE269183B0132E261A4
:104DDC00A269A3600132062AC8BF0022A261E26860
:104DEC0023690132E26055F823108A420EDD0B2B49
:104DFC00A2EB0102E26003F1010205BF002263692C
:104E0C002261013302BF22616361E26101F0A0FA09
:104E1C002046BDE8F081002BCCDA013961603C33CF
:104E2C00C7E7002BCDDA013AA2603C33C8E7002B70
:104E3C00ECDAE2691833013AE261A269A360013A43
:104E4C0048BF0622A261E268013AE260002ADDD185
:104E5C002369013B05D42361236955F82330E360B2
:104E6C00D4E70B23236163695A1E626103F26B72F0
:104E7C00930705D1642192FBF1F301FB132363B972
:104E8C004FF4C87192FBF1F301FB1323B3FA83F3D4
:104E9C005B0903F5B673E361DEE70123F9E700BFB5
:104EAC00C0740A08600700200A44914200F1FF33E5
:104EBC0000D1704710B511F8014B914203F8014F26
:104ECC00F9D110BD03460244934200D1704703F858
:104EDC00011BF9E7F7B5016804463B2911D93C22BF
:104EEC00684601F0C5FB019A63680099002A0B44DF
:104EFC006360BBBF3C3203F1FF3322602260B8BF5A
:104F0C00636061683B2911D93C22684601F0B0FB13
:104F1C00019AA3680099002A0B44A360BBBF3C32E2
:104F2C0003F1FF3362606260B8BFA360A168172908
:104F3C0011D91822684601F09BFB019AE36800998D
:104F4C00002A0B44E360BBBF183203F1FF33A260AD
:104F5C00A260B8BFE36021690B2911D90C22684605
:104F6C0001F086FB019A63690099002A0B44636186
:104F7C00BBBF0C3203F1FF3322612261B8BF636106
:104F8C006369990720D1642193FBF1F201FB123282
:104F9C00E2B94FF4C87103F26C7393FBF1F201FBAD
:104FAC001233002B14BF1C231D23E268002A0FDCD4
:104FBC000B2664204FF4C875314FD4F80CC0BCF1EB
:104FCC00000F31DD03B0F0BD1C23EEE71D23ECE731
:104FDC004FF0000C64254FF4C876294FD4E9031226
:104FEC00012A0CBF184657F822008142EADD013233
:104FFC00091A0C2AE1602261F0D163695A1C9107ED
:10500C00C4E904C237D192FBF5F105FB1122002A49
:10501C0033D103F26D7393FBF6F206FB1233002BC4
:10502C0014BF1C231D23D9E72169013921610131EA
:10503C0014D16369591E8A07C4E9046117D191FB25
:10504C00F0F200FB1211A1B903F26B7393FBF5F2B2
:10505C0005FB1233002B14BF1C231D232269012ACC
:10506C000CBF1A4657F822206244E260A5E71C23C5
:10507C00F4E71D23F2E71C23B0E71D23AEE700BFC6
:10508C0060740A082DE9F04F8BB0054601F046FB21
:10509C004FF03C0A07462846FFF71CFFD5E90023D2
:1050AC000AFB03234FF4616AA868B44A0AFB003A6E
:1050BC00D5E9034352F82320013C012B6E691444BB
:1050CC0011DDB1070FD1642296FBF2F302FB1363DF
:1050DC0043B94FF4C87206F26C7191FBF2F302FB08
:1050EC00131303B9013444F6206206F51C53103334
:1050FC009342EC6100F26881462E77DD462340F244
:10510C006D1E64214FF4C8709A0769D193FBF1F2BC
:10511C0001FB1232002A66D103F26C7C9CFBF0F28C
:10512C0000FB12C2002A14BF72464FF4B77201334F
:10513C009E421444E8D1924B4FEAEA7BC3FB04AB8A
:10514C0001F000F901F00AF98E4BD3F80090B9F197
:10515C00000F3FD0D5F8209068697B68B9F1010F3A
:10516C0000F26C70C846A8BF4FF0010883427FD193
:10517C003B6D1946DA17CDE90012D7E91212CDE9C9
:10518C000212DDE90201BA6A801A61EBE271824512
:10519C00CDE906017BEB010171DA0098396A091A35
:1051AC0004910198796A61EB000105913968002935
:1051BC0075D0DDE9040182457BEB010105DBDDE9FE
:1051CC00060182457BEB01016FDBB9F1000F4FF05B
:1051DC0000096FDABB6A1AEB030A4BEBE37BAEE018
:1051EC0040F26D12A3E74FF4B772A0E7A3D04523AA
:1051FC0040F26D1E64214FF4C87012E062BB93FB49
:10520C00F1F201FB123252BB03F26C7C9CFBF0F20C
:10521C0000FB12C2002A14BF72464FF4B772A41AD4
:10522C00013B9E4203F00302E8DBDAB9642296FBF1
:10523C00F2F302FB1363C3B94FF4C87206F26C713C
:10524C0091FBF2F302FB1313002B40F26D1308BF1A
:10525C004FF4B773E41A6EE740F26D12DFE74FF4C8
:10526C00B772DCE740F26D13F4E74FF4B773F1E774
:10527C0000F0C0FF00287FF47BAFC14654E00098DB
:10528C000299091A08910198039961EB000109919F
:10529C00DDE9080182457BEB0101EEDB7DE7DDE911
:1052AC00040182457BEB010189DBB9F1000F3FDB87
:1052BC004FF0010988EA0908B8F1010F34D1B9F1AE
:1052CC00000F4FD0D31A2A681AEB030A1A442A602B
:1052DC002846D5F80C804BEBE37BFFF7FBFDEA6827
:1052EC00B2EB080220D0012A3EDC901CD8BF012270
:1052FC00EB691444D31847D5721E910737D164213A
:10530C0092FBF1F301FB1323A3BB4FF4C87206F21B
:10531C006B7696FBF2F302FB1366002E40F26D13D4
:10532C0018BF4FF4B673EB61B9F1010F7FF452AFB4
:10533C004FF001093B6D1AEB030A4BEBE37B01F0D9
:10534C0007F80723043494FBF3F3C3EBC303E41A09
:10535C0048BF0734C5F82090AC61504659460BB095
:10536C00BDE8F08F9B1AAEE74FF0FF32C0E74FF469
:10537C00B673D8E740F26D13D5E700BF90740A08F6
:10538C008051010060070020B20717D1642196FB01
:10539C00F1F201FB1262A2B94FF4C87106F26C76FD
:1053AC0096FBF1F201FB1266002E40F26D1208BF63
:1053BC004FF4B7729342A8BF9B1AB4E740F26D1238
:1053CC00F8E74FF4B772F5E74FF0FF3A4FF0FF3BB9
:1053DC00C3E700BF38B50D4B04461D68AB6B7BB9FA
:1053EC001820FCF7FFFF0A4A0A4BA863C0E9002308
:1053FC00094B012283600B2383810023C0E9042322
:10540C000022AB6B1C615A6138BD00BF0800002044
:10541C000E33CDAB34126DE6ECDE05000346C9B29B
:10542C00184613F8012B12B18A42F9D170470029A2
:10543C0018BF0020704710F8012B11F8013B012A0E
:10544C0028BF9A42F7D0D01A7047034611F8012BA7
:10545C0003F8012B002AF9D170470000024B0146DA
:10546C00186800F003B800BF0800002070B50446AF
:10547C0008460D4600F070FD461C31462046FDF7EF
:10548C0001F8044618B132462946FFF70DFD2046B7
:10549C0070BD0000416940F26C730029A8BF6FF029
:1054AC006303CA188B0705D1642192FBF1F301FB4E
:1054BC001323DBB94FF4C87192FBF1F301FB1323F7
:1054CC00B3FA83F35B09D0E90602400000EB02104B
:1054DC00184441F2A26398423AD021DC01281ADC2C
:1054EC000028B4BF00204FF0FF3070470123EAE7DB
:1054FC00172813D8DFE800F00C0C0C0C12120C0C53
:10550C00121212121212121212120C0C12120C0C87
:10551C004FF0FF3070470A381728E9D90020704740
:10552C0041F2B463984206DC41F2B1639842D4BFB5
:10553C00002001207047A0F5B65002381528EDD890
:10554C000123834003481840003818BF01207047DE
:10555C00012070471F002A002DE9F04F1E46002342
:10556C0007460D461C4691B004931378002B00F0AF
:10557C00DA84252B1FD192F80190B9F1300F24D089
:10558C00B9F12B0F21D04FF0000902F1010A9AF862
:10559C000030313B082B1BD850460A2208A900F0DA
:1055AC001FFE8046DDF820A09AF80030452B12D162
:1055BC000AF1010A11E0691EA14202D8002400F090
:1055CC00B5BC3B5501320134CFE702F1020ADEE7EC
:1055DC004FF00008E8E74F2BEAD09AF80000A0F152
:1055EC002503552BEAD801A252F823F0275F0A08AD
:1055FC00C9550A08C9550A08C9550A08C9550A08DF
:10560C00C9550A08C9550A08C9550A08C9550A08CE
:10561C00C9550A08C9550A08C9550A08C9550A08BE
:10562C00C9550A08C9550A08C9550A08C9550A08AE
:10563C00C9550A08C9550A08C9550A08C9550A089E
:10564C00C9550A08C9550A08C9550A08C9550A088E
:10565C00C9550A08C9550A08C9550A088D570A08B8
:10566C00E5570A0857580A08EF580A08C9550A0896
:10567C0039590A082D5A0A08375B0A08455B0A088B
:10568C00C9550A08C9550A08C9550A08755B0A089C
:10569C00C9550A08C9550A08895B0A08C9550A0878
:1056AC00D95B0A08EF5C0A08FF5C0A08535D0A081C
:1056BC00635D0A08D55D0A084F580A08095E0A0896
:1056CC00D55E0A08C9550A08C9550A08C9550A08F9
:1056DC00C9550A08C9550A08C9550A0851570A0874
:1056EC00BB570A0811580A08CB580A08CB580A08A5
:1056FC00C9550A088F590A08BB570A08C9550A0820
:10570C00675B0A08375B0A08455B0A086F5B0A0887
:10571C00795B0A08C9550A08895B0A08C9550A0841
:10572C003F580A08EB5B0A08F35C0A08395D0A0863
:10573C00C9550A08C75D0A0847580A08ED5D0A08EA
:10574C00655E0A08B369A94A183352F823804046AB
:10575C0000F002FC08F1FF3820446B1EA04207D178
:10576C009AF80030002B00F0DE830AF10102FCE60F
:10577C00A3427FF623AF18F8012F3A550134EDE719
:10578C00B2699A4B03EB8203D3F87C80404600F05D
:10579C00E3FB08F1FF3820446B1EA042E0D0A3428B
:1057AC007FF60CAF18F8012F3A550134F5E78F4B03
:1057BC00326953F82280404600F0CEFB08F1FF38E6
:1057CC0020446B1EA042CBD0A3427FF6F7AE18F854
:1057DC00012F3A550134F5E73369844A0C3352F8FA
:1057EC002380404600F0B8FB08F1FF3820446B1EC4
:1057FC00A042B5D0A3427FF6E1AE18F8012F3A557E
:10580C000134F5E7794BD3F8A080404600F0A4FBB7
:10581C0098F80030002BA3D01A9B424600933346D5
:10582C00291B3819FFF798FE00287FF7C7AE0444F0
:10583C0096E76E4BD3F8E480E7E76C4BD3F89C808B
:10584C00E3E76A4BD3F89880DFE76949D6F814B0E0
:10585C008B45ACBF00210121BBF1000F10DB642094
:10586C009BFBF0F01330B9F1000F13D0632824DD4B
:10587C00604A614BB9F12B0F18BF13465F4A0BE01E
:10588C000BF26C70059100F0EFFE6423059990FB10
:10589C00F3F0E8E7574B5A4AB8F1020F2CBFC1EBB3
:1058AC000801C1F10201019000915148554983450D
:1058BC00B8BF0B46291B381929E04E4BDEE752497D
:1058CC00524AF368642808BF0A46291B3819FCF7AA
:1058DC00C1FD0028FFF672AE0444A5423FF640AF6E
:1058EC006CE670693369002803F1010B07EB0408BF
:1058FC00F368A5EB04090DDB642190FBF1F201FBCD
:10590C001202CDE9003249465B464046404AFCF75C
:10591C00A1FDDEE700F26C70059300F0A5FE642299
:10592C0090FBF2F1059B01FB1202EAE725238DF8AF
:10593C002030B9F1000F13D0B8F1060F38BF4FF07B
:10594C000608B8F106038DF821900ED10DF1220056
:10595C003049FFF77AFD1A9B08AA009333465FE79C
:10596C004FF02B094FF00A08EBE71E212A4A0DF1E4
:10597C002200FCF76FFD0028E8DD0DF1220318442E
:10598C00E6E73046FFF786FD80467069002811DB9C
:10599C00642290FBF2F302FB13039844642398FBFC
:1059AC00F3F003FB10889844B8FBF3F203FB12836B
:1059BC00154A8AE700F26C7000F056FE642390FBE7
:1059CC00F3F2B8F1000F02FB130306DA7169134A04
:1059DC009142B8BF4FF00108DFE7DED07169044A8D
:1059EC009142B8BF4FF0FF38D7E700BFA8760A083E
:1059FC0094F8FFFFF66A0A082F750A0827750A083B
:105A0C0020750A0831750A0841750A0833750A08A9
:105A1C0037750A084A750A0846750A0895F8FFFF93
:105A2C00B74B716930469942ACBF00230123CDE9D5
:105A3C000531FFF72FFD0699834600292ADB6422E6
:105A4C0091FBF2F21332706900282DDB4FF0640CDD
:105A5C0090FBFCFE0CFB1E00BBF1000F33DA7169EE
:105A6C00A84B994239DB0BEB0003591C3AD1632349
:105A7C00013A642000FB0232059B002B37D02D230A
:105A8C008DF82030B8F1000F01D008F1FF380DF17E
:105A9C00210337E001F26C70069100F0E5FD642201
:105AAC00069990FBF2F2CEE700F26C70CDE906128B
:105ABC0000F0DAFDDDE906124FF0640C90FBFCFE01
:105ACC000EFB1C00C8E7CED08D4B9942B6BF01230C
